:020000040800F2
:1000000000040020C1010008E1020008E10200082C
:10001000E1020008E1020008E1020008E102000834
:10002000E1020008E1020008E1020008910F000867
:10003000E1020008E1020008E1020008E102000814
:10004000E1020008E1020008E1020008E102000804
:10005000E1020008E1020008E1020008E1020008F4
:10006000E1020008E1020008E102000811130008A3
:100070005113000891130008D1130008111400084F
:100080005114000891140008411B0008E102000807
:10009000E1020008E1020008E1020008E1020008B4
:1000A000E1020008E1020008E1020008E1020008A4
:1000B00061190008E1020008E1020008E1020008FD
:1000C000E1020008E1020008E1020008E102000884
:1000D000E1020008E1020008E1020008E102000874
:1000E000E1020008E1020008E1020008E102000864
:1000F000E1020008E1020008E1020008D114000852
:10010000E1020008E1020008E1020008E102000843
:10011000E1020008E1020008E1020008E102000833
:10012000111500085115000891150008D115000897
:1001300011160008E1020008E1020008E1020008CF
:10014000E1020008E1020008E1020008E102000803
:100150005116000891160008D1160008E1020008A7
:10016000E1020008E1020008E1020008E1020008E3
:10017000E1020008E1020008E1020008E1020008D3
:10018000E1020008E1020008E1020008E1020008C3
:10019000E1020008E1020008E1020008E1020008B3
:1001A000E1020008E1020008E1020008E1020008A3
:1001B000E1020008E1020008E1020008E102000893
:1001C00072B6214880F30988022080F31488BFF3B7
:1001D0006F8F02F005F84FF055301C491C4A9142D0
:1001E0003CBF41F8040BFAE71A49174A91423CBF59
:1001F00041F8040BFAE71849184A194B9A423EBFD6
:1002000051F8040B42F8040BF8E700201549164A90
:1002100091423CBF41F8040BFAE700F051F8134C4F
:10022000134DAC4203DA54F8041B8847F9E702F097
:100230001FF8104C104DAC4203DA54F8041B8847E9
:10024000F9E700F045B80000000800200000002099
:100250000004002000040020682700080008002097
:100260000008002000080020A0110020C0010008A4
:10027000C0010008C0010008C00100080000000023
:100280002DE9F04FC1F80CD0D0F80CD0BDE8F08FBC
:1002900000F016F900F0F4FD002383F311882846DE
:1002A000A047002000F0CCFC00F0E2FD00F0F8F8E0
:1002B00000F0C6FB00F004F900F0E2FD00DFFEE70D
:1002C000704700BF000000000000000000000000B8
:1002D000FEE700BF0000000000000000000000007A
:1002E000FEE700BF0000000000000000000000006A
:1002F000024B034A9B699A61FEE700BF0008002099
:1003000020230008000000000000000000000000A2
:10031000234B244A2448F0B500249C60DF68234E18
:10032000234D4FF6FF0139400A43DA60F26842F08C
:100330008072F2600268202142F001021026026001
:1003400083B0DE7783F8221000F02AFA00F078F903
:1003500000F00EFD00F0BCFD00F00AFE00F048FDCC
:1003600000F046F94021284600F072FBA5F58867A9
:10037000104BC361012680F82060B86100F080F85E
:1003800084F3118862B6BB690B4A9A6105F1A0003B
:1003900032460094094BF82100F0B2FB03B0F0BDE7
:1003A00000ED00E00003FA05001000E0F0ED00E0D1
:1003B000400C00200004002040240008F102000846
:1003C00072B6014BD862FEE7000800200000000072
:1003D0002DE9F047274D4FF0804600F0E9F800F096
:1003E000E7F8EC69AB6A726AA168D01A884205F135
:1003F0001C0A22D300274FF020082268D4F80C9062
:100400000B445245AB62C2F804A0EA61E7602ED00B
:1004100000F086F800F044FD87F311882069C84792
:1004200088F3118800F034FD00F062F8EC69726A1C
:10043000AB6AA168D01A8142DFD9544515D00B446C
:100440009B1A012B98BF02239C18204600F010FE37
:100450004FF08043A96A5A6A0648631A521A9A42B0
:1004600003D972B6044BC362FEE7BDE8F08700F023
:10047000F7FDCDE700080020102300080000000071
:10048000044B1A6B0AB95B6B13B10348FFF798BFB3
:10049000704700BF00080020402300080000000053
:1004A00010B5054C236B0BB9636B13B10348FFF711
:1004B00087FF0123636310BD000800204823000864
:1004C00010B5074C236B2BB9636B002B02DD0023A7
:1004D000636310BD0348FFF773FF0023636310BD20
:1004E0000008002050230008000000000000000069
:1004F00010B5064C236B002B01DD636B13B1044870
:10050000FFF75EFF0123636310BD00BF00080020FA
:100510005823000800000000000000000000000058
:1005200010B5084C236B002B05DD636B002B02DD3F
:100530000023636310BD0448FFF742FF0023636399
:1005400010BD00BF0008002060230008000000006C
:1005500010B5202383F31188074C236B002B01DB9C
:10056000626B1AB10548FFF72BFF236B013323633E
:10057000002383F3118810BD0008002068230008C1
:1005800010B5202383F31188074C236B002B01DD6A
:10059000626B1AB10548FFF713FF236B013B23631E
:1005A000002383F3118810BD000800207023000889
:1005B000054B1A6B002A03DB5B6B002B00DD7047D9
:1005C0000248FFF7FDBE00BF0008002078230008A6
:1005D000044B1A6B1AB95B6B002B00DD70470248A5
:1005E000FFF7EEBE00080020802300080000000096
:1005F000024B40215A189963DA63704700080020C3
:100600000B4A4FF08041D36B10B44C6A916959602A
:100610001C60416A996090F820101973103302F53C
:1006200088618B4228BF02F14003D36310BC70473E
:100630000008002000000000000000000000000092
:10064000054B4FF0FF3003F11C0200215862996204
:10065000DA611A62704700BF000800200000000045
:100660002DE9F04105460E4614469846FFF7A0FFD7
:10067000002D2DD064B35EB31E4FC5F810803B46ED
:10068000012E53F81C1FEC604FF0804298BF0226E9
:100690009942506A23D0BC6A8B683044041B9C4248
:1006A0001AD3FB699A68944204D91B68A41A9A6801
:1006B000A242FAD35A686A602B6015605D60AC6034
:1006C0009A684FF0FF31141B9C607962BDE8F0819D
:1006D0000948FFF775FECFE700F0CAFCE1E7B86212
:1006E000FD613D62304429606960AE60BDE8F04163
:1006F00000F09EBC000800209023000800000000CD
:1007000010B50446FFF754FF002C33D0E368002BEC
:1007100034D01E4BDA6994420FD0616822680A60B7
:1007200022681C3300209A425160E06004D0A36824
:1007300091680B44936010BD10BD1A46216842F8C1
:100740001C1F002091424A60E0601BD0A2688868AC
:100750009C6A83184FF080428B60506A021B934260
:10076000EAD99B1A012B98BF02231844BDE8104018
:1007700000F07EBC0648FFF723FEC7E70448FFF7FA
:100780001FFEC6E7BDE8104000F06ABC000800206C
:10079000A02300080000000000000000000000008E
:1007A000034B00221B605B601B615B619A607047BA
:1007B0000008002000000000000000000000000011
:1007C00010B50446FFF7F4FEC4B194F820308BB1A5
:1007D0000F2B0FD00022A1680A4B84F820201B6841
:1007E0009A688A42FBD25A6862602360204614608D
:1007F0005C6010BD0448FFF7E3FDEBE70248FFF73C
:10080000DFFDE2E700080020B02300080000000040
:1008100038B50446202383F3118800F039FBFFF735
:1008200067FE94F82030072B10D8DFE803F0150F8F
:100830000F1D0A040F0A656AFFF7BAFEAB680133A1
:10084000AB6094E80C001A60226853604FF0FF33ED
:1008500063622046FFF7B4FFFFF762FE00F020FB63
:10086000002383F3118838BD636A00221A604FF0B9
:10087000FF3363622046FFF7A3FFEDE700000000AF
:1008800070B5124C0646FFF7A3FEA569236885F8EC
:1008900020601A68226001215460284683F82010E5
:1008A000A361FFF7ADFE2946A06900F0C9FAEFF396
:1008B0000983EA69243B9A4202D90548FFF780FD83
:1008C0002946A069BDE87040FFF7DABC00080020A7
:1008D000C02300080000000000000000000000002D
:1008E00070B50C4686B00646FFF772FE631C14D046
:1008F0000E4D0F4AAB69214601A8FFF7B1FE304605
:10090000FFF7BEFFFFF754FE049B13B101A8FFF7EA
:10091000F7FEAB69586A06B070BD044D3046FFF76C
:10092000AFFFAB69586A06B070BD00BF0008002079
:100930001108000800000000000000000000000096
:1009400070B5194D04460E46FFF742FEA86966626F
:100950008368A2689A4218D9FFF732FF012306463E
:1009600084F82030AC61FFF74BFE3146204600F0A2
:1009700067FAEFF30983F269243B9A420AD83146B9
:100980002046BDE87040FFF77BBC2046BDE87040C4
:10099000FFF716BF0548FFF713FD31462046BDE8B7
:1009A0007040FFF76DBC00BF00080020C0230008A6
:1009B000044B1A689B6990689B68984294BF00201A
:1009C0000120704700080020000000000000000027
:1009D00038B5174D2A68AC6913682B6001215D603A
:1009E000002082F82010A16884F82000AA6100E0AD
:1009F0001B689A688A42FBD85A6862602360204666
:100A000014605C60FFF7FCFD2146A86900F018FA4D
:100A1000EFF30983E269243B9A4202D90548FFF7C4
:100A2000CFFC2146A869BDE83840FFF729BC00BFCC
:100A300000080020C02300080000000000000000A3
:100A4000FFF7C6BF0000000000000000000000002B
:100A5000154AF8B504460225506921640023A160B7
:100A60004FF0010E04F12C0184F8205004F1280706
:100A700004F1480504F160062261606184F822E017
:100A800084F82130E363A363A36104612846E16233
:100A90002163A762E661546100F02AF9284600F05C
:100AA00037F92046F8BD00BF000800200000000014
:100AB0002DE9F04104460D4616461F46DDF8188024
:100AC000FFF776FD0CB1E72D11D80B48FFF778FC46
:100AD000A5F12403E218094DE2603146E7502046B3
:100AE000C2F804801562BDE8F041FFF7B1BF7F2E68
:100AF000EBD8002FECD1E8E7E023000891020008D2
:100B00002DE9F04F83B080460C9F894692469B4664
:100B100000F160050446FF2604F8016BA542FBD1F5
:100B200008EB0904A54238BF552603D205F8016B2E
:100B3000AC42FBD1202383F3118800F099F9FFF731
:100B4000AFFC5B465246494600974046FFF7B0FF70
:100B500000210446FFF7F4FEFFF7B2FC00F090F925
:100B6000094B1A689A4207D0996993688A689A4231
:100B700002D20648FFF724FC002383F311882046A5
:100B800003B0BDE8F08F00BF00080020202400085B
:100B900010B52023044683F3118800F069F9FFF7AC
:100BA0007FFC14B90D48FFF70BFC21460820FFF726
:100BB00097FEFFF785FC00F063F9094B1A689A422B
:100BC00007D0996993688A689A4202D20548FFF76C
:100BD000F7FB002383F3118810BD00BF1024000829
:100BE0000008002020240008000000000000000091
:100BF00038B5104B9C69A36A606204F128059D42D8
:100C000007D01A68A2621846FFF7DAFDA36AAB4262
:100C1000F7D194F821309B0704D1636922691A61E6
:100C2000226953610F20FFF72BFE0348BDE83840CF
:100C3000FFF7C6BB00080020D0230008000000001A
:100C400010B52023044683F3118800F011F9FFF753
:100C500027FC2046BDE81040FFF7CABF0000000097
:100C600070B50368074D0446AE6913B10648FFF737
:100C7000A7FB266003207462FFF702FEAB69586A87
:100C800070BD00BF00080020002400080000000024
:100C900070B5046884B194F82030032B0E460546E5
:100CA00002D00648FFF78CFB00232B6066622046CB
:100CB000BDE87040FFF784BD70BD00BFF0230008A1
:100CC00070B5056885B195F82030032B0E460446B3
:100CD00002D00648FFF774FB002331462846236004
:100CE000BDE87040FFF72CBE70BD00BF3024000887
:100CF00000220023C0E9042300234FF0FF3280E8E4
:100D00000C008360C360704700000000000000001A
:100D1000014B5B6883607047001000E0000000003A
:100D20000F4B10495A688368F0B4D1F8A074C668B4
:100D30004168D0E90445D31ADB1BE41845F10005EE
:100D400001368B42C6608360C0E9044505D802685D
:100D5000934238BF0360F0BC70474360F0BC7047FB
:100D6000001000E00008002000000000000000006B
:100D7000D0B50D4C86B000234FF0FF3268460026F8
:100D80000027C4F8A0340193029303930092CDE9A5
:100D90000467FFF7BDFF6846FFF7C2FF029BC4F878
:100DA000A03406B0D0BD00BF000800200000000045
:100DB0000E4B42685B6870B48B60D0E9044586686E
:100DC000C1689B1BE41845F1000501319342C160E5
:100DD0008360C0E9044505D80268934238BF0360C8
:100DE00070BC7047436070BC704700BF001000E0EB
:100DF00010B5084C002304F59660C4F8A834C4F874
:100E0000AC34FFF775FF04F59960BDE81040FFF7BB
:100E10006FBF00BF000800200000000000000000BD
:100E2000034AD2F8A8340133C2F8A834704700BF8F
:100E3000000800200000000000000000000000008A
:100E4000074AD2F8AC3410B401F14804013300F180
:100E50004801204610BCC2F8AC34FFF7A9BF00BF60
:100E6000000800200000000000000000000000005A
:100E70000148FFF74DBF00BFB00C0020000000008C
:100E80000148FFF74DBF00BFB00C0020000000007C
:100E90000148FFF73DBF00BFC80C00200000000064
:100EA0000148FFF73DBF00BFC80C00200000000054
:100EB00010B5044620B1002324606460A36010BD17
:100EC0000148FFF77DFAF6E7602400080000000003
:100ED000054A064B0648074922F0070223F007039C
:100EE00002600B60704700BFA711002000000220C5
:100EF000DC0D0020D80D00200000000000000000E4
:100F000010B52023044683F31188FFF7B1FFFFF7E4
:100F1000C7FAFFF74DFB1149114B08681A68E31D2A
:100F200023F00703121A93429DBF1B180B6004465F
:100F30000024FFF7C5FAFFF7A3FF0A4B1A689A428D
:100F400007D0996993688A689A4202D20648FFF7E7
:100F500037FA002383F31188204610BDDC0D0020F2
:100F6000D80D0020000800207024000800000000B8
:100F7000044B054A1A6003F1100000229A60DA60FF
:100F8000FFF796BFE00D0020010F000800000000F1
:100F9000EFF30983203383F30988002383F3118857
:100FA000704700BF000000000000000000000000CB
:100FB000202383F311880F4B5B6813F4006302D185
:100FC00083F31188704710B5EFF309844FF08073F5
:100FD00044F8043CA4F1200383F30988FFF7E8FCFC
:100FE00018B1054B44F8083C10BD044B44F8083CCC
:100FF00010BD00BF00ED00E0A9020008BC0200081F
:1010000008B500F00DFC054800F0B2FF00F040F814
:1010100001F0EEF8BDE8084000F002B80026000834
:1010200000F0C6BC0000000000000000000000004E
:101030004FF0804310B5DB689B07044602D5054896
:10104000FFF7BEF94FF08043002102225C63196173
:10105000DA6010BD802400080000000000000000DD
:101060004FF080430022DA60704700BF00000000AC
:101070004FF0804310B5DB689B07044602D4034859
:10108000FFF79EF94FF080435C6310BD9024000889
:1010900000F03EBE00000000000000000000000064
:1010A00000230122027043608360C36003614361D7
:1010B0001830FFF7FDBE00BF000000000000000078
:1010C00038B50D46044638B3202383F31188FFF763
:1010D000CFFEFFF7E5F92378013B012B02D9104839
:1010E000FFF76EF92046656000F052FE0223237080
:1010F000FFF7E6F9FFF7C4FE0A4B1A689A4207D0D9
:10110000996993688A689A4202D20748FFF758F9AA
:10111000002383F3118838BD0148FFF751F9D3E765
:10112000A024000800080020F024000800000000AF
:10113000F8B504460E4617461D46FFF739FAC4B106
:10114000BEB1B7B1012D01D0EB0712D42378022B29
:1011500005D0043B012B02D90848FFF731F90323DE
:10116000A760E560266123702046BDE8F84000F0E6
:1011700087BE0248FFF724F9E8E700BFB024000863
:10118000F8B51F4604460D461646202383F3118802
:10119000FFF76EFEFFF784F93B46324629462046AC
:1011A000FFF7C6FFFFF78CF9FFF76AFE074B1A68D7
:1011B0009A4207D0996993688A689A4202D2044891
:1011C000FFF7FEF8002383F31188F8BD0008002024
:1011D000F0240008000000000000000000000000F3
:1011E00010B5044688B3202383F31188FFF740FE2F
:1011F000FFF756F923789A1E012A03D91548FFF7FD
:10120000DFF82378022B0CD0204600F089FE204620
:101210000022022322616FF0010100F8143BFFF766
:101220004FFDFFF74DF9FFF72BFE0B4B1A689A4263
:1012300007D0996993688A689A4202D20748FFF7F3
:10124000BFF8002383F3118810BD0248FFF7B8F8F8
:10125000C9E700BFD024000800080020F0240008DF
:10126000F8B51F4604460D461646202383F3118821
:10127000FFF7FEFDFFF714F9636913B11148FFF79B
:101280009FF83B46324629462046FFF751FF04F1BE
:101290001400FFF7E5FC0446FFF712F9FFF7F0FD35
:1012A000094B1A689A4207D0996993688A689A42EA
:1012B00002D20648FFF784F8002383F31188204602
:1012C000F8BD00BF0025000800080020F024000839
:1012D00043099B0010B403F1604300F1604404F53E
:1012E000614403F56143090100F01F00012202FA85
:1012F00000F0C9B284F80013C3F88001186010BC74
:10130000704700BF00000000000000000000000067
:1013100008B5FFF785FDFFF71BF9084B084A196868
:1013200001F03D01996013680BB150689847FFF7D1
:1013300027F9BDE80840FFF73BBE00BF0060024050
:10134000000E00200000000000000000000000006F
:1013500010B5FFF765FDFFF7FBF8094B0948196861
:101360008268890901F03D018C019C600AB1C06866
:101370009047FFF705F9BDE81040FFF719BE00BF21
:1013800000600240000E002000000000000000008D
:1013900010B5FFF745FDFFF7DBF8094B0948196861
:1013A0000269090C01F03D010C049C600AB140691E
:1013B0009047FFF7E5F8BDE81040FFF7F9BD00BF23
:1013C00000600240000E002000000000000000004D
:1013D00010B5FFF725FDFFF7BBF8094B0948196861
:1013E0008269890D01F03D018C059C600AB1C069DC
:1013F0009047FFF7C5F8BDE81040FFF7D9BD00BF23
:1014000000600240000E002000000000000000000C
:1014100008B5FFF705FDFFF79BF8084B084859682A
:10142000026A01F03D01D9600AB1406A9047FFF7B6
:10143000A7F8BDE80840FFF7BBBD00BF0060024051
:10144000000E00200000000000000000000000006E
:1014500010B5FFF7E5FCFFF77BF8094B0948596821
:10146000826A890901F03D018C01DC600AB1C06A21
:101470009047FFF785F8BDE81040FFF799BD00BF22
:1014800000600240000E002000000000000000008C
:1014900010B5FFF7C5FCFFF75BF8094B0948596821
:1014A000026B090C01F03D010C04DC600AB1406BD9
:1014B0009047FFF765F8BDE81040FFF779BD00BF22
:1014C00000600240000E002000000000000000004C
:1014D00010B5FFF7A5FCFFF73BF8094B0948596821
:1014E000826B890D01F03D018C05DC600AB1C06B97
:1014F0009047FFF745F8BDE81040FFF759BD00BF22
:1015000000600240000E002000000000000000000B
:1015100008B5FFF785FCFFF71BF8084B084819686A
:10152000026C01F03D0199600AB1406C9047FFF7F1
:1015300027F8BDE80840FFF73BBD00BF006402404C
:10154000000E00200000000000000000000000006D
:1015500010B5FFF765FCFEF7FBFF094B094819685A
:10156000826C890901F03D018C019C600AB1C06C5C
:101570009047FFF705F8BDE81040FFF719BD00BF21
:1015800000640240000E0020000000000000000087
:1015900010B5FFF745FCFEF7DBFF094B094819685A
:1015A000026D090C01F03D010C049C600AB1406D14
:1015B0009047FEF7E5FFBDE81040FFF7F9BC00BF1C
:1015C00000640240000E0020000000000000000047
:1015D00010B5FFF725FCFEF7BBFF094B094819685A
:1015E000826D890D01F03D018C059C600AB1C06DD2
:1015F0009047FEF7C5FFBDE81040FFF7D9BC00BF1C
:1016000000640240000E0020000000000000000006
:1016100008B5FFF705FCFEF79BFF084B0848596823
:10162000026E01F03D01D9600AB1406E9047FEF7AD
:10163000A7FFBDE80840FFF7BBBC00BF0064024045
:10164000000E00200000000000000000000000006C
:1016500010B5FFF7E5FBFEF77BFF094B094859681A
:10166000826E890901F03D018C01DC600AB1C06E17
:101670009047FEF785FFBDE81040FFF799BC00BF1B
:1016800000640240000E0020000000000000000086
:1016900010B5FFF7C5FBFEF75BFF094B094859681A
:1016A000026F090C01F03D010C04DC600AB1406FCF
:1016B0009047FEF765FFBDE81040FFF779BC00BF1B
:1016C00000640240000E0020000000000000000046
:1016D00010B5FFF7A5FBFEF73BFF094B094859681A
:1016E000826F890D01F03D018C05DC600AB1C06F8D
:1016F0009047FEF745FFBDE81040FFF759BC00BF1B
:1017000000640240000E0020000000000000000005
:101710000E490F4A0F48002310B40B600E4C1946B7
:1017200001E052F80C0C016044F833100133102B27
:1017300002F10C02F5D10949094A10BC4FF0FF3300
:101740008B60CB609360D360704700BF800E002039
:101750003C25000810600240000E0020006002409E
:1017600000640240000000000000000000000000D3
:10177000F0B5054685B000283ED0244C6F7A266827
:10178000012000FA07FE1EEA060F2AD120484EEA81
:10179000060600EBC70E16F0FF0F266040F8372054
:1017A000CEF8043004D01B48036B43F400130363EA
:1017B00016F47F4F17D12B68186820F01F001860AF
:1017C000186810F00104FBD12F7A6E683D20B840F4
:1017D000212730601C605F615AB1A87AFFF778FD5D
:1017E000204605B0F0BD0B48036B43F48003036350
:1017F000E1E7104605B0F0BD07480393029201915E
:10180000FEF7DEFD01A90EC9B7E700BF800E00207C
:10181000000E0020003802401025000800000000E3
:10182000164B4FF0FF311A69002210B419611A618A
:10183000586959615A61186A114C60F080501862F9
:101840001A62586A59625A62196C41F080511964DF
:10185000216841F480712160196F01F44071B1F584
:10186000007F03D04FF4803119671A67044A10BC17
:10187000536823F400735360FFF74ABF00380240F7
:1018800000700040000000000000000000000000A8
:101890002C492D4B4FF080504FF4404208641A60A1
:1018A0000B6843F001030B600A68264B9007FBD5D9
:1018B0009A6822F003029A609A689A6019468B68C7
:1018C000204A13F00C03FAD1116801F0F9011160FC
:1018D0009360136843F4803313601168194B8903D4
:1018E000FBD55A6F42F001025A675A6F15499007AB
:1018F000FBD5164B4B600B68134A43F080730B60AB
:1019000053685904FCD50F490A680E4B9201FBD568
:101910000F4A1049996040F2057111609A6842F0CF
:1019200002029A601A469368064903F00C03082BDA
:10193000F9D14B6C43F480434B644B6E43F48043CA
:101940004B66704700380240007000400854400762
:10195000003C024000940838000000000000000035
:1019600010B5FFF75DFAFEF7F3FD4FF080431A69FB
:10197000920710D500241C61202383F31188FFF700
:1019800087FAFEF7B5FDFEF723FDFEF7C9FDFFF769
:1019900087FA84F31188FEF7F3FDBDE81040FFF7E6
:1019A00007BB00BF000000000000000000000000B6
:1019B0000F4A1048136C70B443F00103136481683C
:1019C0004FF080430022012441F0010142F2CF0692
:1019D0004FF0FF3581609E620821DD621C209A6114
:1019E0005A63DA605A605C611C6070BCFFF770BCBF
:1019F00000380240002004E0000000000000000069
:101A000011F00C0F2DE9F041044636D0C06A03688E
:101A10001A6822F01F021A60196811F00101FBD147
:101A20002269077A46689568A36A3D22BA40012078
:101A3000326059609960986045B105232370204653
:101A4000A8472378052B04BF0223237000252561B6
:101A5000202383F31188FFF71BFAFEF749FD04F1F9
:101A600014004FF0FF31FFF713F9FEF759FDFFF7B0
:101A700017FA85F31188BDE8F0810569A5B18A06DA
:101A800010D52B78DBB16B6873B1C268012A4FD9CE
:101A900069888468520802FB01F104EB4101BDE84A
:101AA000F0411847CB0601D4BDE8F0816B68002BEC
:101AB000FAD0C26881685208BDE8F0411847C06A90
:101AC0000268136823F01F031360136813F0010307
:101AD000FBD1077A46686D68A26A3D21B9400120B2
:101AE0003160536093609060EDB104232370E2682D
:101AF000A1682046A8472378042B14D0202383F321
:101B00001188FFF7C5F9FEF7F3FC04F1140000217A
:101B1000FFF7BEF8FEF704FDFFF7C2F9002383F3D9
:101B20001188BDE8F0810222002322702361E5E7DD
:101B30008168BDE8F0411847000000000000000087
:101B4000F8B5FFF76DF9FEF703FD664B1A68002143
:101B5000196091063BD5644CE16A0A685368002B12
:101B600035D02569002D32D0136823F01F03136090
:101B7000136813F00103FBD1087AAE684F68A26ABC
:101B8000594D3D2101FA00F0012138605360936006
:101B9000916046B105232B702846B0472B78052B62
:101BA00004BF02232B7000252561202383F31188B5
:101BB000FFF76EF9FEF79CFC4FF0FF314B48FFF743
:101BC00067F8FEF7ADFCFFF76BF985F31188484B1A
:101BD0001A680021920619603BD5464CE16A0A68F2
:101BE0005368002B35D02569002D32D0136823F0BF
:101BF0001F031360136813F00103FBD1087AAE686A
:101C00004F68A26A3B4D3D2101FA00F00121386086
:101C100053609360916046B105232B702846B0470E
:101C20002B78052B04BF02232B7000252561202370
:101C300083F31188FFF72CF9FEF75AFC4FF0FF31C0
:101C40002D48FFF725F8FEF76BFCFFF729F985F320
:101C500011882A4B1A680021196093063BD5284C3D
:101C6000E16A0A685368002B35D02569002D32D00F
:101C7000136823F01F031360136813F00103FBD1F3
:101C8000087AAE684F68A26A1D4D3D2101FA00F046
:101C90000121386053609360916046B105232B7039
:101CA0002846B0472B78052B04BF02232B70002554
:101CB0002561202383F31188FFF7EAF8FEF718FC6B
:101CC0004FF0FF310F48FEF7E3FFFEF729FCFFF767
:101CD000E7F885F31188FEF753FCBDE8F840FFF7FD
:101CE00067B900BF00200140840E0020980E00203C
:101CF00000210140B80E0020CC0E0020002201403F
:101D0000EC0E0020000F002000000000000000008A
:101D1000F8B5124F124E134D134C3846FFF7C0F969
:101D2000124A134BBA6230463B63FC62FFF7B8F9C4
:101D3000104A114BB2622846A4F11802F2623363D2
:101D4000243CFFF7ADF90D4B0D4AEC62AA622B6300
:101D500006211220BDE8F840FFF7BABA840E002031
:101D6000B80E0020EC0E0020C02500080020014025
:101D7000162C020000210140162C0202162C02042F
:101D800000220140000000000000000000000000F0
:101D900038B50378012B00D038BD2C4DA84204463D
:101DA00013D02B4DA84222D02A4DA84230D02A4829
:101DB000A26A436803F44003002143F48033012402
:101DC000436051609160946038BD0346234AC06A05
:101DD0000621FFF7CDFC00282BD1EB6A204A1B68B7
:101DE00020499960536C43F480735364DFE70346E2
:101DF0001A4AC06A0621FFF7BBFCF0B9EB6A184A21
:101E00001B6819499960536C43F400735364CEE71F
:101E10000346124AC06A0621FFF7AAFC88B9EB6A9A
:101E20000F4A1B6811499960536C43F480635364F3
:101E3000BDE70F48FEF7C4FACFE70D48FEF7C0FA3A
:101E4000DCE70B48FEF7BCFAE9E700BF840E002090
:101E5000B80E0020EC0E002000230140011A0008FB
:101E6000003802404C2001404C2101404C220140EE
:101E7000F025000800000000000000000000000045
:101E80000369016B1A78F0B5002A2BD1C268C56AC4
:101E90005C882D688668EE6002FB04F26A60DC688C
:101EA00029602E68826A1969D3F814E09F6944F0AA
:101EB000806046F001042C600024DD6914601C6A17
:101EC0005B6AC2F80CE040F480701761D56214635D
:101ED00053634B0050600DD441F4407141F0010157
:101EE0009160F0BDC268012A94BF41F4807141F451
:101EF0008471CCE721F0804323F0020343F4407364
:101F000041F4407143F0030341F003019360916099
:101F1000F0BD00BF00000000000000000000000055
:101F200030B4C46A2268136823F01F031360136877
:101F300013F00103FBD1257A826A64683D21A94030
:101F400001202160536030BC93609060704700BFF7
:101F5000024A536843F40003536070470023014072
:101F6000024A536823F40003536070470023014082
:101F7000F0B4654D654C2F6B6549664A664B40F27F
:101F8000FF1637432F632F6D3E432E65456865600E
:101F90008568A560C568E560056965614569256274
:101FA0008569656205682560046A4C60446A8C60D6
:101FB000846ACC60C46A4C61046B0C62446B4C62F2
:101FC000C4690C60C16B5160016C9160416CD1605F
:101FD000816C5161C16C1162016D5162816B116044
:101FE000826D5A60C26D9A60026EDA60426E5A610A
:101FF000826E1A62C26E5A62426D1A60426FC3F8F4
:102000000424826FC3F80824C26FC3F80C24D0F8EC
:102010008020C3F81424D0F88420C3F82024D0F8FA
:102020008820C3F82424026FC3F80024D0F890203D
:10203000C3F80428D0F89420C3F80828D0F89820D2
:10204000C3F80C28D0F89C20C3F81428D0F8A0209E
:10205000C3F82028D0F8A420C3F82428D0F88C2076
:10206000C3F8002803F54063D0F8AC205A60D0F8DC
:10207000B0209A60D0F8B420DA60D0F8B8205A6165
:10208000D0F8BC201A62D0F8C0205A62D0F8A8203C
:102090001A60D0F8C820C3F80424D0F8CC20C3F8C4
:1020A0000824D0F8D020C3F80C24D0F8D420C3F8EA
:1020B0001424D0F8D820C3F82024D0F8DC20C3F8AA
:1020C0002424D0F8C420C3F80024D0F8E420C3F8B6
:1020D0000428D0F8E820C3F80828D0F8EC20C3F88A
:1020E0000C28D0F8F020C3F81428D0F8F420C3F856
:1020F0002028D0F8F820C3F82428D0F8E020C3F82E
:102100000028F0BC704700BF0038024000000240C9
:102110000004024000080240000C024000000000E1
:102120002DE9F04F4FF00F0C02F0030EC2F38007C1
:10213000C2F3C106C2F341150024C2F3C3124FF02B
:1021400001094FF0030830E0D0F820B02BEA030378
:1021500043EA0A030362436809FA04FA23EA0A031A
:102160003B4343606300D0F808A008FA03F3DB4365
:102170000AEA030A4AEA060AC0F808A0D0F80CA046
:1021800003EA0A0A4AEA050AC0F80CA0D0F800A03F
:1021900003EA0A0343EA0E030360490819D07F00EB
:1021A000B600AD004FEA8E0E013404F007039B0029
:1021B00011F0010F02FA03FA0CFA03F3EDD0072C29
:1021C000C2D9D0F824B02BEA030343EA0A034362DE
:1021D000C1E7BDE8F08F00BF000000000000000074
:1021E000FFF756BB000000000000000000000000E8
:1021F000704700BF00000000000000000000000069
:10220000044B8B420CBF044B044B19680A441A6000
:10221000704700BFA0100020881000208C10002004
:10222000704700BF00000000000000000000000038
:1022300008B5094B094A9B69094C9A614FF48045DE
:102240002E46268341F28830FEF7A2FC658341F2D8
:102250008830FEF79DFCF4E70008002060270008A6
:10226000000C024000000000000000000000000020
:1022700000B583B0FEF7C4FE0025FEF749F803223F
:1022800006211848184CFFF74BFF184B00954022C9
:102290004FF4B4711648FEF733FC29461548FEF793
:1022A0000FFFFFF755FE0823134A14491148FEF7A4
:1022B000D7FF42F21070FEF76BFC1023104A114951
:1022C0000C48FEF75DFF03E041F28830FEF760FC4A
:1022D0002369DB07F8D50748FEF782FFFFF740FECA
:1022E000F2E700BF0008024000000240312200086F
:1022F000200F0020840E00209010002000270008EE
:10230000A01000203027000800000000000000009E
:1023100063685654446F5469636B490000000000C1
:1023200069646C650000000000000000000000000F
:1023300053562331000000005356233200000000A2
:10234000535623330000000053562334000000008E
:10235000535623350000000053562336000000007A
:102360005356233700000000535623380000000066
:10237000535623390000000053562331300000002B
:10238000535623313100000000000000000000001F
:1023900063685654446F53657449000000000000A0
:1023A00063685654446F52657365744900000000B9
:1023B00063685363685265616479490000000000F6
:1023C000737461636B206F766572666C6F77000063
:1023D0006368546864457869745300000000000025
:1023E0006368546864437265617465490000000065
:1023F0006368546864526573756D65490000000038
:10240000636854686453757370656E6453000000AC
:102410006368546864536C65657053000000000085
:102420006368537973556E6C6F636B000000000036
:102430006368546864526573756D655300000000ED
:102440006D61696E00160018040460080C10141801
:102450001C202122000000000000000000000000FD
:1024600063684D74784F626A656374496E6974007D
:102470006368537973556E6C6F636B0000000000E6
:1024800073745374617274416C61726D000000006A
:102490007374536574416C61726D0000000000003C
:1024A00061646353746172740000000000000000F6
:1024B0006164635374617274436F6E76657273699D
:1024C0006F6E4900000000000000000000000000E6
:1024D00061646353746F70436F6E76657273696F76
:1024E0006E0000000000000000000000000000007E
:1024F0006368537973556E6C6F636B000000000066
:10250000616463436F6E76657274000000000000C2
:10251000646D6153747265616D416C6C6F6361745D
:102520006500000000000000000000000000000046
:10253000106002400860024000000B00286002406A
:102540000860024006010C00406002400860024042
:1025500010020D00586002400860024016030E0091
:10256000706002400C60024000040F00886002406E
:102570000C60024006051000A06002400C600240A2
:1025800010061100B86002400C60024016072F00D0
:1025900010640240086402400008380028640240C9
:1025A00008640240060939004064024008640240A1
:1025B000100A3A005864024008640240160B3B00BF
:1025C000706402400C640240000C3C0088640240CD
:1025D0000C640240060D4400A06402400C640240FA
:1025E000100E4500B86402400C640240160F46000D
:1025F0006164635F6C6C645F73746172740000008B
:1026000000AAA02A00000000FFABFFFF5400014019
:10261000FFFF00000000565500AA0A0080200800B5
:1026200040020000FFFFFFFF15455155FFFF00006E
:1026300000000004400000000180200200000000B3
:10264000FFFFFFFF54154554FFFF0000000000602E
:10265000000606000001005500000000FFFFFFFF1C
:1026600055505500FF0F0000000000000000000062
:102670004000000000000000FFFFFFFF000000001E
:10268000FFFF00000000000000000000000000004C
:1026900000000000FFFFFFFF00000000FFFF000040
:1026A000000000000000000000000000000000002A
:1026B000FFFFFFFF00000000FFFF00000000000020
:1026C000000000000000000000000000FFFFFFFF0E
:1026D00000000000FFFF00000000000000000000FC
:1026E0000000000000000000FFFFFFFF00000000EE
:1026F000FFFF0000000000000000000000000000DC
:10270000000001000000000021220008000000007D
:102710000000004000000000000000000000000079
:10272000000000000B00000000000000000000009E
:10273000010008000122000821220008000000001A
:1027400000000040D800D800000000000000700029
:10275000110200008B2DB6180000000000000000E0
:08276000626C696E6B6572008A
:04000005080001C12D
:00000001FF
