:020000040800F2
:1000000000040020C1010008A10C0008A10C000898
:10001000A10C0008A10C0008A10C0008A10C00080C
:10002000A10C0008A10C0008A10C0008512900082F
:10003000A10C0008A10C0008A10C0008A10C0008EC
:10004000A10C0008A10C0008A10C0008A10C0008DC
:10005000A10C0008A10C0008A10C0008A10C0008CC
:10006000A10C0008A10C0008A10C000851370008E1
:1000700081370008B1370008E1370008113800085F
:100080004138000871380008213E0008A10C000822
:10009000A10C0008A10C0008A10C0008A10C00088C
:1000A000A10C0008A10C0008A10C0008A10C00087C
:1000B000813C0008A1500008A1510008A10C0008D3
:1000C000A10C0008A10C0008A10C0008A10C00085C
:1000D000A10C0008A10C000841530008A10C000865
:1000E000A10C0008A10C0008A10C0008A10C00083C
:1000F000A10C0008A10C0008A10C0008A138000800
:10010000A10C0008A10C0008A10C0008A10C00081B
:10011000A10C0008A10C0008A10C0008A10C00080B
:10012000D138000801390008313900086139000868
:1001300091390008A10C0008A10C0008A10C0008CE
:10014000A10C0008A10C0008A10C0008514C0008EB
:10015000C1390008F1390008213A0008A10C000853
:10016000A10C0008A10C0008A10C0008A10C0008BB
:10017000A10C0008A10C0008A10C0008A10C0008AB
:10018000A10C0008A10C0008A10C0008A10C00089B
:10019000A10C0008A10C0008A10C0008A10C00088B
:1001A000A10C0008A10C0008A10C0008A10C00087B
:1001B000A10C0008A10C0008A10C0008A10C00086B
:1001C00072B6214880F30988022080F31488BFF3B7
:1001D0006F8F05F0A5F94FF055301C491C4A91422C
:1001E0003CBF41F8040BFAE71A49174A91423CBF59
:1001F00041F8040BFAE71849184A194B9A423EBFD6
:1002000051F8040B42F8040BF8E700201549164A90
:1002100091423CBF41F8040BFAE700F031FD134C6A
:10022000134DAC4203DA54F8041B8847F9E709F090
:1002300007FD104C104DAC4203DA54F8041B8847FC
:10024000F9E700F025BD00000008002000000020B4
:10025000000400200004002068B500080008002009
:10026000E8080020E8080020D01A0020C00100089B
:10027000C0010008C0010008C00100080000000023
:100280002DE9F04FC1F80CD0D0F80CD0BDE8F08FBC
:10029000002383F311882846A047002001F018F9B5
:1002A00000F0F6FF00DFFEE70000000000000000A5
:1002B00081F0004102E000BF83F0004330B54FEA17
:1002C00041044FEA430594EA050F08BF90EA020F84
:1002D0001FBF54EA000C55EA020C7FEA645C7FEA17
:1002E000655C00F0E2804FEA5454D4EB5555B8BF3A
:1002F0006D420CDD2C4480EA020281EA030382EAAB
:10030000000083EA010180EA020281EA0303362D3C
:1003100088BF30BD11F0004F4FEA01314FF4801C0F
:100320004CEA113102D0404261EB410113F0004F21
:100330004FEA03334CEA133302D0524263EB4303D8
:1003400094EA050F00F0A780A4F10104D5F1200E76
:100350000DDB02FA0EFC22FA05F2801841F10001D1
:1003600003FA0EF2801843FA05F359410EE0A5F1A5
:1003700020050EF1200E012A03FA0EFC28BF4CF0D6
:10038000020C43FA05F3C01851EBE37101F000458C
:1003900007D54FF0000EDCF1000C7EEB00006EEB99
:1003A0000101B1F5801F1BD3B1F5001F0CD3490823
:1003B0005FEA30004FEA3C0C04F101044FEA44527A
:1003C00012F5800F80F09A80BCF1004F08BF5FEA01
:1003D000500C50F1000041EB045141EA050130BDE1
:1003E0005FEA4C0C404141EB010111F4801FA4F184
:1003F0000104E9D191F0000F04BF01460020B1FAD9
:1004000081F308BF2033A3F10B03B3F120020CDA10
:100410000C3208DD02F1140CC2F10C0201FA0CF0EE
:1004200021FA02F10CE002F11402D8BFC2F1200C53
:1004300001FA02F120FA0CFCDCBF41EA0C01904009
:10044000E41AA2BF01EB0451294330BD6FEA040452
:100450001F3C1CDA0C340EDC04F11404C4F120023D
:1004600020FA04F001FA02F340EA030021FA04F34F
:1004700045EA030130BDC4F10C04C4F1200220FAA6
:1004800002F001FA04F340EA0300294630BD21FAE4
:1004900004F0294630BD94F0000F83F4801306BFAA
:1004A00081F480110134013D4EE77FEA645C18BF9E
:1004B0007FEA655C29D094EA050F08BF90EA020F35
:1004C00005D054EA000C04BF1946104630BD91EA2D
:1004D000030F1EBF0021002030BD5FEA545C05D130
:1004E0004000494128BF41F0004130BD14F580046F
:1004F0003CBF01F5801130BD01F0004545F0FE41E3
:1005000041F470014FF0000030BD7FEA645C1ABF17
:10051000194610467FEA655C1CBF0B46024650EA4E
:10052000013406BF52EA033591EA030F41F400217A
:1005300030BD00BF90F0000F04BF0021704730B500
:100540004FF4806404F132044FF000054FF00001D5
:1005500050E700BF90F0000F04BF0021704730B596
:100560004FF4806404F1320410F0004548BF40426B
:100570004FF000013EE700BF42004FEAE2014FEAC0
:1005800031014FEA02701FBF12F07F4393F07F4F9B
:1005900081F06051704792F0000F14BF93F07F4FCD
:1005A000704730B54FF4607401F0004521F0004110
:1005B00020E700BF50EA010208BF704730B54FF096
:1005C00000050AE050EA010208BF704730B511F09B
:1005D000004502D5404261EB41014FF4806404F1D3
:1005E00032045FEA915C3FF4DCAE4FF003025FEA55
:1005F000DC0C18BF03325FEADC0C18BF033202EBDD
:10060000DC02C2F1200300FA03FC20FA02F001FA36
:1006100003FE40EA0E0021FA02F11444C1E600BFD5
:1006200070B54FF0FF0C4CF4E06C1CEA11541DBF88
:100630001CEA135594EA0C0F95EA0C0F00F0DEF853
:100640002C4481EA030621EA4C5123EA4C5350EA38
:10065000013518BF52EA033541F4801143F4801389
:1006600038D0A0FB02CE4FF00005E1FB02E506F01A
:100670000042E0FB03E54FF00006E1FB03569CF06F
:10068000000F18BF4EF0010EA4F1FF04B6F5007F75
:1006900064F5407404D25FEA4E0E6D4146EB0606E7
:1006A00042EAC62141EA55514FEAC52040EA5E5070
:1006B0004FEACE2EB4F1FD0C88BFBCF5E06F1ED81A
:1006C000BEF1004F08BF5FEA500E50F1000041EB51
:1006D000045170BD06F0004646EA010140EA0200FE
:1006E00081EA0301B4EB5C04C2BFD4EB0C0541EA20
:1006F000045170BD41F480114FF0000E013C00F335
:10070000AB8014F1360FDEBF002001F0004170BD58
:10071000C4F10004203C35DA0C341BDC04F1140471
:10072000C4F1200500FA05F320FA04F001FA05F2FD
:1007300040EA020001F0004221F0004110EBD370CA
:1007400021FA04F642EB06015EEA430E08BF20EAF6
:10075000D37070BDC4F10C04C4F1200500FA04F399
:1007600020FA05F001FA04F240EA020001F000412B
:1007700010EBD37041F100015EEA430E08BF20EA9E
:10078000D37070BDC4F1200500FA05F24EEA020EE6
:1007900020FA04F301FA05F243EA020321FA04F015
:1007A00001F0004121FA04F220EA020000EBD370CC
:1007B0005EEA430E08BF20EAD37070BD94F0000FCC
:1007C0000FD101F00046400041EB010111F4801F00
:1007D00008BF013CF7D041EA060195F0000F18BFB1
:1007E000704703F00046520043EB030313F4801FED
:1007F00008BF013DF7D043EA0603704794EA0C0FA7
:100800000CEA135518BF95EA0C0F0CD050EA4106BC
:1008100018BF52EA4306D1D181EA030101F0004139
:100820004FF0000070BD50EA410606BF1046194661
:1008300052EA430619D094EA0C0F02D150EA01366D
:1008400013D195EA0C0F05D152EA03361CBF1046AE
:1008500019460AD181EA030101F0004141F0FE414D
:1008600041F470014FF0000070BD41F0FE4141F4D1
:10087000780170BD70B54FF0FF0C4CF4E06C1CEAD1
:1008800011541DBF1CEA135594EA0C0F95EA0C0F86
:1008900000F0A7F8A4EB050481EA030E52EA033541
:1008A0004FEA013100F088804FEA03334FF0805562
:1008B00045EA131343EA12634FEA022245EA11158F
:1008C00045EA10654FEA00260EF000419D4208BF40
:1008D000964244F1FD0404F5407402D25B084FEAED
:1008E0003202B61A65EB03055B084FEA32024FF499
:1008F00080104FF4002CB6EB020E75EB030E22BFF6
:10090000B61A754640EA0C005B084FEA3202B6EBB5
:10091000020E75EB030E22BFB61A754640EA5C0064
:100920005B084FEA3202B6EB020E75EB030E22BFF4
:10093000B61A754640EA9C005B084FEA3202B6EBF5
:10094000020E75EB030E22BFB61A754640EADC00B4
:1009500055EA060E18D04FEA051545EA16754FEA16
:1009600006164FEAC30343EA52734FEAC2025FEA34
:100970001C1CC0D111F4801F0BD141EA00014FF0C3
:1009800000004FF0004CB6E711F4801F04BF014394
:100990000020B4F1FD0C88BFBCF5E06F3FF6AFAEB0
:1009A000B5EB030C04BFB6EB020C5FEA500C50F140
:1009B000000041EB045170BD0EF0004E4EEA1131C3
:1009C00014EB5C04C2BFD4EB0C0541EA045170BDCA
:1009D00041F480114FF0000E013C90E645EA060E0E
:1009E0008DE60CEA135594EA0C0F08BF95EA0C0F3C
:1009F0003FF43BAF94EA0C0F0AD150EA01347FF484
:100A000034AF95EA0C0F7FF425AF104619462CE75A
:100A100095EA0C0F06D152EA03353FF4FDAE1046BD
:100A2000194622E750EA410618BF52EA43067FF40E
:100A3000C5AE50EA41047FF40DAF52EA43057FF49E
:100A4000EBAE12E700000000000000000000000014
:100A50004FEA410212F5001215D211D56FF47873E6
:100A6000B3EB625212D94FEAC12343F0004343EA89
:100A7000505311F0004F23FA02F018BF4042704764
:100A80004FF00000704750EA013005D111F00040EE
:100A900008BF6FF0004070474FF00000704700BF84
:100AA0004FEA4102B2F1E04324BFB3F5001CDCF190
:100AB000FE5C0DD901F0004C4FEAC0024CEA5070C8
:100AC000B2F1004F40EB830008BF20F001007047F7
:100AD00011F0804F21D113F13872BCBF01F00040FA
:100AE000704741F480114FEA5252C2F11802C2F12C
:100AF000200C10FA0CF320FA02F018BF40F00100AD
:100B00004FEAC1234FEAD32303FA0CFC40EA0C005E
:100B100023FA02F34FEA4303CCE77FEA625307D19B
:100B200050EA01331EBF4FF0FE4040F440007047D2
:100B300001F0004040F0FE4040F40000704700BF6C
:100B40004FF0FF3C06E000BF4FF0010C02E000BF99
:100B50004FF0010C4DF804CD4FEA40024FEA41033B
:100B60007FEA226C18BF7FEA236C11D001B052EAF1
:100B7000530C18BF90EA010F58BFB2EB030088BFB7
:100B8000C81738BF6FEAE17018BF40F00100704726
:100B90007FEA226C02D15FEA402C05D17FEA236C08
:100BA000E4D15FEA412CE1D05DF8040B704700BF4F
:100BB000844608466146FFE70FB5FFF7C9FF0028E6
:100BC00048BF10F1000F0FBD4DF808EDFFF7F4FF1F
:100BD0000CBF012000205DF808FB00BF4DF808EDB8
:100BE000FFF7EAFF34BF012000205DF808FB00BFDB
:100BF0004DF808EDFFF7E0FF94BF012000205DF8FD
:100C000008FB00BF4DF808EDFFF7D2FF94BF0120AD
:100C100000205DF808FB00BF4DF808EDFFF7C8FFA6
:100C200034BF012000205DF808FB00BF0000000079
:100C30004FEA4002B2F1FE4F0FD34FF09E03B3EBE9
:100C400012620DD94FEA002343F0004310F0004F29
:100C500023FA02F018BF404270474FF0000070477F
:100C600012F1610F01D1420205D110F0004008BF1E
:100C70006FF0004070474FF0000070470000000028
:100C8000704700BF000000000000000000000000EE
:100C9000FEE700BF000000000000000000000000B0
:100CA000FEE700BF000000000000000000000000A0
:100CB000024B034A9B699A61FEE700BFE8080020E7
:100CC000009F00080000000000000000000000007D
:100CD0001E4B1F4A1F48F0B500249C60DF681E4E63
:100CE0001E4D4FF6FF0139400A43DA60F26842F0C8
:100CF0008072F2600268202142F001021026026038
:100D000083B0DE7783F8221000F0CAF900F008F90A
:100D100000F096FC01F0ACFC01F0F2FC284640210A
:100D200000F0BEFAA5F1300301229861027784F346
:100D3000118862B69B690A49996105F148000094DF
:100D4000084BD82100F0FCFA03B0F0BD00ED00E044
:100D50000003FA05001000E0F0ED00E018090020A3
:100D6000109F0008B10C0008000000000000000007
:100D700072B6014BD862FEE7E808002000000000D0
:100D8000C20710B412D52C4A1168914242D00023F8
:100D90000968914203F10103FAD14C688C4236D0C4
:100DA0006468944203F1FF33FAD183BB830714D5FF
:100DB000214A144654F81C1FA14231D0002309686F
:100DC000A14203F10103FAD1126A8A421FD052688C
:100DD000A24203F1FF33FAD1CBB910F0040014D0D2
:100DE000154A1369934221D000201B69934200F1F8
:100DF0000100FAD15969994209D04969914200F13B
:100E0000FF30FAD1003018BF012010BC704701201C
:100E100010BC70475468944218BF0023C0D1C5E786
:100E2000126AA24218BF0023D1D1D6E7596999426C
:100E30004FF00000E1D1E8E7E808002000000000E2
:100E40002DE9F0471B4D4FF08047EC69A96A786A9D
:100E5000A368421A9A4205F11C091AD300264FF0E2
:100E600020082268D4F80CA00B444A45AB62C2F8B3
:100E70000490EA61E66018D086F311882069D047B3
:100E800088F31188EC69786AA96AA368421A9342C8
:100E9000E7D94C450CD00B441B1A012B98BF0223F9
:100EA0001844BDE8F04701F0C3BD01F0B9FDE3E728
:100EB000BDE8F087E8080020000000000000000006
:100EC000EFF3128020B9EFF30583202383F3118819
:100ED000704700BF0000000000000000000000009C
:100EE00068B910B5EFF30584C4F3080414B180F3B6
:100EF000118810BD00F0BCF984F3118810BD704753
:100F0000034A516853685B1A8342FBD3704700BFA2
:100F1000001000E0000000000000000000000000E1
:100F2000054B4FF0FF3003F11C020021586299621B
:100F3000DA611A62704700BFE80800200000000074
:100F4000F8B51C4E3446012998BF022154F81C7F85
:100F500003614FF08043A7420546C260586A1ED025
:100F6000B46ABB680844041B9C4215D3F3699A68B1
:100F7000944204D91B68A41A9A68A242FAD35A6808
:100F80006A602B6015605D60AC609A684FF0FF315D
:100F9000141B9C607162F8BD01F04AFDE6E7B06287
:100FA000F561356208442F606F60A960BDE8F840C4
:100FB00001F02EBDE8080020000000000000000045
:100FC000194BDA69824210B40FD0416802680A6096
:100FD00002681C3300249A425160C46003D08368C5
:100FE00091680B44936010BC70471846116840F834
:100FF0001C1F002481424860D46012D09268886827
:101000009C6A83184FF080428B60506A021B9342A7
:10101000E9D99B1A012B98BF0223184410BC01F098
:1010200007BD10BC01F0FCBCE80800200000000077
:1010300010B4202383F31188037F072B0ED8DFE839
:1010400003F0260D0D2208040D08026A936801338F
:10105000936090E80C001A60026853604FF0FF3410
:10106000002281680C4B046202771B689A688A42EE
:10107000FBD25A684260036000211060586081F31F
:10108000118810BC7047036A00221A60E6E700234B
:1010900083F3118810BC7047E808002000000000AE
:1010A000034B00221B605B601B615B619A607047B1
:1010B000E808002000000000000000000000000020
:1010C00000228168074B10B4044602771B689A68B7
:1010D0008A42FBD25A6862602360204614605C60DA
:1010E00010BC7047E808002000000000000000006D
:1010F000074B99691A6810B40877106818600124C2
:1011000043601477104610BC9A61FFF7B9B800BF6E
:10111000E8080020000000000000000000000000BF
:1011200030B54B1C87B012D00C4C0D4AA369054654
:1011300001A8FFF705FF2846FFF7DAFF049B13B16C
:1011400001A8FFF73DFFA369186A07B030BD034C43
:10115000FFF7CEFFA369186A07B030BDE80800208A
:101160003110000800000000000000000000000036
:10117000144B70B404469D690162A868A16881425D
:101180004FF000020BD822771B689A689142FBD976
:101190005A686260236014605C6070BC70472A7794
:1011A0001A46126891688842FBD950686860012627
:1011B0002A60056055602677294620469C6170BCF0
:1011C000FFF75EB8E8080020000000000000000003
:1011D000044B1A689B6990689B68984294BF0020F2
:1011E00001207047E8080020000000000000000017
:1011F0000D4A1068036830B4012194695A600025D3
:101200000177A16813609061257700E01B689A68F8
:101210008A42FBD25A6862602360214614605C6097
:1012200030BCFFF72DB800BFE80800200000000028
:101230000D4A1068036830B4012194695A60002592
:101240000177A16813609061257700E01B689A68B8
:101250008A42FBD85A6862602360214614605C6051
:1012600030BCFFF70DB800BFE80800200000000008
:10127000044B1A689B6992689B689A4200D8704731
:10128000FFF7D6BFE80800200000000000000000C3
:10129000FFF7CEBF000000000000000000000000CB
:1012A000F0B50D4CC16365698160002200F1280131
:1012B0004FF0020E012700F124064561046180F819
:1012C0001CE08777427782634263826128616061B4
:1012D00046628162C162F0BDE808002000000000A3
:1012E000F0B5134D059FA1F1240E00EB0E066969C0
:1012F000C66040F80E300F4B776033624FF0020E3D
:1013000000238260C263012700F1280200F1240655
:101310000561416180F81CE087774377836343630D
:1013200083610861466268618262C262F0BD00BF8B
:10133000E808002091020008000000000000000002
:10134000F8B50446202585F31188144E2439451834
:101350007769C5604350069B6B601149296202237F
:101360000025037700F1240E00F12803012182609B
:10137000817706614761C26345778563456385610F
:1013800029463861C0F824E08362C3627061FFF7C8
:10139000EFFE85F311882046F8BD00BFE808002065
:1013A00091020008000000000000000000000000A2
:1013B00008B5202383F31188FFF782FE002383F30F
:1013C000118808BD000000000000000000000000BF
:1013D00010B5202383F31188084B9B69DC6B996857
:1013E0008C4201D0814200D29860D863FFF740FF61
:1013F000002383F31188204610BD00BFE8080020B9
:10140000202383F31188437F43F0040343770023B1
:1014100083F31188704700BF000000000000000047
:1014200008B50146202383F311880820FFF778FED2
:10143000002383F3118808BD0000000000000000B5
:1014400008B5202383F311884FF08043596A411A6D
:1014500002D00820FFF764FE002383F3118808BD43
:1014600008B5202383F31188064B1A689B6992689C
:101470009B689A4201D3FFF7BBFE002383F31188D8
:1014800008BD00BFE80800200000000000000000C8
:1014900038B50E4B9C69636A206204F124059D42B5
:1014A00007D01A6862621846FFF70AFE636AAB4209
:1014B000F7D1637F9B0704D1636922691A612269AE
:1014C00053610F20BDE83840FFF712BEE808002046
:1014D000202383F31188FFF7DBBF00BF000000006B
:1014E00038B50446202383F31188037F0F2B07D0E0
:1014F000084B426A9B6909201A606362FFF7F8FD96
:10150000256A002383F31188204600F0C9F8284695
:1015100038BD00BFE8080020000000000000000007
:1015200010B5054CA369036002461A620320FFF759
:10153000DFFDA369186A10BDE80800200000000064
:1015400003682BB10022026018461962FFF7B8BD8C
:10155000704700BF00000000000000000000000015
:1015600061B1084B10B4024644689B69042083E8CB
:1015700014002360536010BCFFF7D2BD4FF0FF3062
:10158000704700BFE80800200000000000000000D5
:101590000268904209D010B4146804600346636086
:1015A0001162104610BCFFF78BBD704700000000B1
:1015B00038B5036898420BD004460D461A6822607D
:1015C000184654601D62FFF77BFD23689C42F5D1ED
:1015D00038BD00BF00000000000000000000000057
:1015E000014B5B6883607047001000E00000000062
:1015F0000F4B10495A688368F0B44F6FC668416852
:10160000D0E90445D31ADB1BE41845F10005013687
:101610008B42C6608360C0E9044505D802689342E6
:1016200038BF0360F0BC70474360F0BC704700BF38
:10163000001000E0E80800200000000000000000AA
:10164000D0B50C4C86B000234FF0FF326846002620
:10165000002763670193029303930092CDE9046727
:10166000FFF7BEFF6846FFF7C3FF029B636706B044
:10167000D0BD00BFE808002000000000000000000E
:10168000202383F31188837F01338377002383F33F
:1016900011887047000000000000000000000000FA
:1016A0000146202383F31188837F013BDBB28377DC
:1016B000002282F3118813B9037F0F2B00D07047EB
:1016C000437F03F00303012B02D0022B07D07047A6
:1016D000436902691A610269536101F079B843698B
:1016E00002691A610269006C536101F021B900BFFF
:1016F000F0B583B016461F460D4601F021F898B1AB
:10170000202383F31188089B009332463B462946E9
:10171000FFF7E6FD0123437700210446FFF728FD8C
:10172000002383F31188204603B0F0BD00000000C1
:101730002DE9F04182B00E4617469846054601F065
:10174000DFF8A0B1202383F311886968CDF8008009
:101750003B463246FFF7C4FD022343770564002170
:101760000446FFF705FD002383F31188204602B0ED
:10177000BDE8F08100000000000000000000000053
:10178000202383F31188044B1869837F0133837707
:10179000002383F311887047E80800200000000050
:1017A00010B5202383F31188074B04699C421DBFA9
:1017B000A37F0133A3770024002383F31188FFF76D
:1017C0006FFF204610BD00BFE808002000000000A9
:1017D0000060406081607047000000000000000071
:1017E00070B5856881600135002D0CDC04466FF012
:1017F00001066068436863601C60FFF761FC0135A7
:10180000012D0662F5D170BD00000000000000004F
:1018100008B5202383F31188FFF7E2FFFFF728FDC7
:10182000002383F3118808BD0000000000000000C1
:10183000202383F311888368013B002B836004DB42
:101840000020002383F31188704710B5084CA2696B
:10185000106241685160034610600A6005205A60BA
:10186000FFF746FCA369186A002383F3118810BDB3
:10187000E808002000000000000000000000000058
:10188000202383F311888268531E002B836004DBBE
:101890000020002383F31188704710B579B10A4AFC
:1018A000926910624468034682E8180005202260AD
:1018B0005A60FFF735FC002383F3118810BD826066
:1018C0004FF0FF30F7E700BFE808002000000000FD
:1018D00003468068421E002A9A6001DB00207047A0
:1018E00010B459B1084A926913625C68052082E815
:1018F000180022605A6010BCFFF712BC986010BC40
:101900004FF0FF30704700BFE808002000000000E3
:1019100008B5202383F3118883680133002B83608B
:1019200003DD002383F3118808BD034600680268C5
:101930001A6000215360FFF71BFC002383F311881A
:1019400008BD00BF00000000000000000000000013
:1019500083680133002B836000DD704703681A68D9
:1019600002600021506018461962FFF7A9BB00BF52
:1019700070B50C1E12DD0546002601E0013C0DD0BD
:10198000AB680133002BAB60F8DC286803682B6080
:101990005D60FFF795FB013C0662F1D170BD00BFB1
:1019A00010B5202382B083F3118883680133002BA4
:1019B00083601DDD8B68013B002B8B6007DBFFF72D
:1019C00057FC0020002383F3118802B010BD0E4A9B
:1019D0004B689469052084E80A001C604C60216211
:1019E000FFF786FB206A002383F3118802B010BD45
:1019F000024600680191036813605A60FFF760FBBC
:101A0000002303620199D5E7E808002000000000E8
:101A10000023006040608360704700BF000000004A
:101A2000304B826870B59C69002A55D0A1689368D4
:101A30008B42054606D2137F9160062B33D0072BCD
:101A40001DD09BB12B4603E09968A268914202D356
:101A50001B689D42F8D15A686260236014605C6024
:101A600025620620BDE87040FFF742BB92E80A00FD
:101A70001960116810464B60FFF722FBE2E792E81D
:101A80000900186010684360166A334602E09868DF
:101A9000884202D31B689E42F9D159685160136095
:101AA0000A605A60CEE792E8090018601068436047
:101AB000166A334602E09868884202D31B689E4249
:101AC000F9D15968516013600A605A60B268A16820
:101AD00093688B42AFD3B5E7A36BC3608460A06308
:101AE00070BD00BFE80800200000000000000000FA
:101AF00008B5202383F31188FFF792FF002383F3B7
:101B0000118808BD00000000000000000000000077
:101B10000346202282F31188826800201AB1002334
:101B200083F311887047054A92699A60916BD96076
:101B300001209363002383F311887047E808002095
:101B4000164B70B59D69202383F311880468C36820
:101B5000AB6384421CD0E96B4BB11A68934203D04B
:101B60009268914238BF1146DB68002BF5D10346DD
:101B70002268A66BA96020461A60002153609C6011
:101B8000DE60A363FFF7F4FA002383F3118870BDCE
:101B90000023A360002383F3118870BDE8080020B0
:101BA000124B30B4044605689869E3688363A54224
:101BB00017D0C16B4BB11A68934203D0926891421F
:101BC00038BF1146DB68002BF5D12B68AA6B81600A
:101BD000236028465C60A560E260AC6330BCFFF720
:101BE0006FBA0023AB6030BC704700BFE80800202C
:101BF000134A70B52023946983F31188A36BD3B182
:101C000000260AE01168956B19604B609A60DD60F0
:101C10009363FFF755FAA36B4BB11A68D968A163B8
:101C200093421046EED19E60A36B002BF5D1E36B7F
:101C3000A360FFF71DFB002383F3118870BD00BF75
:101C4000E808002000000000000000000000000084
:101C500000604060704700BF00000000000000000E
:101C600008B5202383F311880268904207D01168D9
:101C7000016003464B6010460021FFF779FA00230C
:101C800083F3118808BD00BF0000000000000000C1
:101C90000368984207D01A68026000215060184615
:101CA0001962FFF70DBA7047000000000000000045
:101CB00038B50446202383F311880068844218BF96
:101CC0006FF0010508D0036823605C60FFF7F8F946
:101CD00005622068A042F6D1FFF7CAFA002383F319
:101CE000118838BD00000000000000000000000066
:101CF0000F4B70B59C69A66B05463046FFF750FF49
:101D000025622B4603E09968A268914202D31B68C2
:101D10009D42F8D15A6862602360072014605C60BD
:101D2000FFF7E6F9246A3046FFF77AFE204670BDD9
:101D3000E808002000000000000000000000000093
:101D400008B5202383F31188FFF7D2FF002383F324
:101D5000118808BD00000000000000000000000025
:101D6000F8B5124CA3699E6B054630460F46FFF747
:101D700017FFA4692B46256203E09868A268904289
:101D800002D31B689D42F8D15A68626023603946CD
:101D9000146007205C60FFF7C3F9431C044602D0BF
:101DA0003046FFF73DFE2046F8BD00BFE8080020A2
:101DB00008B5202383F31188FFF7D2FF002383F3B4
:101DC000118808BD000000000000000000000000B5
:101DD00030B4202484F31188064D0468AD690C608A
:101DE000002401604D608A600B61CC6084F311882F
:101DF00030BC7047E8080020000000000000000030
:101E0000202383F31188024602E08B4207D01A4652
:101E100013689842F9D1002383F3118870470B6847
:101E20001360002383F31188704700BF0000000097
:101E3000202383F31188054B9A69536B23EA000131
:101E40005163002282F3118818407047E80800208F
:101E5000202383F31188044B9A69536B1843506312
:101E6000002383F311887047E80800200000000079
:101E7000436B027F19430A2A416309D00B2A00D021
:101E80007047036A8B43FBD100230362FFF718B945
:101E9000036A1942F8D170470000000000000000FA
:101EA00070B50468A0420FD006460D46E3682B4388
:101EB000E36015B12269134203D0A1686068FFF79F
:101EC000D7FF2468A642F1D170BD00BF000000001A
:101ED00008B5202383F31188FFF7CAFFFFF7C8F97D
:101EE000002383F3118808BD0000000000000000FB
:101EF00008B5202383F31188FFF7D2FFFFF7B8F965
:101F0000002383F3118808BD0000000000000000DA
:101F1000C9B1F8B506460D460024012725FA04F399
:101F2000DB0704D4013425FA04F3DB07FAD507FAFA
:101F300004F3204625EA030556F824309847013477
:101F4000002DEBD1F8BD704700000000000000003C
:101F500038B50D4B9D69202383F311886B6B13EA11
:101F6000000406D1044628620A20FFF7C1F86B6B13
:101F70001C40624204EA020023EA00036B63002370
:101F800083F3118838BD00BFE8080020000000007E
:101F900038B50C4B9D69202383F311886B6B13EAD2
:101FA000000406D1044628620A20FFF7A1F86B6BF3
:101FB0001C4023EA04036B63002383F3118820464B
:101FC00038BD00BFE808002000000000000000004D
:101FD00038B50B4B04469D69202383F311886B6B46
:101FE00030EA030204D028620B20FFF781F86B6B04
:101FF00023EA04036B63002383F31188204638BD72
:10200000E8080020000000000000000000000000C0
:10201000124B70B520229D6982F311886A6B12EA17
:1020200000060ED119B981F31188084670BD2862E7
:1020300004460A20FFF774F800280BDB6A6B04EAF9
:1020400002067042304022EA00026A63002383F3F2
:10205000118870BD86F31188304670BDE8080020F5
:10206000124B70B59E69202383F31188736B13EABA
:1020700000040ED119B981F31188084670BD306291
:1020800005460A20FFF74CF800280ADB736B05EAC7
:10209000030423EA04037363002383F311882046B7
:1020A00070BD84F31188204670BD00BFE808002091
:1020B00038B5104B04469D69202383F311886B6B60
:1020C00030EA03020BD0084611B980F3118838BDFD
:1020D0002C620B20FFF724F8002808DB6B6B23EA47
:1020E00004036B63002383F31188204638BD00206E
:1020F000EBE700BFE808002000000000000000003F
:1021000038B50E4B20229C6982F3118800F1280516
:102110002562C26A6260216325601460027FC46226
:102120000E2A07D00C20FEF7E3FF206A002383F37A
:10213000118838BDFEF7C4FFF4E700BFE8080020AF
:1021400010B5202383F311880B4CA269134653F872
:10215000280F984208D0016891620D224B6000233D
:10216000027783F3118810BD0E20FEF7C1FFA2692C
:10217000906A02F12803EEE7E80800200000000062
:1021800008B5202383F31188FEF7F2FF002383F3C1
:10219000118808BD000000000000000000000000E1
:1021A00010B50B4601EB8201416004460360C36039
:1021B000836011461C30FFF70BFB04F11000002177
:1021C000BDE81040FFF704BB000000000000000065
:1021D00010B504461C3023686168A360C91AE36027
:1021E0008910FFF7FDFA04F110000021BDE810404E
:1021F000FFF7F6BA00000000000000000000000039
:1022000008B5202383F31188FFF7E2FFFFF730F8CA
:10221000002383F3118808BD0000000000000000C7
:1022200070B5202304460E4683F3118811461C30F6
:10223000FFF74EFB054678B9A2686168131D8B4213
:10224000A36028BF2368166004F1100028BFA360B4
:10225000FFF77EFBFFF70CF8002383F31188284675
:1022600070BD00BF00000000000000000000000082
:1022700038B5436A002B12DD84684568221D013B96
:10228000AA42436228BF03688260216000F1100007
:1022900028BF40F8083CFFF75BFB002038BD4FF03B
:1022A000FF3038BD0000000000000000000000000A
:1022B00070B5202304460E4683F3118811461C3066
:1022C000FFF706FB054620B1002383F3118828465B
:1022D00070BDE3682268043B9342E36002D2636806
:1022E000043BE3601E6004F11000FFF731FBFEF7D2
:1022F000BFFF002383F31188284670BD0000000053
:10230000426A002A11DDC36810B50468043B013A33
:10231000A3424262C36002D24368043BC3601960B7
:102320001030FFF715FB002010BD4FF0FF30704755
:1023300070B5202304460E4683F3118811461030F1
:10234000FFF7C6FA054680B9E36862681968043386
:102350009342E36028BF2368316004F11C0028BF6A
:10236000E360FFF7F5FAFEF783FF002383F311889C
:10237000284670BD000000000000000000000000C2
:102380008369002B14DD5A1EC36810B58261426850
:102390001C6804339342C36028BF03680C6000F1DB
:1023A0001C0028BF40F8103CFFF7D2FA002010BDF7
:1023B0004FF0FF30704700BF000000000000000039
:1023C00030B4029C046200250A448560026100600A
:1023D0004060C16081614161C36130BC704700BF32
:1023E0000021C2688160826142616FF00101FFF7E4
:1023F000DFB800BF00000000000000000000000087
:10240000836942699A4210B583680FD00133541C26
:10241000836044611170426903699A4201D3C368C1
:1024200043610021FFF7B4F8002010BD002BEDD070
:102430006FF0030010BD00BF0000000000000000AE
:1024400070B520230E46044683F31188C3692BB16F
:10245000984703E0FFF784F8002815DBA5683146AC
:102460002046002DF6D0A2692169531C8B4205F14C
:10247000FF35A361A56028BFE368107828BFA3617A
:10248000002383F3118870BD85F3118870BD00BFF0
:102490002DE9F04F044683B0894693461D46D0F897
:1024A0001C80202787F3118800260197B246B8F1D7
:1024B000000F05D02046C04702E0FFF751F8D8B919
:1024C000A76829462046002FF7D0A2697B1E511C21
:1024D000A161A360137809F8013B2369A2699A42BC
:1024E00024BFE368A3618AF311880136B34505D0A0
:1024F000019B83F31188DAE787F31188304603B034
:10250000BDE8F08F000000000000000000000000A7
:1025100030B4029C04628D180561006040608260E6
:10252000C16081614161C36130BC7047000000003F
:1025300010B40269C4688461121B44616FF0010128
:10254000826010BCFFF734B80000000000000000FB
:10255000F8B504460F461646202383F3118803E09E
:10256000FEF7FEFF002818DBA56831462046002D47
:10257000F6D06369013D5A1C6261A5601F70236932
:1025800062699A4224BFE3686361E3690BB1204644
:102590009847002080F31188F8BD85F31188F8BDB5
:1025A00038B582694369934283680ED00569511C2E
:1025B000013383608161A942147801D3C3688361C8
:1025C0000021FEF7E5FF204638BD002BEED06FF06E
:1025D000020038BD00000000000000000000000004
:1025E0002DE9F04F83B004460D4616460193D0F80E
:1025F0001C804FF0200989F311880027BA46A36890
:1026000005F1010B591E2046FBB16369A160591CFD
:1026100061612978197023696169994224BFE3686F
:102620006361B8F1000F00D0C0478AF31188013E02
:1026300007F1010713D089F31188A3685D46591E7D
:1026400005F1010B2046002BDFD1019900932046B4
:10265000FEF786FF009B0028D1D083F3118838460F
:1026600003B0BDE8F08F00BF0000000000000000D4
:10267000054A064B0648074922F0070223F00703E4
:1026800002600B60704700BFD71A002000000220D4
:102690003C0A0020380A0020000000000000000072
:1026A00010B4202383F31188094C0A4B226819685F
:1026B000C31D23F00703891A8B429DBF9B1823601B
:1026C00010460020002383F3118810BC704700BF20
:1026D0003C0A0020380A0020000000000000000032
:1026E000024A034B10681B68C01A7047380A002062
:1026F0003C0A002000000000000000000000000074
:10270000044B054A1A6003F1100000229A60DA6057
:10271000FFF77EB9400A0020A12600080000000053
:102720000023083A81600360C36010304A600B6088
:10273000FFF76EB90000000000000000000000007C
:10274000F8B5214E002818BF064606F110070731DC
:10275000384621F0070506F10804FFF7C9F903E040
:1027600043689D4212D9044620680028F8D13846B3
:10277000FFF7E6F933682BB305F10800984708B373
:102780000660456000F108042046F8BD05F1080226
:10279000934209D2036823600446384644F8086B24
:1027A000FFF7CEF92046F8BD6FF00701491B00EB9B
:1027B000020E0B4401688150CEF80430C4F800E0EA
:1027C0004560E9E70024DFE7400A00200000000040
:1027D000F8B550F8085C05F110070646A0F10804AA
:1027E00008353846FFF784F92B46AB4204D0A342A4
:1027F00002D31B68AB42FAD11A681AB1944201D3D2
:102800001346F2E746F8082C1C6056F8041C56F8EC
:10281000085C01F10802A018A8420AD0596801F129
:1028200008021A44944212D03846BDE8F840FFF737
:1028300087B940680144083146F8041CA25846F89C
:10284000082C596801F108021A449442ECD156F858
:10285000042C0A4408325A6056F8082C1A6038468C
:10286000BDE8F840FFF76CB9000000000000000070
:1028700070B50F4C002818BF044604F11005284617
:102880000E46FFF735F9A36873B100221446586865
:102890001B6801340244002BF9D106B1326028468E
:1028A000FFF74EF9204670BD1A461C46F5E700BFFB
:1028B000400A0020000000000000000000000000AE
:1028C0000023416082600360704700BF0000000089
:1028D00072B130B42025002485F3118803680B60A1
:1028E000016084F311884368013A1944F4D130BC83
:1028F000704700BF00000000000000000000000062
:1029000008B52022034682F31188006828B10268C6
:102910001A60002383F3118808BD9A68002AF8D052
:1029200058689047002383F3118808BD0000000019
:10293000202383F3118803680B600023016083F375
:102940001188704700000000000000000000000037
:10295000EFF30983203383F30988002383F311887D
:10296000704700BF000000000000000000000000F1
:10297000202383F311880F4B5B6813F4006302D1AB
:1029800083F31188704710B5EFF309844FF080731B
:1029900044F8043CA4F1200383F30988FEF718FCF3
:1029A00018B1054B44F8083C10BD044B44F8083CF2
:1029B00010BD00BF00ED00E0A1020008A402000865
:1029C00008B501F0BDF80B4801F022FB00F038F823
:1029D00000F06EF800F09CF800F012F900F020FB17
:1029E00000F08EFB00F00CFA02F0A2FDBDE80840FA
:1029F00000F006B8D0A000080000000000000000B1
:102A000001F056B9000000000000000000000000C6
:102A10004FF080430021022258631961DA60704749
:102A20004FF080430022DA60704700BF00000000D2
:102A30004FF0804358637047000000000000000022
:102A400001F036BA000000000000000000000000A5
:102A500000230122027043608360C360036143610D
:102A60001830FEF7D5BF00BF0000000000000000D6
:102A700010B52023044683F31188416001F038FA31
:102A800002232370002383F3118810BD000000008F
:102A900038B5202585F311880325C3608260016164
:102AA000057001F05DFA002383F3118838BD00BF83
:102AB00002F016BB00000000000000000000000053
:102AC0000122002302704360704700BF0000000035
:102AD00010B52023044683F31188416002F010FBF7
:102AE00002232370002383F3118810BD000000002F
:102AF00008B5202282F311880322027002F038FB0D
:102B0000002383F3118808BD0000000000000000CE
:102B100002F07EBB0000000000000000000000008A
:102B20000023012202704360C3600374704700BF3A
:102B300010B52023044683F311884B6883604160FD
:102B400002F076FB022200232270E36083F31188F7
:102B500010BD00BF000000000000000000000000E9
:102B600070B5202484F311880124C66804FA01F3A7
:102B70003343C36002F0D4FB002383F3118870BD9C
:102B80000C30FFF785BC00BF000000000000000013
:102B90000C304FF0FF33FFF77BBC00BF000000009C
:102BA0003030FFF71DBD00BF000000000000000036
:102BB00030304FF0FF33FFF713BD00BF00000000BF
:102BC0000C30FFF73DBC00BF00000000000000001B
:102BD0000C304FF0FF31FFF733BC00BF00000000A6
:102BE0003030FFF7B5BC00BF00000000000000005F
:102BF00030304FF0FF32FFF7ABBC00BF00000000E9
:102C000002F02EBC000000000000000000000000E8
:102C100070B50E4B044682B040F8043B0126009488
:102C200015460B46606004F1540104F10C00267255
:102C30001022FFF7C5FB00942B4604F1640104F158
:102C400030001022FFF764FC02B070BD309F000816
:102C500010B52023044683F3118802F011FC0223EF
:102C60002372002383F3118810BD00BF0000000011
:102C700038B5436904460D463BB1294604F10C00C2
:102C8000FFF7BEFB00280BDB38BD04210844FFF72B
:102C900007F9294604F10C00FFF7B2FB0028F3DA2C
:102CA000201D8021BDE83840FFF7FAB80000000081
:102CB00010B5046AD4F8542213681978042900D096
:102CC00010BD217A0229FBD110791989012202FA5B
:102CD00000F313EA0102F3D1216CE36BA06BCB1A72
:102CE0001B1AEDD082F31188D4F8542211791068A0
:102CF00004F1300200F05CFA202383F31188D4F849
:102D00005432BDE810401979186800F071BA00BF5C
:102D100038B5046AD4F8542213681978042900D00D
:102D200038BD217A0229FBD150795989012282408C
:102D30000A40F5D103EB8003A169E069DB686569AE
:102D40005B8A401A411B8B42EAD882F31188B1FB9F
:102D5000F3F1D4F8542203FB01F31068517904F124
:102D60000C0200F015FA202383F31188D4F85432B2
:102D700059791868BDE8384000F02ABA0000000010
:102D80000C30FFF785BB00BF000000000000000012
:102D90000C304FF0FF33FFF77BBB00BF000000009B
:102DA0003030FFF71DBC00BF000000000000000035
:102DB00030304FF0FF33FFF713BC00BF00000000BE
:102DC0000C30FFF73DBB00BF00000000000000001A
:102DD0000C304FF0FF31FFF733BB00BF00000000A5
:102DE0003030FFF7B5BB00BF00000000000000005E
:102DF00030304FF0FF32FFF7ABBB00BF00000000E8
:102E0000704700BF0000000000000000000000004C
:102E100010B503460E4A43F8042B82B00122044643
:102E2000009000F15401436002720A4B0C304FF4E1
:102E30008072FFF7C5FA009404F5AA7104F130001E
:102E4000054B4FF48072FFF763FB02B010BD00BF6B
:102E5000509F0008112D0008B12C00080000000050
:102E60000B68202282F311880A7903EB82029061B9
:102E70004A79093243F822008A7912B103EB8203BE
:102E8000986102230372C0F85412002383F311885F
:102E9000704700BF000000000000000000000000BC
:102EA00070B5D0F8543200F10C06044630461D6867
:102EB000FFF796FA04F13000FFF73AFB201D0121DD
:102EC000FEF7EEFFD4F85432597905EB810328461A
:102ED000DB6832465B8A00F05BF9D4F8543228464E
:102EE0005979BDE8704000F073B900BF00000000E0
:102EF00090F8443003F06003202B01D0002070478D
:102F000090F84530212B03D0222B09D0202BF5D16E
:102F1000064B836307220023C263036401207047CA
:102F200000238363C363036401207047000800200B
:102F3000F8B500EB81039C69BCB10E46054620271D
:102F400087F311880821201DFEF7AAFF226CE36B8E
:102F5000A16BD31A5B1A10D105EB8603DB685A69A3
:102F600052681AB9002383F31188F8BD1B8A013B0C
:102F70001340F7D183F3118802E0002282F3118815
:102F800004F130023146284600F012F987F3118827
:102F90003146284600F02CF9E4E700BF00000000AD
:102FA0002DE9F84301F1090350F82360BEB18046D2
:102FB0000F464FF0200989F3118804217018FEF79D
:102FC0006FFF08EB8703B469DA68F5697369518AA2
:102FD0002D1BEC1AA14204D9002383F31188BDE80C
:102FE000F883002383F31188B4FBF1F306F10C029C
:102FF00001FB03F34046394600F0CAF889F3118813
:103000003946404600F0E4F8E6E700BF0000000063
:10301000704700BF0000000000000000000000003A
:1030200001F04EBF000000000000000000000000A2
:10303000002301220270436083600C30FEF7E8BC7D
:1030400010B52023044683F31188416001F070FF1E
:1030500002232370002383F3118810BD00000000B9
:1030600008B5202383F3118801F0CAFF002383F3FE
:10307000118808BD000000000000000000000000F2
:1030800008B5202383F3118801F0C2FF002383F3E6
:10309000118808BD000000000000000000000000D2
:1030A00038B50446202585F31188032504F8085B0C
:1030B00001F0B6FF2046FEF733FA002383F31188B0
:1030C00038BD00BF0000000000000000000000004C
:1030D00010B52023044683F31188032304F8083B2A
:1030E00001F0BEFF2046FEF71BFA002383F3118890
:1030F00010BD00BF00000000000000000000000044
:1031000001F09EBA00000000000000000000000076
:103110000023012202704360C36183620362C362C1
:103120004362036303814381704700BF00000000D6
:1031300038B50446202383F3118800254160C5601B
:1031400005614561856101F093FA0223237085F3DF
:10315000118838BD000000000000000000000000E1
:10316000536910B42BB100241C605C609C60DC606F
:103170001C6193692BB100241C605C609C60DC6066
:103180001C6100EB810310BCDA6001F061BB00BF81
:1031900070B400EB81040126E468A4690025E260B4
:1031A00063602670A56070BC01F03ABC00000000AE
:1031B00070B400EB81040126E46864690025E260D4
:1031C00063602670A56070BC01F0AABC000000001E
:1031D00070B50123448903FA01F214EA020601D012
:1031E000184670BD2243428101F0B2FD304670BDE9
:1031F00070B50123048903FA01F214EA020601D032
:10320000184670BD2243028101F0B2FD304670BD08
:10321000002202210170A0F84C2080F84E2080F896
:103220004F2002814281C26002614261826180F866
:10323000342001F095BA00BF00000000000000003B
:10324000F8B50023044680F8343000F1440201F060
:10325000D7FB63689B68002B36D020469847002830
:1032600032D0E06B94F8443094F84B1094F84A2034
:1032700042EA012282423CBFE26310461A0600F194
:10328000AB80002800F08B80E368A56B9B6900226F
:10329000042184F834101146DD6058601A709A6079
:1032A000204601F0BDFB202383F31188638913F0CE
:1032B000010105D143F001036381204601F048FD7F
:1032C000002383F31188F8BD94F8443013F06007AD
:1032D0001E4611D00021204601F072FD002120463B
:1032E00001F05EFD63681B6813B105212046984715
:1032F000062384F83430F8BD94F8450003F07F02CB
:1033000042EA0025B5F5407F00F0EB8016D9B5F50F
:10331000C06F00F0CE802FD9B5F5106F76D040F693
:103320000242954200F0EF80B5F5006FD2D104F172
:103330004F0201202764A263E06395E7022D00F0AD
:10334000A28040F29780B5F5807F00F08480B5F5CB
:10335000817FBFD194F84630002BBBD194F8483020
:1033600013F00F0115D01E06204600F1F48001F085
:1033700037FD94F844600CE040F202339D4257D090
:10338000B5F5A06FA6D1B4F84430B3F5A06F00F046
:10339000D0800023A363E363236433062AD4E36865
:1033A0005A690521002384F8341019461370D3603C
:1033B00053609360204601F0B3FB202383F3118810
:1033C000238913F001017FF47BAF43F001032381D4
:1033D000204601F0CDFC73E760B1E368A56B5B6943
:1033E0000022012184F834101146DD6058601A7003
:1033F0009A60DFE7E3689A690321002384F83410B8
:1034000019461370D3605360936049E794F84630CF
:1034100084F84F30002B7DD10323237063681B6831
:10342000002BB6D002212046984794F84460B0E7BC
:1034300094F84630002B7FF44DAF94F8483013F0E9
:103440000F01A6D01D06204600F18A8001F0A8FCDD
:1034500094F844609DE794F84630012B7FF43AAF2E
:10346000B4F84C30A76323F00203E7632764A4F8A1
:103470004C3092E7002D43D104F14C020220256428
:10348000A263E063F0E694F8481011F0800F204644
:1034900001F00F0141D101F093FA012841D0022837
:1034A0007FF418AF314BA363E063276494F8443092
:1034B000DAE694F84900616894F848304D6894F869
:1034C000462094F8471043EA00232046A8470028E6
:1034D0003FF400AF09C82764A363E06394F8443065
:1034E000C2E694F84630012B7FF4F4AEB4F84C30C9
:1034F000A76343F00203E7632764A4F84C304CE76A
:10350000012D7FF4E7AE1A4AA26302200022E06395
:103510002264A9E60423237080E701F061FA012800
:10352000BDD1144BA363E5632764284694F8443067
:103530009AE694F8463084F84E30204601F078F947
:1035400063681B6813B1012120469847032394F850
:10355000446023701DE701F053FC94F8446018E7C1
:1035600001F02EFC94F8446013E700BF809F000830
:10357000709F0008909F00080000000000000000FD
:1035800090F8343010B50446062B15D8DFE803F068
:10359000043B1C0404150400002101F011FC00216F
:1035A000204601F0FDFB63681B6813B1052120462E
:1035B0009847062384F8343010BD036C03B1984754
:1035C000002384F8343010BDC3689A6903210023B6
:1035D00084F83410204619461370D360536093600A
:1035E00001F01EFA202383F31188638913F001018F
:1035F00005D143F001036381204601F0A9FB0023BC
:1036000083F3118810BD90F84B1090F84A30C26BCC
:1036100043EA01239342C368D7D9188AB2FBF0F179
:1036200000FB1122002AD0D15B6911461A70DA60C2
:103630005A609A60204601F073FA202383F31188C0
:10364000238913F0010105D143F0010323812046B2
:1036500001F08EFB002383F31188022384F83430B9
:1036600010BD00BF000000000000000000000000CE
:1036700090F83420062A0CD80123934013F0670FEA
:1036800010B5044612D113F0080203D1DB061ED494
:1036900010BD7047C3689B699B68002BF8D1036C11
:1036A00003B19847002384F8343010BD002101F0A5
:1036B00087FB0021204601F073FB63681B6813B190
:1036C000052120469847062384F8343010BDC3688E
:1036D0005B69052180F834101A70DA605A609A60CC
:1036E000114601F01DFA202383F31188238913F07A
:1036F000010103D0002383F3118810BD43F00103BF
:103700002381204601F034FBF4E700BF00000000F5
:1037100043099B0010B403F1604300F1604404F5D9
:10372000614403F56143090100F01F00012202FA20
:1037300000F0C9B284F80013C3F88001186010BC0F
:10374000704700BF00000000000000000000000003
:1037500008B5074B074A196801F03D0199601368E5
:103760000BB150689847BDE80840FFF701B900BFAA
:1037700000600240600A002000000000000000001D
:10378000084B094819688268890901F03D0110B5A4
:103790008C019C600AB1C0689047BDE81040FFF7FB
:1037A000E7B800BF00600240600A0020000000008F
:1037B000084B094819680269090C01F03D0110B570
:1037C0000C049C600AB140699047BDE81040FFF7C7
:1037D000CFB800BF00600240600A00200000000077
:1037E000084B094819688269890D01F03D0110B53F
:1037F0008C059C600AB1C0699047BDE81040FFF796
:10380000B7B800BF00600240600A0020000000005E
:1038100008B5074B07485968026A01F03D01D960B5
:103820000AB1406A9047BDE80840FFF7A1B800BF61
:1038300000600240600A002000000000000000005C
:10384000084B09485968826A890901F03D0110B5A1
:103850008C01DC600AB1C06A9047BDE81040FFF7F8
:1038600087B800BF00600240600A0020000000002E
:10387000084B09485968026B090C01F03D0110B56D
:103880000C04DC600AB1406B9047BDE81040FFF7C4
:103890006FB800BF00600240600A00200000000016
:1038A000084B09485968826B890D01F03D0110B53C
:1038B0008C05DC600AB1C06B9047BDE81040FFF793
:1038C00057B800BF00600240600A002000000000FE
:1038D00008B5074B07481968026C01F03D01996073
:1038E0000AB1406C9047BDE80840FFF741B800BFFF
:1038F00000640240600A0020000000000000000098
:10390000084B09481968826C890901F03D0110B51E
:103910008C019C600AB1C06C9047BDE81040FFF775
:1039200027B800BF00640240600A002000000000C9
:10393000084B09481968026D090C01F03D0110B5EA
:103940000C049C600AB1406D9047BDE81040FFF741
:103950000FB800BF00640240600A002000000000B1
:10396000084B09481968826D890D01F03D0110B5B9
:103970008C059C600AB1C06D9047BDE81040FEF711
:10398000F7BF00BF00640240600A00200000000092
:1039900008B5074B07485968026E01F03D01D96030
:1039A0000AB1406E9047BDE80840FEF7E1BF00BF96
:1039B00000640240600A00200000000000000000D7
:1039C000084B09485968826E890901F03D0110B51C
:1039D0008C01DC600AB1C06E9047BDE81040FEF774
:1039E000C7BF00BF00640240600A00200000000062
:1039F000084B09485968026F090C01F03D0110B5E8
:103A00000C04DC600AB1406F9047BDE81040FEF73F
:103A1000AFBF00BF00640240600A00200000000049
:103A2000084B09485968826F890D01F03D0110B5B6
:103A30008C05DC600AB1C06F9047BDE81040FEF70E
:103A400097BF00BF00640240600A00200000000031
:103A50000E490F4A0F48002310B40B600E4C194654
:103A600001E052F80C0C016044F833100133102BC4
:103A700002F10C02F5D10949094A10BC4FF0FF339D
:103A80008B60CB609360D360704700BFE00A00207A
:103A9000AC9F000810600240600A002000600240F5
:103AA0000064024000000000000000000000000070
:103AB000F8B51F4F467A3D68012404FA06FE1EEA57
:103AC000050F31D11B4C4EEA050504EBC60E15F06F
:103AD000FF0F3D6044F83620CEF8043004D0164C79
:103AE000236B43F40013236315F47F4F16D105684D
:103AF0002B6823F01F032B602B6813F00104FBD10C
:103B0000077A46683D23BB40212733602C606F61F4
:103B100062B1807AFFF7FCFD2046F8BD064C236BAE
:103B200043F480032363E2E72046F8BD1046F8BD66
:103B3000E00A0020600A0020003802400000000077
:103B4000164B4FF0FF311A69002210B419611A6147
:103B5000586959615A61186A114C60F080501862B6
:103B60001A62586A59625A62196C41F0805119649C
:103B7000216841F480712160196F01F44071B1F541
:103B8000007F03D04FF4803119671A67044A10BCD4
:103B9000536823F400735360FFF75ABF00380240A4
:103BA0000070004000000000000000000000000065
:103BB0002C492D4B4FF080504FF4404208641A605E
:103BC0000B6843F001030B600A68264B9007FBD596
:103BD0009A6822F003029A609A689A6019468B6884
:103BE000204A13F00C03FAD1116801F0F9011160B9
:103BF0009360136843F4803313601168194B890391
:103C0000FBD55A6F42F001025A675A6F1549900767
:103C1000FBD5164B4B600B68134A43F080730B6067
:103C200053685904FCD50F490A680E4B9201FBD525
:103C30000F4A1049996040F2057111609A6842F08C
:103C400002029A601A469368064903F00C03082B97
:103C5000F9D14B6C43F480434B644B6E43F4804387
:103C60004B6670470038024000700040085440071F
:103C7000003C0240009408380000000000000000F2
:103C80004FF080431A69920701D4FEF771BE10B558
:103C900000241C61202383F31188FDF7D1F884F3FD
:103CA0001188BDE81040FEF763BE00BF00000000B1
:103CB0000F4A1048136C70B443F001031364816819
:103CC0004FF080430022012441F0010142F2CF066F
:103CD0004FF0FF3581609E620821DD621C209A61F1
:103CE0005A63DA605A605C611C6070BCFFF710BDFB
:103CF00000380240002004E0000000000000000046
:103D000011F00C0F2DE9F04104462ED0C06A036873
:103D10001A6822F01F021A60196811F00101FBD124
:103D20002269077A46689568A36A3D22BA40012055
:103D3000326059609960986045B105232370204630
:103D4000A8472378052B04BF022323700025256193
:103D5000202383F311884FF0FF3104F11400FDF7A5
:103D6000EFFB85F31188BDE8F0810569A5B18A06EE
:103D700010D52B78DBB16B6873B1C268012A47D9C3
:103D800069888468520802FB01F104EB4101BDE837
:103D9000F0411847CB0601D4BDE8F0816B68002BD9
:103DA000FAD0C26881685208BDE8F0411847C06A7D
:103DB0000268136823F01F031360136813F00103F4
:103DC000FBD1077A46686D68A26A3D21B94001209F
:103DD0003160536093609060ADB104232370E2685A
:103DE000A1682046A8472378042B0CD0202383F316
:103DF0001188002104F11400FDF7A2FB002383F3D6
:103E00001188BDE8F0810222002322702361EDE7D2
:103E10008168BDE8F0411847000000000000000084
:103E2000F8B51E4B1A6800211960930631D51C4C59
:103E3000E16A0A68536863B3256955B3136823F0D0
:103E40001F031360136813F00103FBD1087AAE68F7
:103E50004F68A26A124D3D2101FA00F0012138603D
:103E600053609360916046B105232B702846B0479C
:103E70002B78052B04BF02232B70002525612023FE
:103E800083F311884FF0FF310648FDF759FB85F3A6
:103E90001188BDE8F840FEF76BBD00BF002001406F
:103EA000E40A0020F80A00200000000000000000E2
:103EB00010B5084C2046FEF7CBFD0749074A084BD2
:103EC000A162E262236306211220BDE81040FFF7E1
:103ED0001FBC00BFE40A00200020014030A0000801
:103EE000162C02000000000000000000000000008E
:103EF0000378012B00D07047114B984210B504464F
:103F00000DD01048A26A436803F44003002143F433
:103F100080330124436051609160946010BD03467A
:103F2000094AC06A0621FFF7C3FDE36A074A1B6816
:103F300007499960536C43F480735364E1E700BF11
:103F4000E40A002000230140013D0008003802403F
:103F50004C200140000000000000000000000000B4
:103F60000369016B1A78F0B5002A2BD1C268C56AC3
:103F70005C882D688668EE6002FB04F26A60DC688B
:103F800029602E68826A1969D3F814E09F6944F0A9
:103F9000806046F001042C600024DD6914601C6A16
:103FA0005B6AC2F80CE040F480701761D56214635C
:103FB00053634B0050600DD441F4407141F0010156
:103FC0009160F0BDC268012A94BF41F4807141F450
:103FD0008471CCE721F0804323F0020343F4407363
:103FE00041F4407143F0030341F003019360916099
:103FF000F0BD00BF00000000000000000000000055
:10400000024A536843F400035360704700230140A1
:10401000F0B4654D654C2F6B6549664A664B40F2BE
:10402000FF1637432F632F6D3E432E65456865604D
:104030008568A560C568E5600569656145692562B3
:104040008569656205682560046A4C60446A8C6015
:10405000846ACC60C46A4C61046B0C62446B4C6231
:10406000C4690C60C16B5160016C9160416CD1609E
:10407000816C5161C16C1162016D5162816B116083
:10408000826D5A60C26D9A60026EDA60426E5A6149
:10409000826E1A62C26E5A62426D1A60426FC3F833
:1040A0000424826FC3F80824C26FC3F80C24D0F82C
:1040B0008020C3F81424D0F88420C3F82024D0F83A
:1040C0008820C3F82424026FC3F80024D0F890207D
:1040D000C3F80428D0F89420C3F80828D0F8982012
:1040E000C3F80C28D0F89C20C3F81428D0F8A020DE
:1040F000C3F82028D0F8A420C3F82428D0F88C20B6
:10410000C3F8002803F54063D0F8AC205A60D0F81B
:10411000B0209A60D0F8B420DA60D0F8B8205A61A4
:10412000D0F8BC201A62D0F8C0205A62D0F8A8207B
:104130001A60D0F8C820C3F80424D0F8CC20C3F803
:104140000824D0F8D020C3F80C24D0F8D420C3F829
:104150001424D0F8D820C3F82024D0F8DC20C3F8E9
:104160002424D0F8C420C3F80024D0F8E420C3F8F5
:104170000428D0F8E820C3F80828D0F8EC20C3F8C9
:104180000C28D0F8F020C3F81428D0F8F420C3F895
:104190002028D0F8F820C3F82428D0F8E020C3F86D
:1041A0000028F0BC704700BF003802400000024009
:1041B0000004024000080240000C02400000000021
:1041C0002DE9F04F4FF00F0C02F0030EC2F3800701
:1041D000C2F3C106C2F341150024C2F3C3124FF06B
:1041E00001094FF0030830E0D0F820B02BEA0303B8
:1041F00043EA0A030362436809FA04FA23EA0A035A
:104200003B4343606300D0F808A008FA03F3DB43A4
:104210000AEA030A4AEA060AC0F808A0D0F80CA085
:1042200003EA0A0A4AEA050AC0F80CA0D0F800A07E
:1042300003EA0A0343EA0E030360490819D07F002A
:10424000B600AD004FEA8E0E013404F007039B0068
:1042500011F0010F02FA03FA0CFA03F3EDD0072C68
:10426000C2D9D0F824B02BEA030343EA0A0343621D
:10427000C1E7BDE8F08F00BF0000000000000000B3
:104280002DE9F04FB44BB5499A69D0F8509091613F
:1042900087B0202383F31188019300F16003CA469D
:1042A0000593814699F80030012B06D0D9F85C308F
:1042B00063B9DAF81430DB0608D4DAF81830059858
:1042C00043F01003CAF81830FDF72AF9002383F3EE
:1042D00011889B46DAF8143013F0100324D0D9F873
:1042E0005060336A03F4F012B2F5802F32D0B2F589
:1042F000402FEFD103F00F0209EB8202C3F30A1340
:10430000D26803339B08106AE4D006F58056022277
:10431000316812B140F8041B013A013BF8D1DAF8D8
:10432000143013F01003DAD1D9F85C20012101FA1E
:104330000BF11142039169D10BF101030293D9F8FA
:1043400054309DF808B09B689B45C3D9019B83F30B
:104350001188A7E703F00F0509EB8505C3F30A14DD
:10436000EB6899690B78DBB94B688A68C8680333D6
:104370009A1AE31C9B084FEA920209D006F5805670
:104380008646376812B14EF8047B013A013BF8D1FA
:104390002044C860EB689A6993682344936099E766
:1043A000C86824B3426906F580562746032F06D90C
:1043B00003699A4203D3C2684261032FF8D8D6F842
:1043C00000E000232EFA03F102F1010CC0F814C042
:1043D000117002694169914224BFC2684261013F84
:1043E00003F1080303D0202B4269EBD1DEE7019BE8
:1043F00083F311888368234483600021FDF7D8F894
:10440000FCF736FF002383F31188C3E7019A82F398
:104410001188DAF80810D9F85C20039821F001011E
:1044200022EA0002CAF80810C9F85C2083F3118858
:1044300009EB8B07FC68626991685368994280F0C8
:10444000B580D9F85000268A4FEA4B1800EB0804D3
:104450005B1AD4F818199E4228BF1E468BB2B6EBE1
:10446000830F0BF1010302932FD81B03CDF810A08B
:104470009A461378002B3DD1F31CD4689B0800EBBF
:104480000A0E18BF214605D051F8040BCEF80000E3
:10449000013BF9D13444D460FC6862699368516887
:1044A0003344994293607DD9D9F85000248A00EBB7
:1044B0000805CE1AD5F81839A64228BF26469BB261
:1044C000B6EB830FD5D9DDF810A00022019B83F352
:1044D0001188DAF8083043F00103CAF808302AB925
:1044E000DAF83438039A1A43CAF83428002383F3DD
:1044F000118824E700EB0A0ED068F6B1D0F810C09E
:10450000324691082CD1836900210C465D1C8561DF
:104510001B78654503FA01F344EA030424BFC3682A
:104520008361013A01F1080103D0202901D0836998
:10453000ECE7CEF80040002AE3D1019B83F3118819
:104540008368334483600021FDF732F8FCF790FE66
:10455000002383F311889FE7E808002070A000087B
:104560008469BCEB040348BF03339B108B4228BF14
:104570000B464FEA830BCBEB02023BB1214651F8CD
:10458000045BCEF80050013BF9D15C44A445846142
:1045900004D8C3688361002AB3D1CEE7002ACCD007
:1045A0002346B1E7DDF810A001228FE70BF10103EC
:1045B0000293F9E700000000000000000000000086
:1045C000F0B50024D1F808E025464FF0804C4FF0BC
:1045D000FF3714E0C1F80059C218C2F81059C2F8E8
:1045E0000879D1F8006B002E17DBC1F8005B03449B
:1045F00001347445C3F8105BC3F8087B14D8630119
:10460000C118D1F80029002AE4DAC1F800C90E4621
:10461000D6F808299207FBD5DEE7C1F800CBD2F81F
:10462000081BC906FBD5E2E74FF00113C0F81C38A0
:10463000F0BD00BF0000000000000000000000000E
:1046400010B5064C2046FEF763FD4FF0A043044A28
:104650002365002362652366636610BD180B002086
:1046600060A0000800000000000000000000000042
:104670000378012B00D0704770B5314B066D98421E
:1046800082B0054618BF34463AD000232D482E4943
:10469000EB654FF45022F060C6F800182020C6F8F1
:1046A000003EB263FCF72CFC012323612369DB0786
:1046B000FCD40C20FCF724FC2369002BFCDA00243A
:1046C000B460696D286DFFF77BFF6B68C6F8104812
:1046D000DB68C6F81448C6F81C486BB143F20803FF
:1046E000B3616B6E4FF0FF327261D3B1B36843F0C8
:1046F0000103B36002B070BD4FF44053B361F0E703
:10470000124B5A6B42F080025A635A69002042F001
:1047100080025A610E2158614320FEF7F9FF2C6D8B
:10472000B3E70B4B009502224FF4A47105F168002A
:10473000FCF7D6FD6866FCF7C3FCFCF799FDD5E7EE
:10474000180B0020401400400300200200380240F3
:10475000814200080000000000000000000000008E
:10476000F8B5056D202307462B612B6913F0200453
:10477000FBD10C20FCF7C4FBD7F854E0DEF808604E
:1047800023464FF00060FF2105EB43120133B34293
:10479000C2F80009C2F8000BC2F80819C2F8081BD9
:1047A000F2D9DEF800304FF0FF324FF00111C5F8BA
:1047B00018283A6DC5F81C18BB65DEF800306B622E
:1047C00010231361136913F01004FBD10C20FCF7C4
:1047D00097FBD5F80038114A114823F4FE63C5F859
:1047E0000038AB6943F4402343F010030921AB6167
:1047F000C5F81018C5F81418F860C5F8104BC5F8BE
:10480000002BC5F81049C5F80029BB6D03F1100253
:1048100043F48013BA65AB62F8BD00BF408000105E
:1048200080A0000800000000000000000000000060
:10483000026D90F84E10D2F8003823F4FE6343EA7C
:104840000113C2F8003870470000000000000000AB
:104850002DE9F8430FFA81F800EB88070D46FB6855
:104860001A6802F00302022A5ED0032A5ED04C4E80
:104870004C49012A18BF0E46046DD9686A0104EB41
:10488000020E4FF0000CCEF810CB002973D0B3F815
:1048900012E005F1580149014EEA060E44F801E024
:1048A00005F1100CD4F81C184FF0010E0EFA0CFE96
:1048B0004EEA0101C4F81C18224499684FF0000E1A
:1048C000C2F810E9002933D0998B1A8A01294FEADE
:1048D0009203826D88BF4B4305F13F0103EB020E4B
:1048E00004EB810142EA0343AA0142F02002C0F82E
:1048F00058E04B60226123699A06FCD40C20FCF737
:10490000FFFAFB681A8A05F1480342EA85525B0107
:104910003243E2500121D4F81C3801FA05F51D4359
:10492000C4F81C58BDE8F8831F4EA5E71F4EA3E747
:1049300005F13F0204EB8202AB011D49516043F0D7
:104940002003236123699B06FCD404EB48180C2048
:10495000FCF7D6FAD8F8003923F40043C8F8003938
:10496000D4F81C38012202FA05F523EA0503C4F83D
:104970001C38BDE8F88304EB481105F11009D1F8A3
:1049800000CB2CF4004CC1F800CBD4F81C184FF02D
:10499000010E0EFA09FE21EA0E01C4F81C188BE77D
:1049A00000800410008000100080081000800C10AF
:1049B00000040002000000000000000000000000F1
:1049C0005831036D49015B5813F4004004D013F4CF
:1049D000001F14BF01200220704700BF000000002C
:1049E0004831036D49015B5813F4004004D013F4BF
:1049F000001F14BF01200220704700BF000000000C
:104A000000EB8101CB681B6A19685B685360116019
:104A1000704700BF00000000000000000000000020
:104A200000EB810330B4DD68AC696368236131B9A0
:104A3000402B04D940236360094A3F2402E05C1EF6
:104A400043F0C042006D6D8A00EB41112B19B3FB9E
:104A5000F5F342EAC343C1F8103B30BC704700BFD6
:104A600040000060000000000000000000000000A6
:104A70002DE9F041264E376D07EB40130546D3F87C
:104A8000084BC3F8084B200703D5D7F8143819078B
:104A90001DD4E20719D5D7F81438DB0715D506EB76
:104AA00085061B4CF1688B6958681A69904216D3C9
:104AB0006289CE680123AB4022EA03036381294661
:104AC00020463346BDE8F0411847BDE8F08106EBCB
:104AD00085032946DB6830465B689847D9E7121A98
:104AE00000265A609E6029462046FFF799FF202342
:104AF00083F31188236D03EB4515D5F8003B43F094
:104B00008063C5F8003B86F31188BDE8F08100BFE3
:104B1000180B002000000000000000000000000052
:104B200000EB810310B4DC68626953681361A3B1C0
:104B300069B15A1E006D248A00EB41112244B2FB78
:104B4000F4F243EAC243C1F8103910BC7047402B5D
:104B5000EFD9402353603F22ECE7036D10BC03EB19
:104B600041114FF40023C1F81039704700000000D4
:104B70002DE9F041314F3D6D05EB40130646D3F86A
:104B80000849C3F80849E10703D5D5F81038DA0712
:104B90000AD4230606D50123D5F8342803FA06F6ED
:104BA000164229D1BDE8F08107EB8003D9684B6933
:104BB00058681A69904234D2121A4FF000085A60AD
:104BC000C3F8088031463846FFF7AAFF202383F355
:104BD00011883B6D03EB46100122D0F8001941F01B
:104BE0000441C0F80019D3F83418B2400A43C3F89E
:104BF000342888F31188CCE7202383F31188D5F873
:104C00003438FA6D0E4823EA0603C5F834381643E3
:104C10000021FE65FCF794FC002383F31188BDE8B6
:104C2000F0813A89D1F808800123B34022EA0303D6
:104C30003B8131463846C047ABE700BF180B002028
:104C4000780B0020000000000000000000000000C1
:104C500070B53A4D2E6D7469B3691C40E1047461FE
:104C60002DD4A20448BFD6F80838230704D56B68B2
:104C7000DB680BB131489847E5062BD46003D6F8C2
:104C8000185807D5E90745D4AA0748D46B074BD471
:104C90002E074ED4240307D5E80330D4A90333D418
:104CA0006A0326D42B0303D4BDE87040FDF760BE31
:104CB0000320FFF7DDFEBDE87040FDF759BE284632
:104CC000FEF7A6FA6B681B68002BCAD000212846A5
:104CD0009847C6E7202383F31188B369184823F067
:104CE0001003B3610021FCF72BFC002383F3118830
:104CF000C4E70220FFF7BCFE2B03D5D5D8E7002080
:104D0000FFF7B6FEA903CBD50120FFF7B1FE6A037A
:104D1000C8D5EEE70020FFF72BFFAA07B6D5012084
:104D2000FFF726FF6B07B3D50220FFF721FF2E0701
:104D3000B0D50320FFF71CFFACE700BF180B002025
:104D4000780B0020000000000000000000000000C0
:104D5000036D03EB4111D1F8003B43F08063C1F8D0
:104D6000003B704700000000000000000000000051
:104D7000036D10B403EB41140120D4F8002942F074
:104D80000442C4F80029D3F8342810BC00FA01F119
:104D90001143C3F834187047000000000000000001
:104DA000036D03EB4111D1F8003B43F40013C1F84C
:104DB000003B704700000000000000000000000001
:104DC000036D03EB4111D1F8003943F40013C1F82E
:104DD00000397047000000000000000000000000E3
:104DE000036D03EB4111D1F8003B23F40013C1F82C
:104DF000003B7047000000000000000000000000C1
:104E0000036D03EB4111D1F8003923F40013C1F80D
:104E100000397047000000000000000000000000A2
:104E200011F00C0F00D170470148FBF7A1BF00BF84
:104E3000B0A000080000000000000000000000001A
:104E400011F00C0F38B5044634D1606A026813685B
:104E500023F01F0313601368D907FCD4057A216A75
:104E600040680A683D23AB400360136823F01F03CA
:104E700013601368DB07FCD46368087A1A68496812
:104E80003D2383400B6092B104232370204690475A
:104E90002378042B0BD0202383F31188002104F105
:104EA0000800FCF74DFB002383F3118838BD022373
:104EB0002370F0E70148FBF75BFFC6E7B0A00008EE
:104EC00070B5114E114B124C124D4FF6FF72304619
:104ED0001A80FEF7ADF81049104A114BF1612046D7
:104EE00005F1240135627162B262F362FEF7A0F847
:104EF0000C490D4A0D4BE161A5F13C01303D2162A9
:104F00006562A262E36270BDE80C0020E40C002040
:104F1000180D002000A00008003001401600010616
:104F2000460001060038004016000100460001005E
:104F30000378012B10B504461DD0C3696268A06ACE
:104F40005289E16A20F4F04021F4F04112F4006F3C
:104F50001CBF40F4205041F42051A062E16242F4B1
:104F600041720020072118601A6059601A6842F0E7
:104F700040021A6010BD1A4B98420CD0194B98424F
:104F80001BD0216A626AE3690868116803F10C02A8
:104F900082608A60D2E70346134A006A0A21FEF75C
:104FA00087FD2346114A606A0A21FEF781FD104AF7
:104FB000536C43F480535364E3E703460A4A006AA0
:104FC0000A21FEF775FD2346084A606A0A21FEF7AA
:104FD0006FFD074A136C43F480431364D1E700BFAD
:104FE000E80C0020180D0020414E0008214E00085A
:104FF0000038024000000000000000000000000037
:1050000042681189526801238B409BB253837047D9
:1050100042681189526801238B409BB21383704709
:10502000F0B4046A476A866AC56A24683868E3602F
:1050300046F4806645F4806561602660C260416028
:105040000560236843F001032360036843F0010314
:105050000360F0BC704700BF0000000000000000CB
:1050600070B4436A046AC56A24681B68806A094E82
:10507000E66045F4806561602060DA6059601D601B
:10508000226842F0010222601A6842F001021A60AE
:1050900070BC7047480D00200000000000000000B8
:1050A00008B50B4B1878DA6800210428116107D184
:1050B0000220187011601161D16821F0FF01D160E8
:1050C0005B6803485B689847BDE80840FDF750BC43
:1050D0004C0D002000000000000000000000000057
:1050E0000248034BC360FDF7EBBC00BF4C0D002032
:1050F000000400400000000000000000000000006C
:1051000038B50378012B044612D06068A368C168E3
:105110000568E268B3FBF5F3013B84689BB20020AD
:1051200021F0FF011060546093621061D16038BDBE
:105130000A4B9842E9D10A4B1A6C42F002021A64F7
:105140001A6A002042F002021A62072118621D202A
:10515000FEF7DEFA034BA360D7E700BF4C0D00203B
:105160000038024000BD0105000000000000000002
:105170004268C36850680139D9620022012159612F
:105180005A621A6110B1DA680A43DA6005221A60BD
:10519000704700BF00000000000000000000000099
:1051A00038B5174DAB691C69DA681440E2B2D243D6
:1051B0001A61A30704D56B681B690BB12846984791
:1051C000600704D56B689B690BB10D4898472107B0
:1051D00004D56B681B6A0BB109489847E20604D5F1
:1051E0006B689B6A0BB106489847E30704D56B6868
:1051F0009B680BB102489847BDE83840FDF7B8BB43
:105200005C0D002000000000000000000000000015
:1052100010B5044C2046FDF783FC0422024B227497
:10522000A36110BD5C0D00200008004000000000DC
:10523000F8B50378012B04464BD0836900221A602D
:105240005A639A63DA631A645A626168A568CA6825
:1052500060690F68CE6AB0FBF7F002F00F026C1EB7
:105260000138012A9862DC625E6003D0022A0CBF1A
:1052700003220022486900F00F00012826D00228EE
:1052800022D0C86900F00F0001281AD0022816D0D9
:10529000486A00F00F00012803D0022803D142F42D
:1052A000005242F48052096B1A62012421F0FF027D
:1052B000002085215C611861DA601960F8BD42F454
:1052C000007242F48072E3E742F0200242F01002E2
:1052D000D7E70D4B984205D0A36946F668029A615C
:1052E000DA61B2E7094B1A6C42F004021A641A6AD6
:1052F000002042F004021A62072118621E20FEF705
:1053000007FA034B6361E7E75C0D002000380240B9
:1053100000BD0105000000000000000000000000CA
:1053200083690C3103EB81035A6070470000000071
:10533000024AD36843F08003D360704700440040C2
:10534000F8B5434E756FEF682B68DA059CB24FD401
:10535000202383F3118814F02F0F08D129E0A00631
:1053600069681DD42C68A4B214F02F0F21D0230734
:10537000F5D014F0080F0CBF00218021E00748BFD2
:1053800041F02001A20748BF41F04001630748BF38
:1053900041F480712F48FCF783FDA0066968E1D5D0
:1053A000C9B22B48FDF764FC2C68A4B214F02F0F8F
:1053B000DDD1002383F31188390601D5220626D4D6
:1053C000630611D5202383F31188726CB36C2048D7
:1053D0009A4229D04FF6BF733B406FF04002EB601A
:1053E00000232A6083F31188BDE8F840FDF7C0BAB6
:1053F000202383F311884FF40071301DFCF750FD1A
:105400006FF480732B60002383F31188A0E72023BF
:1054100083F311881048FDF7C3F800280CDB68609F
:10542000002383F31188CBE7836B002BD2D00430A9
:105430001021FCF735FDCDE708210648FCF730FDCB
:105440004FF63F733B4043F04003EB60E8E700BF9B
:10545000780D00207C0D0020A80D00200000000029
:1054600010B5044C044A20460021FDF7D1FB034B44
:10547000636710BD780D00203153000800440040E0
:1054800038B51F4C037A002918BF0C46012B05467E
:1054900022D06B6F1B4A93422BD002F5806293425D
:1054A00027D02168184AB2FBF1F29A60A288E088FE
:1054B000218942F4045240F0400042F02C0241F0B5
:1054C000010192B280B289B2002418615961DA6098
:1054D0001C601A685B6838BD0C4B9842D9D10C4AE5
:1054E000136C43F4003313640C212620FEF710F9EB
:1054F000CFE72168074AB2FBF1F29A60D6E700BF16
:10550000C0A000080010014080DE8002780D00205D
:105510000038024000BD010500000000000000004E
:10552000FEF746BB00000000000000000000000085
:10553000704700BF000000000000000000000000F5
:10554000014B01221A7070475D140020000000001A
:1055500070B5094E4C243068074D03682D219B68B7
:105560009847013CF7D128680449036802221B6868
:10557000BDE87040184700BF8C1400200CAF000835
:1055800010B370B5134A84B06D466C46A2FB00138D
:10559000DB0803EB8301A0EB410000F13001C9B24D
:1055A00004F8011B1846002BF0D1AC420AD90A4E70
:1055B000013C01E014F8011D306803689B689847BE
:1055C000AC42F7D104B070BD034B186803683021BA
:1055D0009B681847CDCCCCCC8C1400200000000078
:1055E000017859B138B5064D0446286803689B68B0
:1055F000984714F8011F0029F7D138BD704700BF44
:105600008C140020000000000000000000000000DA
:1056100070B5017889B10A4D0446286803689B6813
:10562000984714F8011F0029F7D128680549036835
:1056300002221B68BDE870401847014DF5E700BF26
:105640008C1400200CAF00080000000000000000D7
:10565000202383F31188044B1A68511C19601070C1
:10566000002383F3118870476014002000000000BD
:1056700051B910B40649074C074A01232370106042
:105680000B70184610BC704700231846704700BFC7
:105690005C140020A014002058140020000000001A
:1056A000F0B40E4E0E4F35683B4605E013F8014B43
:1056B00011F8012B944207D1AB42F7D30B781BB9F9
:1056C00037601846F0BC7047064C0749074A01236B
:1056D000237010600B701846F0BC704760140020F7
:1056E00090140020A01400205C1400205814002006
:1056F00010B4202383F311884FF080440023646AA0
:1057000083F31188641A521A944206D3044C054953
:10571000054A012323700B701060184610BC7047B7
:10572000A01400205C140020581400200000000089
:1057300038B5064C04F1140554F8043B18460BB177
:10574000FBF75EFEAC42F7D138BD00BF78140020F5
:1057500070B5074C002604F1140554F8040B18B179
:10576000FBF7BEFE44F8046CAC42F6D170BD00BF3E
:10577000781400200000000000000000000000007D
:1057800008B50120FBF74CFE202383F311884FF06E
:1057900080420023506A83F3118808BD0000000096
:1057A00010B542F2107404FB00F00D490D4B00F2ED
:1057B000E734A1FB042400221A70A409202383F3F8
:1057C00011880948C3680BB1FBF7FAFB2146002397
:1057D000064A0548FBF7B4FB002383F3118810BD8C
:1057E000D34D62105D140020641400204155000860
:1057F0002DE9F04F9F4CA04D206085B09F48FFF7EA
:1058000007FF9F48FFF704FF9E48FFF701FF2A218B
:10581000206803689B68984715F8011F0029F7D195
:1058200099489A4DFFF7F4FE2A21206803689B6887
:10583000984715F8011F0029F7D19548954DFFF7B6
:10584000E7FE2A21206803689B68984715F8011F26
:105850000029F7D19048914DFFF7DAFE2A21206800
:1058600003689B68984715F8011F0029F7D18C48F9
:105870008C4DFFF7CDFE2A21206803689B6898476E
:1058800015F8011F0029F7D18748884DFFF7C0FEA2
:105890002A21206803689B68984715F8011F002992
:1058A000F7D18348834DFFF7B3FE2A2120680368B0
:1058B0009B68984715F8011F0029F7D17E487F4D56
:1058C000FFF7A6FE2A21206803689B68984715F811
:1058D000011F0029F7D17A4B7A4802937A4B019144
:1058E0000393FFF795FE6548DFF888B1774FFFF720
:1058F0008FFE774B01991970019B01330193043F8F
:105900004FF0000857F8043F002B00F08780714DDE
:10591000FFF71EFE2D21206803689B68984715F845
:10592000011F0029F7D101986B4DFFF729FEDBF825
:10593000000003682E219B6808F101089847404643
:10594000FFF71EFE2021206803689B68984715F822
:10595000011F0029F7D13B681D68297839B12068FB
:1059600003689B68984715F8011F0029F7D15B4829
:10597000DFF890915A4E5B4DFFF74AFE4FF4FA6004
:10598000FBF74EFD584AD7F800A03560002313609E
:1059900053609360D3601361DAF8042089F8003013
:1059A00002B19047DAF80C309847DAF8083003B1C2
:1059B0009847FFF7CDFE99F80030002B38D0DFF87C
:1059C00048912D21206803689B68984719F8011FAA
:1059D0000029F7D1454BDFF834911868FFF7D0FD67
:1059E0002021206803689B68984719F8011F002947
:1059F000F7D13368AB4209D93A4D206815F8011B3D
:105A000003689B68984733689D42F6D33848FFF790
:105A1000FFFD57F8043F002B7FF479AF039B5BB188
:105A20001F46029B1A4652F8043F0393029263E713
:105A30003048FFF7EDFD65E7FFF78AFD2E4D0F4873
:105A4000FFF7E6FD4621206803689B68984715F834
:105A5000011F0029F7D11E4B1B782BB9274805B031
:105A6000BDE8F04FFFF7D4BD254805B0BDE8F04FC5
:105A7000FFF7CEBD8C14002030A20008CCAF000888
:105A800010A300082CA3000854A3000844A2000897
:105A90005CA3000858A2000874A300086CA20008C8
:105AA000BCA3000880A20008C8A3000894A20008B4
:105AB000D4A30008A8A20008ECA30008BCA2000818
:105AC000F4A1000818A4000880A4000870AA000827
:105AD000A0140020D0A20008E0A2000830A3000813
