:020000040800F2
:1000000000040020C1010008C1040008C104000868
:10001000C1040008C1040008C1040008C1040008AC
:10002000C1040008C1040008C1040008E10300087D
:10003000C1040008C1040008C1040008C10400088C
:10004000C1040008C1040008C1040008C10400087C
:10005000C1040008C1040008C1040008C10400086C
:10006000C1040008C1040008C1040008C10400085C
:10007000C1040008C1040008C1040008C10400084C
:10008000C1040008C1040008C1040008C10400083C
:10009000C1040008C1040008C1040008C10400082C
:1000A000C1040008C1040008C1040008C10400081C
:1000B00041030008C1040008C1040008C10400088D
:1000C000C1040008C1040008C1040008C1040008FC
:1000D000C1040008C1040008410C0008C104000864
:1000E000C1040008C1040008C1040008C1040008DC
:1000F000C1040008C1040008C1040008C1040008CC
:10010000C1040008C1040008C1040008C1040008BB
:10011000C1040008C1040008C1040008C1040008AB
:10012000C1040008C1040008C1040008C10400089B
:10013000C1040008C1040008C1040008C10400088B
:10014000C1040008C1040008C1040008C10400087B
:10015000C1040008C1040008C1040008C10400086B
:10016000C1040008C1040008C1040008C10400085B
:10017000C1040008C1040008C1040008C10400084B
:10018000C1040008C1040008C1040008C10400083B
:10019000C1040008C1040008C1040008C10400082B
:1001A000C1040008C1040008C1040008C10400081B
:1001B000C1040008C1040008C1040008C10400080B
:1001C00072B6264880F3098825484EF60851CEF2CB
:1001D00000010860022080F31488BFF36F8F01F0E4
:1001E0004FFB00F06DFA4FF055301E491E4A914208
:1001F0003CBF41F8040BFAE71C49184A91423CBF46
:1002000041F8040BFAE71A491A4A1B4B9A423EBFBF
:1002100051F8040B42F8040BF8E700201749184A7C
:1002200091423CBF41F8040BFAE701F0E1FA01F01A
:100230001FFB144C144DAC4203DA54F8041B8847DE
:10024000F9E704F00DFA114C114DAC4203DA54F801
:10025000041B8847F9E701F003BB000000080020F9
:10026000000000080000002000040020000400201E
:100270007C740008000800207C0800208008002012
:100280002C130020C0010008C0010008C0010008B4
:10029000C001000800000000000000000000000095
:1002A0002DE9F04FC1F80CD0C3689D46BDE8F08F32
:1002B000002383F311882846A047002000F0C0FFE8
:1002C00000F05EFB00DFFEE7000000000000000021
:1002D000024AD36843F08003D36070470044004073
:1002E000202383F311880F4B5B6813F4006302D162
:1002F00083F311887047EFF309834FF0807243F85E
:10030000042CA3F1200282F30988074A116892693C
:100310008968926891428CBF044A054A43F8082CC8
:10032000704700BF00ED00E040120020C10200084D
:10033000C4020008000000000000000000000000EF
:100340002DE9F0414FF0804423699B0703D4BDE8B9
:10035000F041FFF7C5BF00272761202585F31188ED
:100360001C4ED4F824E0F369B26A9868C2EB0E011F
:10037000814206F11C0819D3196802444145B26252
:10038000DA68C1F80480F161DF6008BFE76087F3D5
:1003900011881869904785F31188F369D4F824E02F
:1003A000B26A9868C2EB0E018842E5D9434509D08C
:1003B0000244CEEB0202012A98BF02224FF0804392
:1003C00072445A63002383F31188BDE8F041FFF7BC
:1003D00087BF00BF401200200000000000000000A6
:1003E000EFF30983203383F30988002383F3118813
:1003F000704700BF00000000000000000000000087
:1004000030B4202383F311880B4D0C4A2B684C1E0B
:10041000013B0B4412684942044403EA0100131AE9
:10042000214099429ABF091829600020002383F3D4
:10043000118830BC704700BF700900206411002093
:1004400010B4202383F3118890F82030072B0ED8A6
:10045000DFE803F0270D0D2308040D08426A9368B6
:100460000133936090E80C001A60026853604FF00B
:10047000FF34002281680D4B446280F820201B6805
:100480009A688A42FBD25A68002103604260106079
:10049000586081F3118810BC7047436A00221A60CB
:1004A000E5E7002383F3118810BC70474012002059
:1004B000FEE700BF00000000000000000000000098
:1004C000FEE700BF00000000000000000000000088
:1004D0000B4B30B403F114002025002453F8042BF7
:1004E0004AB185F3118892F8211041F0040182F895
:1004F000211084F311888342F0D130BC704700BFD3
:10050000F4110020000000000000000000000000C6
:10051000202383F31188064A064913688B4202D2CE
:10052000591C11601870002383F31188704700BFB5
:1005300008120020940800200000000000000000C5
:1005400070B5017889B10446094D286803689B6835
:10055000984714F8011F0029F7D128680222036880
:1005600004491B68BDE870401847014DF5E700BF1E
:100570009809002008610008000000000000000049
:10058000017859B138B50446054D286803689B6861
:10059000984714F8011F0029F7D138BD704700BFF4
:1005A000980900200000000000000000000000008A
:1005B00010B370B584B06D466C46124AA2FB0013AE
:1005C000DB0803EB8301A0EB410000F13001C9B26D
:1005D00004F8011B1846002BF0D1AC420AD90A4E90
:1005E000013C01E014F8011D306803689B689847DE
:1005F000AC42F7D104B070BD034B302118680368DA
:100600009B681847CDCCCCCC980900200000000096
:10061000F0B40D4E0D4F35683B4605E013F8014B25
:1006200010F8012B944206D1AB42F7D3007810B9F1
:100630003760F0BC7047064C064A074B012020701B
:1006400010701960F0BC7047081200208408002068
:10065000EC120020ED120020E81200200000000043
:1006600048B910B4054A064C064B012020701070A2
:10067000196010BC70470020704700BFED120020C9
:10068000EC120020E8120020000000000000000032
:1006900070B5094E4C2430682D210368064D9B68C7
:1006A0009847013CF7D128680222036803491B6878
:1006B000BDE87040184700BF980900200861000895
:1006C000344B354A194610B400204FF080541C6456
:1006D00010601A6842F001021A600B682D4A9B07ED
:1006E000FBD51146936823F00303936093689360EE
:1006F0008B68284A13F00C03FAD11146106800F0F9
:10070000F90010609360136843F4803313600B6842
:10071000204A9C03FBD51146536F43F001035367F6
:100720004B6F1C4A9807FBD511461C4B536013684E
:1007300043F0807313600B68164A9B01FBD5184980
:10074000184B91601A68184B9A4219D040F2037204
:10075000164B1A600F4B19469A6842F002029A60D3
:100760008B680C4A03F00C03082BF9D1536C10BCB6
:1007700043F480435364536E43F48043536670479D
:100780000B4A0C4B12689A42E0D140F20312074B1D
:100790001A60DFE70038024000700040083C400566
:1007A00000948838002004E011640020003C0240DE
:1007B00000ED00E041C20F41000000000000000019
:1007C00008B52022034682F31188006828B1026828
:1007D0001A60002383F3118808BD9A68002AF8D0B4
:1007E000586804219047002383F3118808BD00BF97
:1007F000202383F31188044B00219A69536B18431B
:10080000506381F3118870474012002000000000FF
:10081000202383F31188024602E08B4207D01A4658
:1008200013689842F9D1002383F3118870470B684D
:100830001360002383F31188704700BF000000009D
:100840000E4B0F495A688368496FD31AC26830B497
:10085000D0E904455B1A01324168E418C2600268BD
:1008600045F100058B4288BF43609342C0E90445CF
:1008700030BC836038BF0360704700BF001000E0E9
:1008800040120020000000000000000000000000F6
:1008900070B5202383F31188124A10689469836825
:1008A000A1688B4203D2002383F3118870BD0368D3
:1008B000012600255A60136080F82060906184F85A
:1008C000205000E01B689A689142FBD95A68214683
:1008D0002360626014605C60FFF7E2FC002383F336
:1008E000118870BD401200200000000000000000D0
:1008F00083684168F0B50669476943F82C1C0168B4
:1009000000241B4A4FF0020C4FF0010E43F8301C3C
:10091000C16803F828CC03F826EC03F8274C43F809
:100920006C6CA3F16C055669124843F8687C43F877
:10093000401C43F80C1C43F83C5CA3F14801A3F1B4
:100940001C05A3F1200743F84C0C43F8104C43F866
:10095000144C43F8382C43F8346C0846316151612B
:1009600043F8207C43F81C5C43F8185CF0BD00BFE2
:1009700040120020B102000800000000000000004A
:100980000E4A30B410689469036801215A6000254A
:1009900080F82010A1681360906184F8205000E076
:1009A0001B689A688A42FBD85A68214623606260B5
:1009B00014605C6030BCFFF773BC00BF40120020C5
:1009C000044B1A689B6992689B689A4200D87047EA
:1009D000FFF7D6BF4012002000000000000000001A
:1009E00010B5202383F31188084B9B69DC6B996851
:1009F0008C4201D0814200D29860D863FFF7E0FFBB
:100A0000002383F31188204610BD00BF4012002050
:100A1000164B70B49D69416204468168A8688142A2
:100A20000DD8002284F820201B689A689142FBD9D7
:100A30005A682360626014605C6070BC70471A463C
:100A4000002185F82010126891688842FBD950680F
:100A5000012668602A600560556084F82060294698
:100A600020469C6170BCFFF71BBC00BF40120020F9
:100A700008B5202383F3118883680133002B83603A
:100A800003DD002383F3118808BD034600680021BD
:100A900002681A605360FFF7BBFF002383F31188DD
:100AA00008BD00BF000000000000000000000000C2
:100AB000084B30B499691A6881F820001468012540
:100AC000636082F820501C60104630BC9A61FFF7CA
:100AD000E7BB00BF40120020000000000000000043
:100AE00010B5202383F311880C4CA269134653F8E8
:100AF0002C0F984209D001680D24D1624B6000226E
:100B000080F8204082F3118810BD0E20FFF7D0FF3F
:100B1000A269D06A02F12C03EDE700BF4012002069
:100B2000202383F311888368013B002B836004DB5F
:100B30000020002383F311887047034610B5084C4A
:100B40000520A26953625968136051600A605A60B7
:100B5000FFF7AEFFA369586A002383F3118810BD25
:100B60004012002000000000000000000000000013
:100B700010B4044600228168074B80F820201B68CF
:100B80009A688A42FBD25A682046236062601460E9
:100B90005C6010BC704700BF4012002000000000E5
:100BA0000E4B10B520229C6982F311886162026BA2
:100BB00000F12C0184E80600146090F82020046302
:100BC0000E2A07D00C20FFF773FF606A002383F31F
:100BD000118810BDFFF7CCFFF4E700BF40120020E2
:100BE000436B90F8202019430A2A416309D00B2A4D
:100BF00000D07047436A8B43FBD100234362FFF769
:100C0000B7BF436A1942F8D1704700BF0000000027
:100C100070B50468A0420FD006460D46E3682B432A
:100C2000E36015B12269134203D0A1686068FFF741
:100C3000D7FF2468A642F1D170BD00BF00000000BC
:100C40002DE9F0436F4D83B06E6FD6F80C9033688A
:100C5000DA059CB200F18680202383F3118814F01A
:100C60002F0F4BD0674F07F10C0807E0A006736801
:100C70001DD43468A4B214F02F0F3FD02307F5D051
:100C800014F0080F0CBF00218021E00748BF41F09D
:100C90002001A20748BF41F04001630748BF41F46B
:100CA00080715948FFF7B4FFA0067368E1D56A69FF
:100CB00095F87840002A43D02A6A696A8A4249D066
:100CC00069692340501C01312862696113702A6AE6
:100CD000EB699A4201D3BB693B62EB684345C8D0DC
:100CE0001A680021FA601846C2F804805962FFF7BA
:100CF0003FFF3468A4B214F02F0FBFD1002383F359
:100D0000118819F0800F01D022063AD4630612D55B
:100D1000202383F311886A6CAB6C3A489A4259D00D
:100D20004FF6BF736FF0400209EA0303F36000233C
:100D3000326083F3118803B0BDE8F043FFF7D0BA07
:100D4000042131480193FFF763FF2A6A696A019B16
:100D50008A42B5D179690029B2D080212A48FFF7AB
:100D600057FF86E7202383F311884FF40071281D75
:100D7000FFF74EFF6FF480733360002383F3118815
:100D80006AE7202383F31188AB6C6A6C1D489A4292
:100D900028D0AA6B286C591C0132AA63A96481422D
:100DA0001F78184B01D3DA6B9A6416492B6B01F14B
:100DB0003002934209D018684FF0000E0863426079
:100DC0001846C3F824E0FFF7D3FE7760002383F3CF
:100DD00011889BE7836B002BA2D004301021FFF712
:100DE00017FF9DE7826B002AD3D004300821FFF75C
:100DF0000FFF4FF63F7309EA030343F04003F3602C
:100E0000E4E700BF681100206C1100200000000022
:100E100030B40446114A2568C3689069A5428363CB
:100E200017D0C16B4BB11A68934203D092689142BC
:100E300038BF1146DB68002BF5D1AA6B2B688160A7
:100E4000236028465C60A560E260AC6330BCFFF7BD
:100E50008FBE0023AB6030BC704700BF4012002043
:100E6000174B70B59D69202383F311880468C3680C
:100E70008442AB631DD0E96B4BB11A68934203D037
:100E80009268914238BF1146DB68002BF5D10346CA
:100E90002268A66B2046A9601A6053609C60DE60E1
:100EA000A363FFF765FEFFF78BFD002383F3118833
:100EB00070BD0023A360002383F3118870BD00BFC1
:100EC00040120020000000000000000000000000B0
:100ED000304B826870B59C69002A56D0A16893682F
:100EE0000546994207D992F820309160062B33D0FD
:100EF000072B1DD09BB12B4603E09968A268914255
:100F000002D31B689D42F8D15A6823606260146066
:100F10005C6065620620BDE87040FFF7C9BD92E8DD
:100F20000A001960104612685360FFF721FEE2E7DD
:100F300092E80900186010684360566A334602E080
:100F40009868814202D81B689E42F9D159681360A3
:100F500051600A605A60CEE792E809001860106894
:100F60004360566A334602E09868814202D81B68A3
:100F70009E42F9D15968136051600A605A60B268A4
:100F8000A16893688B42AED3B5E7A36B8460C3605E
:100F9000A06370BD401200200000000000000000AF
:100FA00008B5202383F31188FFF792FF002383F312
:100FB000118808BD000000000000000000000000D3
:100FC0002DE9F843174C8846002818BF044604F161
:100FD000100738469146FFF7E3FFA368F3B10024FA
:100FE0002546264658681B68844206F101060544DA
:100FF00038BF0446002BF5D1B8F1000F02D0ED0048
:10100000C8F80050B9F1000F02D0E400C9F8004060
:101010003846FFF725FF3046BDE8F8831C461D46DD
:101020001E46E9E700130020000000000000000059
:10103000F8B550F8043C50F8084C0733DB0804F1CD
:10104000100640F8043C054608343046FFF7A8FF78
:101050002346A5F10801A34204D08B4202D31B68AA
:10106000A342FAD11A681AB1914201D31346F2E7AA
:1010700045F8082C196055F8040C55F8087C421CFA
:1010800001EBC204BC420AD05868421C03EBC20206
:10109000914213D03046BDE8F840FFF7E1BE6468E6
:1010A0002044013045F8040C51F8322045F8082C52
:1010B0005868421C03EBC2029142EBD155F8042C54
:1010C000024401325A6055F8082C30461A60BDE8D7
:1010D000F840FFF7C5BE00BF0000000000000000A0
:1010E000202282F3118890F82230013B80F82230D0
:1010F000036A03F0FF130F2B03D0002383F311883F
:10110000704710B44369046900211C61046963617C
:1011100081F3118890F8213003F00303012B0CD0E8
:10112000022B08D1036CC06982F311881A6802602F
:10113000186081F3118810BC7047C06910BCFFF7BC
:1011400077BF00BF000000000000000000000000AA
:1011500038B50446202383F3118890F820300F2BF4
:1011600007D0084B826A9B6909201A60A362FFF7C7
:101170009FFC656A002383F311882046FFF7B0FFC8
:10118000284638BD4012002000000000000000008A
:1011900070B5074C002604F1140554F8040B18B17F
:1011A000FFF7D6FF44F8046CAC42F6D170BD00BF27
:1011B000F41100200000000000000000000000000A
:1011C00083680133002B836000DD704702460368AB
:1011D00010B41968002411604A605C62184610BCA3
:1011E000FFF7C6BC00000000000000000000000087
:1011F00070B5856881600135002D0CDC04466FF008
:10120000010660680135436863601C60FFF7B0FC4D
:10121000012D4662F5D170BD000000000000000005
:1012200008B5202383F31188FFF7E2FFFFF7C8FB1F
:10123000002383F3118808BD0000000000000000B7
:1012400038B52022034682F31188104A9469A06AB7
:1012500004F128058542636206D00368A362FFF7A4
:1012600087FCA06AA842F8D194F8223043B994F8D8
:1012700021309B0704D1226963691A612269536195
:101280000F20BDE83840FFF713BC00BF401200201C
:10129000194B10B4DA6982420FD0026841681C33DE
:1012A0000A60026800249A425160C46003D08368D7
:1012B00091680B44936010BC704718461168002475
:1012C00040F81C1F81424860D46011D08C6892683D
:1012D0004FF0804022448A609B6A416ACB1A9A424E
:1012E000E9D9D21A012A98BF02220A444263E2E7EE
:1012F0004FF08043DC60DEE7401200200000000079
:10130000F0B51C4D4FF080472E4656F81C4F012972
:1013100098BF0221B442C26003617A6A1AD0AB6AF4
:101320001144A268CB1A934238BF7963934204D91F
:1013300024689B1AA2689A42FAD3626804604260E9
:10134000106060608360A2684FF0FF31D31AA36021
:101350006962F0BD01EB020E00260223AA62E86179
:101360002862046044608160C7F834E03E61FB603D
:10137000F0BD00BF4012002000000000000000008F
:1013800030B54B1C87B012D005460C4C01A8A369A0
:101390000B4AFFF7B5FF2846FFF78AFB049B13B102
:1013A00001A8FFF775FFA369586A07B030BDFFF7C2
:1013B0007FFB024CA369586A07B030BD4012002081
:1013C00041040008000000000000000000000000D0
:1013D00003468068421E002A9A6001DB00207047A5
:1013E00010B459B1084A0520926953625C6882E8DA
:1013F000180022605A6010BCFFF7C2BF986010BC92
:101400004FF0FF30704700BF401200200000000086
:1014100061B10246074B10B49B694468042083E81D
:1014200014002360536010BCFFF7AABF4FF0FF30D9
:10143000704700BF401200200000000000000000C4
:101440002DE9F04F994683B004460D461646D0F874
:101450001C80202383F311880027BA464FF0804276
:10146000526A009309EB0203019309F1FF3BA36861
:10147000FBB16269A368511C013B6161A3602B78D9
:1014800001351370236962699A4224BFE36863617E
:10149000B8F1000F01D02046C0478AF31188013E01
:1014A00007F1010717D0009B83F31188A368002B75
:1014B000DFD11BF1030F12D84FF08042516A019A1D
:1014C000511A894505D32046FFF7A2FF0028CED048
:1014D000002383F31188384603B0BDE8F08F4946F6
:1014E0002046FFF795FF0028C1D0F1E7000000007B
:1014F0003030FFF7A5BF00BF000000000000000073
:1015000030304FF0FF33FFF79BBF00BF00000000FB
:10151000F8B504460F461646202383F3118805E0EC
:1015200031462046FFF774FF002817DBA568002D21
:10153000F6D06269A368511C013B6161A36017701A
:10154000236962699A4224BFE3686361E3690BB16E
:1015500020469847002080F31188F8BD85F3118854
:10156000F8BD00BF00000000000000000000000007
:101570003030FFF7CDBF00BF0000000000000000CA
:1015800030304FF0FF32FFF7C3BF00BF0000000054
:101590002DE9F04F994683B004460E461546D0F823
:1015A0001C80202383F311884FF08042526A0093FD
:1015B00009EB02030027019309F1FF3BA36813B372
:1015C000A269A368511C013BA161A360137806F1D5
:1015D000010A33702369A2699A4224BFE368A361B8
:1015E000B8F1000F01D02046C047002383F31188D3
:1015F000013D07F1010718D0009B83F31188A36810
:101600005646002BDCD11BF1030F12D84FF080425D
:10161000516A019A511A894505D32046FFF7F8FE11
:101620000028CBD0002383F31188384603B0BDE8EF
:10163000F08F49462046FFF7EBFE0028BED0F1E7C9
:101640000C30FFF7A5BF00BF000000000000000045
:101650000C304FF0FF33FFF79BBF00BF00000000CE
:1016600070B5202304460E4683F3118805E0314609
:101670002046FFF7CDFE002818DBA568002DF6D028
:10168000A169A36820694A1C013B8242A36028BF6C
:10169000E368A2610D7828BFA361E3690BB120461E
:1016A0009847002383F31188284670BD85F311887D
:1016B00070BD00BF0000000000000000000000003E
:1016C0000C30FFF7CDBF00BF00000000000000009D
:1016D0000C304FF0FF31FFF7C3BF00BF0000000028
:1016E00008B50146202383F311880820FFF748FE40
:1016F000002383F3118808BD0000000000000000F3
:1017000010B5EFF30584C4F308041CB1002383F380
:10171000118810BDFFF754F984F3118810BD00BF84
:10172000EFF30583C3F308031BB9202383F3118868
:101730007047202383F31188704700BF000000002A
:10174000C20710B410D5294A116891423CD0002339
:10175000096801339142FBD14C688C4231D06468F6
:10176000013B9442FBD163BB830712D51F4A144649
:1017700054F81C1FA1422DD0002309680133A14257
:10178000FBD1126A8A421CD05268013BA242FBD1B3
:10179000BBB910F0040012D0144A136993421FD051
:1017A00000201B6901309342FBD15969994208D04E
:1017B000496901389142FBD1003018BF012010BCAB
:1017C0007047012010BC70475468944218BF002332
:1017D000C5D1C9E7126AA24218BF0023D4D1D8E705
:1017E000596900209942E3D1E9E700BF4012002087
:1017F000F0B5134F134D144C144B154907F1700EEF
:1018000000269C4211D91A46043951F8040F42F8B7
:10181000040B9442F9D8DA43144424F0030404344A
:1018200023449D4203D943F8046B9D42FBD877457E
:1018300005D039697B69BC69FD691037E1E7F0BD06
:101840000C6100082C1300202C1300202C13002006
:10185000F874000800000000000000000000000014
:10186000FEE700BF000000000000000000000000D4
:10187000704700BF000000000000000000000000F2
:10188000704700BF000000000000000000000000E2
:10189000064A074B07490020096049601260526000
:1018A000906098601B605B60704700BF6C08002010
:1018B000000800204C08002000000000000000008C
:1018C000044B054A0021126052601B605B60996006
:1018D000704700BF6C0800204C080020000000008A
:1018E000FFF7EEBF00000000000000000000000055
:1018F000024B00221B605B609A6070476C080020FE
:10190000044A054B002112605260916099601B608F
:101910005B6070476C080020000800200000000099
:10192000FFF7E6BF0000000000000000000000001C
:1019300002F006B9000000000000000000000000F6
:1019400002F0FEB8000000000000000000000000EF
:1019500002F0F6B8000000000000000000000000E7
:1019600038B5354C012307202360FEF741FF0223E1
:10197000236004F03DF9A0F10100B0FA80F02F4996
:101980004009FEF76DFE00B138BD04F031F9A0F159
:101990000200B0FA80F029494009FEF761FE0028F4
:1019A000F2D104F025F9A0F10400B0FA80F0234947
:1019B0004009FEF755FE0028E6D104F009F9B0FA17
:1019C00080F01F494009FEF74BFE0028DCD10323BD
:1019D000236001F0DDFB1B4B05469B691A4A9968A1
:1019E0001A48013903F0F4FF194A042323601060F8
:1019F00004F0FEF805F50271044605F5FA7004F0EE
:101A000067FB0028C0D1A4F10100B0FA80F01149B1
:101A10004009FEF725FE0028B6D104F0D9F8B0FA47
:101A200080F007494009FEF71BFE0028ACD1BDE855
:101A30003840FFF7ADBB00BFE41100208C61000807
:101A4000A061000840120020211C0008E80A0020C4
:101A5000F4110020AC61000800000000000000004C
:101A6000FFF796BB0000000000000000000000002F
:101A7000FFF78EBB00000000000000000000000027
:101A8000F8B501231F460F4A0F4E136007250024A7
:101A900025FA04F3DB0704D4013425FA04F3DB0749
:101AA000FAD507FA04F3204625EA030556F8243050
:101AB00098470134002DEBD1BDE8F84003490448B4
:101AC000FEF7A6BDE4110020A4620008C061000872
:101AD000D4610008000000000000000000000000C9
:101AE0002DE9F047364CDFF8E89002208AB02460F8
:101AF000C9F80000202686F31188324B21680AAF0E
:101B000047F8141D99690122002506914FF0FF3115
:101B1000079227600895099185F3118886F311884B
:101B20009A6923680DF1280848F8283D019202902F
:101B300003950491C4F8008085F3118886F3118819
:101B400020682149001B18BF0120FEF789FD20B144
:101B500085F311880AB0BDE8F087824680F31188CA
:101B6000032339462046C9F80030FEF751FE86F3BC
:101B7000118820681449001B18BF0120FEF770FD72
:101B8000054620B18AF311880AB0BDE8F08780F3DA
:101B90001188042341462046C9F80030FEF738FE7C
:101BA00086F3118820680949001BB0FA80F04009CB
:101BB000FEF756FD0028CBD180F31188CAE700BF9D
:101BC0001008002040120020D8610008E4610008DD
:101BD000E4110020000000000000000000000000F0
:101BE00038B5202585F3118800210B48FFF710F840
:101BF0000024FEF7E5FE84F311884FF4FA70FFF736
:101C00006FFD85F3118805482146FFF701F8FEF7BF
:101C1000D7FE84F3118838BD100800201408002076
:101C200010B504464FF4FA70FFF75AFD202383F3F2
:101C3000118801212046FEF7D3FFFEF7C1FE0023E5
:101C400083F3118810BD00BF0000000000000000F9
:101C50004320FEF75DBC00BF000000000000000054
:101C60004220FEF755BC00BF00000000000000004D
:101C70004120FEF74DBC00BF000000000000000046
:101C800010B504464121FEF78BFF20464221FEF7A6
:101C900087FF20464321FEF783FF2046BDE8104022
:101CA0004421FEF77DBF00BF0000000000000000DF
:101CB000F8B5144B144C9B6901259968134A2944C3
:101CC0001348256003F084FE124A0223236010604B
:101CD000042420270026FEF703FF456A87F31188B6
:101CE0002946FEF795FE86F31188E8B2FEF710FC50
:101CF000013CF0D1FFF74CFABDE8F840064907482F
:101D0000FEF786BC40120020E4110020811C000870
:101D1000E80A0020F4110020C0610008F461000806
:101D2000F8B51B4B1B4E9B691B4C9F683046791CBA
:101D300002251A4B1A4A256003F04AFE194D4FF04E
:101D4000030E2860B91C06F5A470174B174AC4F897
:101D500000E003F03DFEF91C154A6860042706F513
:101D60002470144B276003F033FE0523A860236022
:101D700003F0FEFE0623236003F0FAFE0723236030
:101D8000FFF706FABDE8F8400B490C48FEF740BCE7
:101D900040120020E80A0020E4110020FC61000845
:101DA00091230008F411002000620008212400089B
:101DB000C11D000804620008C0610008D461000869
:101DC00038B50546054C2046FFF7EAF82878FEF7B7
:101DD0009FFB2046BDE83840FFF742B800080020CE
:101DE0002DE9F8433F4D404EAB6902279C683F4ABE
:101DF00004F101083E4B41463E48376003F0E8FDE0
:101E00003D4F04F10209494638603C4B3C4A3D488D
:101E100003F0DEFD032378603B483360FFF7C0F832
:101E2000AB693A499868001BB0FA80F04009FEF7A8
:101E300017FC08B1BDE8F88304234FF47A703360CF
:101E4000FFF74EFCAB6931499868C8EB0000B0FA67
:101E500080F04009FEF704FC0028EBD105232C4854
:101E60003360FFF79DF8AB6928499868C8EB00001C
:101E7000B0FA80F04009FEF7F3FB0028DAD1062320
:101E80004FF47A703360FFF72BFCAB691F499868F9
:101E9000C9EB0000B0FA80F04009FEF7E1FB002832
:101EA000C8D107231A483360FEF7DAFFAB69174938
:101EB0009868C8EB0000B0FA80F04009FEF7D0FB4C
:101EC0000028B7D1082310483360FEF7C9FFAB697B
:101ED0000E499868001BB0FA80F0BDE8F84340094D
:101EE000FEF7BEBB40120020E4110020211F0008B5
:101EF000FC610008E80A0020F411002004620008D8
:101F000061230008300C00206C08002008620008E3
:101F10000008002000000000000000000000000099
:101F200010B5064C4FF4FA70FFF7DAFB2046FFF7C6
:101F300037F82046BDE81040FEF792BF6C0800203D
:101F4000F8B5234F234EBA690223946822483360C0
:101F50000325FFF725F8611C204B214A21483560F5
:101F600003F036FD204DA11C2860204B1C4A204860
:101F700003F02EFDE11C68601E4B194A1E4803F059
:101F800027FD211DA8601D4B154A1D4803F020FDAB
:101F9000611D134AE8601B4B1B4803F019FD042325
:101FA00028610D483360FEF75BFFFFF7F1F8BB696E
:101FB00016499868001BB0FA80F04009FEF750FB04
:101FC00000B1F8BD12491348BDE8F840FEF720BB48
:101FD00040120020E41100206C0800202862000854
:101FE00021200008E80A0020F411002020620008E7
:101FF000300C002000620008780D00200462000808
:10200000C00E0020FC6100080810002008620008D3
:10201000C061000824620008000000000000000009
:1020200038B50546054C2046FEF7BAFF2878FEF77E
:102030006FFA2046BDE83840FEF712BF6C0800205A
:10204000264B70B59B69264E9D6801242919254BA6
:10205000254A2648346003F0BBFC254CA91C2060AF
:10206000244B214A244803F0B3FCE91C6060234B55
:102070001D4A234803F0ACFC291DA060214B1A4ADD
:10208000214803F0A5FC691DE060204B164A20485A
:1020900003F09EFC022333602061202383F3118828
:1020A0001C4C2368A34218BF6FF0010509D01A68C1
:1020B000184654602260FEF75BFD23684562A34228
:1020C000F5D1FEF77DFC002383F31188FFF760F85C
:1020D000BDE8704010491148FEF79ABA401200203E
:1020E000E41100202862000821240008E80A0020EA
:1020F000F411002020620008300C0020006200086B
:10210000780D002004620008C00E0020FC61000869
:10211000081000204C080020C0610008246200085C
:10212000284B2DE9F0419B69274E9F68274DDFF82A
:10213000C080791C324628460124254BC8F800404F
:1021400003F046FC234CB91C2060324605F5A47010
:10215000214B03F03DFCF91C6060324605F524700C
:102160001E4B03F035FC391DA060324605F5767034
:102170001B4B03F02DFC791DE060324605F5A46091
:10218000184B03F025FC0223C8F8003020612023FF
:1021900083F3118803F004FD03F002FD03F000FD5A
:1021A00003F0FEFC03F0FCFCFEF70AFC002383F3C3
:1021B0001188FEF7EDFFBDE8F0410B490B48FEF733
:1021C00027BA00BF4012002021240008E80A00209E
:1021D00028620008F4110020206200080062000854
:1021E00004620008FC610008C06100082462000865
:1021F000E4110020000000000000000000000000CA
:102200002DE9F8434D4D4E4CAA6902239668236090
:1022100003F08EFC4B49FEF723FA08B1BDE8F883C2
:102220000323236003F084FC80F00100C0B2464920
:10223000FEF716FA0028F1D1444F042338462360F4
:10224000FEF70EFEB8684249B0FA80F04009FEF78A
:1022500007FA0028E2D138683E49C01BB0FA80F086
:102260004009FEF7FDF90028D8D1AA690523906836
:102270003949801BB0FA80F040092360FEF7F0F97D
:102280000028CBD10623236003F052FC2D49FEF732
:10229000E7F90028C2D103F04BFC80F00100C0B286
:1022A0002949FEF7DDF90028B8D1D5F81880202398
:1022B00083F31188D8F83830EBB181460CE0906B8D
:1022C000116819604B60D8609A6010469363FEF7FE
:1022D0004FFCD8F8383043B11A68D9689342C8F82F
:1022E0003810ECD1C3F80890F3E7D8F83C30C8F8C0
:1022F0000830FEF765FB002383F31188B8681449A2
:10230000B0FA80F04009114FFEF7AAF9002885D1F4
:1023100038681049C71B78427841FEF7A1F90028B8
:102320007FF47CAFAA69072390682360821B504228
:1023300009495041BDE8F843FEF792B94012002028
:10234000E41100202C6200083C6200086C080020A8
:10235000486200085462000808620008000000009B
:1023600010B540F2DC50FFF7BBF9202383F311884E
:10237000064C2046FEF7ACFD2046FEF749FDFEF771
:102380001FFB002383F3118810BD00BF000800204D
:10239000F8B507461C48FEF703FE1C48FEF700FE92
:1023A000202383F311881A4DAB699E6B3046FEF7EC
:1023B0002FFD184AAC6910461346626203E0996823
:1023C000A268914202D31B688342F8D15A68072061
:1023D0002360626014605C60FEF76AFBAB695B6A55
:1023E000013302D03046FEF773FD002383F31188DA
:1023F0003878FEF78DF80548FEF732FDBDE8F84065
:102400000148FEF72DBD00BF000800206C08002029
:10241000401200204C0800200000000000000000D6
:1024200070B506461648FEF7BBFD202383F31188DE
:10243000144B9C69A56B2846FEF7EAFC124A10462D
:102440001346626203E09968A268914202D31B6856
:102450008342F8D15A6807202360626014605C6090
:10246000FEF726FB2846FEF733FD002383F3118891
:102470003078FEF74DF8BDE870400148FEF7F0BC3B
:102480006C080020401200204C08002000000000D2
:102490002DE9F041604F84B001AC012300263B6080
:1024A0000194029403964FF0200888F31188039852
:1024B0005A49B042CCBF00200120FEF7D1F820B12C
:1024C00086F3118804B0BDE8F081054680F31188D9
:1024D0000223014620463B60FEF7A2FE88F31188E6
:1024E00003984E490028CCBF00200120FEF7B8F821
:1024F000064620B185F3118804B0BDE8F08180F371
:102500001188474B03259A6946489168234601394B
:10251000454A3D6003F05CFA444A042310602046BB
:102520003B60FEF7FDFA054688F3118803983B49A6
:102530000028CCBF00200120FEF792F80028BFD170
:1025400080F31188B5FA85F039494009FEF788F81B
:102550000028B7D105233B6088F31188039B002B2B
:1025600023DDFEF72DFA002585F31188202686F35A
:10257000118803982F49A842D4BF00200120FEF7FC
:102580006FF880460028B5D180F3118886F3118852
:1025900003982949A0F10100B0FA80F04009FEF744
:1025A0005FF830B188F311888CE72046FEF708FE0B
:1025B000D7E780F3118806233B6086F31188039BDD
:1025C000002B22DDFEF7FCF9002686F3118820257A
:1025D00085F3118803981949B042D4BF0020012027
:1025E000FEF73EF8044600287FF46AAF80F31188B6
:1025F00085F3118803981049431E58425841FEF74D
:102600002FF830B184F311885CE72046FEF7D8FD3F
:10261000D8E780F3118855E7E411002064620008D0
:1026200040120020E80A0020712B0008F41100205D
:102630007062000884620008906200086862000806
:10264000024B00221B605B609A607047F012002012
:10265000FFF7F6BF000000000000000000000000CF
:10266000FFF7EEBF000000000000000000000000C7
:10267000FFF7E6BF000000000000000000000000BF
:10268000024B01221B605B609A607047F0120020D1
:10269000014B00221A6070478008002000000000F3
:1026A0004FF080431946044A012010605A6A4B6A71
:1026B0009342FCD0704700BFE411002000000000EE
:1026C000074B01221A60202383F3118862B672B689
:1026D00083F3118862B6002383F3118862B67047D2
:1026E000E4110020000000000000000000000000D5
:1026F00038B51E4B01249B691D4D99681D4A214424
:1027000000231D482C6003F063F91C4C1C4A022373
:1027100010602B6003F0D4F920681A49001BB0FA4E
:1027200080F04009FDF79CFF00B138BDA068164954
:10273000B0FA80F04009FDF793FF0028F5D103239C
:102740002B6003F0BDF920680E49001BB0FA80F041
:102750004009FDF785FF0028E7D1A0680A49B0FAD3
:1027600080F0BDE838404009FDF77ABF40120020F4
:10277000E411002091270008E80A0020F012002050
:10278000F411002054620008B0620008000000004C
:1027900010B5044C2046FEF7C3F92046BDE81040B2
:1027A000FEF766B9F01200200000000000000000F3
:1027B000FEF7EEBC0000000000000000000000007A
:1027C00010B504460348FEF7ABF92078BDE8104089
:1027D000FDF79EBEF0120020000000000000000087
:1027E0000078FDF795BE00BF00000000000000006B
:1027F0002DE9F0412A4F2B4EBB692B4C9968DFF82D
:10280000D0803246053120460125284BC8F80050BB
:1028100003F0DEF8BB69264D996832462860013125
:1028200004F5A470234B03F0D3F8BB696860996882
:102830003246033104F524701F4B03F0C9F8BB691D
:10284000A86099683246043104F576701B4B03F09A
:10285000BFF8BB6932469968E860023104F5A460AC
:10286000174B03F0B5F8174C022328612046C8F82F
:102870000030FEF7FDF82046FEF7FAF82046FEF796
:10288000F7F82046FEF7F4F82046FEF7F1F8FEF7D9
:102890007FFCBDE8F0410C490C48FDF7B9BE00BF14
:1028A00040120020C1270008E80A0020FC6100084F
:1028B000F411002004620008006200082062000891
:1028C00028620008F0120020C0610008246200089D
:1028D000E4110020000000000000000000000000E3
:1028E000F8B5544D544EAB6901249968534A544B82
:1028F00005395448346003F06BF8AB69524C996861
:102900004E4A20600439514B514803F061F8AB69DD
:1029100060609968494A4F4B03394F4803F058F8B3
:10292000AB69A0609968454A4C4B02394C4803F0AA
:102930004FF8AB69E0609968404A0139494B4A4811
:1029400003F046F82061FEF723FC48494848FDF7AC
:102950005FFE00B1F8BDAB69384A99680227414B68
:1029600001394148376003F033F8AB692061996859
:10297000324A3A4B02393A4803F02AF8AB69E06030
:1029800099682E4A334B0339334803F021F8AB6979
:10299000A0609968294A2D4B04392D4803F018F896
:1029A000AB6960609968254A0539254B254803F0D5
:1029B0000FF82060FEF7ECFB2C492D48FDF728FEB0
:1029C0000028C7D1AB69032799681C4A1F4B0439FB
:1029D0001F48376002F0FCFFAB6960609968174AD6
:1029E000174B0539174802F0F3FFAB69206099686F
:1029F000124A1C4B01391C4802F0EAFFAB69206106
:102A000099680E4A154B0239154802F0E1FFAB698F
:102A1000E0609968094A0F4B03390F4802F0D8FF6C
:102A2000A060FEF7B5FBBDE8F84010491048FDF77F
:102A3000EFBD00BF40120020E4110020E127000894
:102A400028620008E80A0020F41100202062000833
:102A5000300C002000620008780D0020046200089D
:102A6000C00E0020FC61000808100020C0610008B2
:102A700024620008000000000000000000000000C8
:102A8000F8B5224B224D9B6901249968214A2144C3
:102A9000214B22482C6002F09BFF214B022418603E
:102AA0002C60202383F311881E4D00272E4601E061
:102AB000013C0DD0AB680133002BAB60F8DC306813
:102AC00003685E603360FEF753F8013C4762F1D162
:102AD000FDF776FF84F31188FEF75AFB202383F37A
:102AE0001188A8681049A0F10100B0FA80F04009EF
:102AF000FDF7B6FD10B184F31188F8BD84F3118899
:102B00000A490548BDE8F840FDF782BD40120020A3
:102B1000E4110020C1270008FC610008E80A002039
:102B2000F4110020F0120020C4620008C061000807
:102B300010B52023044683F31188094B186820B18F
:102B4000002242621A60FEF713F8FDF739FF0023F6
:102B500083F311882078BDE81040FDF7D9BC00BF91
:102B600080080020000000000000000000000000BD
:102B700008B5202282F311888368002B05DDFDF75C
:102B80001FFF002383F3118808BDFEF719FBFDF733
:102B900017FF002383F3118808BD00BF0000000069
:102BA00008B54FF4FA70FEF79BFD202383F31188DC
:102BB0000448FEF705FBFDF703FF002383F31188AC
:102BC00008BD00BFF012002000000000000000005F
:102BD00070B52B4E012333604FF080456C6A642042
:102BE000FEF77EFD04F1670104F1640003F070FA62
:102BF00000B170BD022333606C6A4FF47A70FEF747
:102C00006FFD04F2EB3104F57A7003F061FA0028ED
:102C1000EFD1032333606C6A4FF47A70FEF760FDE6
:102C200004F2EB3104F57A7003F052FA0028E0D197
:102C3000042333606C6A42F21070FEF751FD04F514
:102C40001C5108461331103003F042FA0028D0D14D
:102C5000052333606E6A202306F1640483F3118830
:102C6000696A611A02D00820FEF78AFB002383F309
:102C7000118806F167012046BDE8704003F028BACC
:102C8000E41100200000000000000000000000002F
:102C90002DE9F8432B4C2C4E012320463360FDF7E1
:102CA0003FFF2025074685F31188A0682749B0FA21
:102CB00080F04009FDF7D4FC20B1002383F3118894
:102CC000BDE8F88380F31188B7FA87F020494009FE
:102CD000FDF7C6FC074608B1BDE8F8834FF00209CE
:102CE0002046C6F80090FDF7C3FE85F31188A06862
:102CF0001649A0F10100B0FA80F04009FDF7B0FCE0
:102D0000804618B187F31188BDE8F88380F31188F5
:102D10000323494620463360FEF782FA85F3118883
:102D2000A0680A49A0F10200B0FA80F04009FDF75E
:102D300097FC10B980F31188CEE788F31188BDE8BD
:102D4000F88300BFF0120020E4110020D4620008D4
:102D5000E862000800000000000000000000000021
:102D600000210148FEF75CBAF012002000000000CC
:102D70002DE9F041304D314FAB6901249968304A5B
:102D8000304B013930483C6002F022FE2F4B2026A8
:102D9000186086F311882E4CAB6903205C622360B7
:102DA000FDF786FEAA690023D2F8248083F31188F8
:102DB00020682849B0FA80F04009FDF751FC08B1BD
:102DC000BDE8F081B8FA88F023494009FDF748FCD6
:102DD00080460028F4D1FEF7DBF902233B6086F33E
:102DE0001188AB694FF08042556A42F210715C6203
:102DF00003202360FEF7C4FA064688F3118805F520
:102E00001C5108461231103003F062F90028D7D166
:102E100020681049B0FA80F04009FDF721FC002835
:102E2000CED1A6F1FF30B0FA80F0BDE8F041400904
:102E30000949FDF715BC00BF40120020E411002035
:102E4000312B0008FC610008E80A0020F411002082
:102E50008008002000630008E8620008000000000D
:102E60002DE9F0412F4D0222AB69DFF8CC809C6840
:102E7000C8F80020A618671C9E603846FDF7B0FD14
:102E8000001BB0FA80F028494009FDF7E9FB08B1C2
:102E9000BDE8F081AB6925499868801BB0FA80F0E5
:102EA0004009FDF7DDFB0028F2D1AB692049D86B62
:102EB000C01BB0FA80F04009FDF7D2FB0028E7D133
:102EC000E61C03233046C8F80030FDF789FD381AA8
:102ED000B0FA80F014494009FDF7C2FB0028D7D1B1
:102EE000AB6912499868801BB0FA80F04009FDF781
:102EF000B7FB0028CCD1AB690E49D86B801BB0FA68
:102F000080F04009FDF7ACFB0028C1D10423C8F8CC
:102F10000030202383F31188AB699C60DC6380F36D
:102F20001188B5E7401200200C63000830630008E8
:102F30004C63000874630008E411002000000000E6
:102F40002DE9F0411C4E0123B2691C4F94683B608F
:102F5000E5182846FDF744FD8046001BB0FA80F0D6
:102F600017494009FDF77CFB08B1BDE8F081B36962
:102F700014499868401BB0FA80F04009FDF770FBD7
:102F80000028F2D1022340463B60FDF729FD281AB4
:102F9000B0FA80F00A494009FDF762FB0028E4D14D
:102FA000B36908499868001BB0FA80F0BDE8F041A9
:102FB0004009FDF755BB00BF40120020E41100207E
:102FC0000C630008306300080000000000000000EF
:102FD00010B5314C012386B02360EFF311831BB988
:102FE000FEF79EFBFEF78CFB02232360202383F376
:102FF0001188EFF311831BB9FEF792FBFEF780FBFC
:10300000002383F3118803232360EFF3118313B9A3
:10301000202383F31188EFF3118313B9202383F363
:103020001188002383F3118804222260202282F376
:103030001188EFF311820AB183F31188EFF3118342
:1030400013B1002383F31188052200230493226027
:10305000202383F31188049B01AC13B12046FEF7B3
:1030600017F9204600230D4A0121FEF749F90024F3
:1030700084F311880A20FEF733FB202383F31188A1
:10308000049884F31188B0FA80F005494009FDF7EF
:10309000E7FA06B010BD00BFE4110020B13000080F
:1030A0009463000800000000000000000000000021
:1030B00008B5202383F31188002282F3118883F35B
:1030C0001188EFF311831BB9FEF72AFBFEF718FBFB
:1030D000002383F3118808BD0000000000000000F9
:1030E00070B5244D01202860202484F31188FEF758
:1030F00027FB002383F3118880F00100C0B21E4932
:10310000FDF7AEFA00B170BD06460220286084F3D8
:103110001188FEF715FB86F3118880F00100C0B21C
:103120001649FDF79DFA06460028ECD103232B60D3
:1031300084F311880420FEF703FB86F3118880F0E6
:103140000100C0B20E49FDF78BFA06460028DAD11D
:1031500004232B6084F311880820FEF7F1FA86F32C
:103160001188BDE8704080F00100C0B20549FDF74C
:1031700077BA00BFE4110020A8630008C06300080C
:10318000E463000800640008000000000000000084
:1031900008B50120FEF7A4FA202383F311884FF02D
:1031A0008043586A002383F3118808BD00000000A3
:1031B000F8B54A4D01202860202383F31188484C3C
:1031C000A368013B5CBFA3600020002383F3118848
:1031D0004449FDF745FA00B1F8BD20684249001B9B
:1031E000B0FA80F040093E4EFDF73AFA0028F3D1DC
:1031F000B0683E49B0FA80F04009FDF731FA002886
:10320000EAD13B4A0346926902279168394801395D
:10321000394A2F6002F0DCFB384B304F186041F226
:10322000883002F025FC0546FDF7B2FFB5FA85F0BF
:103230002C494009FDF714FA0028CDD130682A49FD
:10324000801BB0FA80F04009FDF70AFA0028C3D1CC
:10325000B0682649B0FA80F04009FDF701FA00286D
:10326000BAD103233B60FFF793FF07464125284669
:10327000FDF74EF94FF4FA7002F0FAFBA0F1FF30BF
:10328000B0FA80F017494009FDF7EAF9164900281D
:10329000A2D12068001BB0FA80F04009FDF7E0F9E8
:1032A0001249002898D1B0680135B0FA80F0400981
:1032B000FDF7D6F9EDB200288ED1462DD7D11049B1
:1032C0001048FDF7A5F9002886D107F6D81107F6B2
:1032D000C410BDE8F84002F0FBBE00BFE4110020BE
:1032E000F01200201864000854620008B062000860
:1032F00040120020E80A0020A12B0008F411002051
:10330000C061000824620008000000000000000006
:10331000034B0022042159601A609A60704700BF75
:10332000180800200000000000000000000000005D
:1033300000207047000000000000000000000000B6
:1033400070B40B4B0B4A042502F11006002403F164
:103350001C0003F110015E605D629C611A60DA601E
:103360009A60D86118621961596170BC704700BFDA
:1033700024080020B8120020000000000000000017
:10338000FFF7DEBF000000000000000000000000AA
:10339000FFF7D6BF000000000000000000000000A2
:1033A00002F076BD000000000000000000000000F8
:1033B000FFF7F6BF00000000000000000000000062
:1033C000FFF7EEBF0000000000000000000000005A
:1033D000F0B5584D012383B02B6042244FF0FF31EC
:1033E000204602F065FDB0FA80F053494009FDF730
:1033F00037F9013488B9462CF0D102230121582035
:103400002B6002F055FDA0F1FF30B0FA80F04A4980
:103410004009FDF725F9044608B103B0F0BD2023AB
:1034200083F31188454E736A002B7DDDB1687068A7
:103430000A1D013B824273624FF0580728BF336870
:10344000B2603F480F6028BFB360FDF7B9FE0023AC
:1034500083F3118838492046FDF702F90028DCD1B2
:103460000121582002F04CFDA0F1FF30B0FA80F0AD
:1034700031494009FDF7F4F804460028CDD1202356
:1034800083F31188716A2D4A00294FDDD3681068D3
:10349000043B013983425162D36002D25368043B3A
:1034A000D36058221A602648FDF78AFE002383F372
:1034B000118821492046FDF7D3F80028ADD1032318
:1034C0002B6002F0E5FC042301210DEB03002B60CF
:1034D00002F046FDA0F1FF30B0FA80F01649400935
:1034E000FDF7BEF80446002897D1202383F3118806
:1034F000B269124B002A1BDD511EDA6899615968C6
:10350000106804328A42DA6028BF1A6801900D48B8
:1035100028BFDA60FDF754FE002383F311880649C3
:103520002046FDF79DF878E7012490E70124BDE7E8
:103530000124F1E7E41100201864000824080020A9
:1035400034080020400800200000000000000000B7
:103550002DE9F04F994F012383B03B60202686F37D
:103560001188974D9749686AA0F10400B0FA80F07D
:103570004009FDF775F828B1002383F3118803B0E3
:10358000BDE8F08F044680F3118802233B6002F00F
:103590007FFC86F31188686A8B49A0F10400B0FAB9
:1035A00080F04009FDF75CF8804620B184F3118873
:1035B00003B0BDE8F08F80F3118886F31188A86905
:1035C0008249B0FA80F04009FDF74AF8044610B18C
:1035D00088F31188D3E780F3118886F3118828686F
:1035E000AB687B49C01AB0FA80F04009FDF738F8A3
:1035F00080460028DAD180F3118886F31188286884
:10360000EB687449C01AB0FA80F04009FDF728F859
:103610000028DDD180F3118803233B6042244FF062
:10362000FF31204602F044FCB0FA80F06A494009BC
:10363000FDF716F801340028A1D1452CEFD14FF049
:10364000FF31412002F05CFCB0FA80F06249400991
:10365000FDF706F80646002891D104243C60DFF807
:103660005C914FF0200A8AF31188686A5B49B0FACE
:1036700080F04009FCF7F4FFDFF84481834610B185
:1036800086F311887BE780F311888AF31188D8F8D4
:1036900018005349A0F1040CDCF1000040EB0C00D1
:1036A000FCF7DEFF064610B18BF3118867E780F365
:1036B00011888AF31188D8F80C00D8F808304949E5
:1036C000C3EB000EDEF1000040EB0E00FCF7C8FF7C
:1036D0000028D5D180F311880523C9F800304FF0B8
:1036E000FF3101A802F03CFCB0FA80F03A494009F1
:1036F000FCF7B6FF00287FF442AF9DF80400FCF70A
:1037000007FF013CEBD138493848FCF781FF00281E
:103710007FF435AF06234FF0FF3146203B6002F0C7
:10372000C7FBB0FA80F02C494009244EFCF798FF03
:1037300000287FF424AF4FF0FF3101A802F010FC05
:10374000B0FA80F024494009FCF78AFF00287FF492
:1037500016AF07233360202686F31188686A1A495A
:10376000051F68426841164DFCF77AFF00287FF478
:103770001DAF84F3118886F31188A8691349B0FA44
:1037800080F04009FCF76CFF00287FF40FAF84F352
:1037900011882868AB680E49C21A50425041FCF7A4
:1037A0005FFF00287FF4EBAE2868EB680949C31A75
:1037B00058425841FCF754FFE1E600BFE4110020F5
:1037C00024080020306400083C64000848640008B5
:1037D0005464000878640008186400089C640008B9
:1037E000A8640008B4640008CC640008F461000810
:1037F0002DE9F04FBA4F012383B03B60202585F3BC
:103800001188B84EB849706AA0F10400B0FA80F08F
:103810004009FCF725FF28B1002383F3118803B08A
:10382000BDE8F08F044680F3118802233B6085F3E6
:10383000118802F015FB84F3118885F31188706AF2
:10384000AA49A0F10400B0FA80F04009FCF708FF93
:10385000804620B184F3118803B0BDE8F08F80F377
:10386000118885F31188B069A149B0FA80F0400948
:10387000FCF7F6FE044610B188F31188CFE780F319
:10388000118885F311883068B3689A49C01AB0FA74
:1038900080F04009FCF7E4FE80460028DAD180F38E
:1038A000118885F311883068F3689349C01AB0FA1B
:1038B00080F04009FCF7D4FE0028DDD180F31188A8
:1038C0008046344603233B604225202383F311883E
:1038D000736A8A48002B03F1FF3E61DDA2686168CC
:1038E000131D8B42A36028BF2368C4F824E0156031
:1038F00028BFA360FDF764FC012088F3118880498C
:10390000FCF7AEFE0135002889D1452DDDD12023FD
:1039100083F31188716A734A002910DDD368106837
:10392000043B013983425162D36002D25368043BA5
:10393000D360412271481A60FDF742FC0120002348
:1039400083F311886E49FCF78BFE804600287FF4D4
:1039500066AF04253D60DFF888914FF0200A8AF3B6
:103960001188706A6749B0FA80F04009FCF778FE68
:103970005C4C834600287FF47FAF80F311888AF384
:103980001188A0696049A0F1040CDCF1000040EB53
:103990000C00FCF765FE804620B18BF311883EE7F2
:1039A0000020AAE780F311888AF31188E068A368F1
:1039B0005649C3EB000EDEF1000040EB0E00FCF7B1
:1039C0004FFE00287FF458AF80F31188052380460E
:1039D000C9F800301DE0E1686368A2610A6804313B
:1039E000994228BF2368E160019228BFE360FDF798
:1039F000E7FB002088F3118841490130FCF730FED5
:103A000000287FF40CAF9DF80400FCF781FD013D18
:103A10000BD0202383F31188B3693D48002B03F1B9
:103A2000FF32D8DC4FF0FF30E4E73A493A48FCF780
:103A3000EFFD00287FF4F3AE06234FF0FF31462060
:103A40003B6002F035FAB0FA80F02D494009244C71
:103A5000FCF706FE00287FF4E2AE4FF0FF3101A82C
:103A600002F07EFAB0FA80F025494009FCF7F8FD33
:103A700000287FF4D4AE07232360202787F3118822
:103A8000706A1A49041F60426041164CFCF7E8FD59
:103A900010B185F31188C2E685F3118887F3118888
:103AA000A0691349B0FA80F04009FCF7D9FD00285D
:103AB000EFD185F311882068A3680E49C21A5042DD
:103AC0005041FCF7CDFD00287FF4A9AE2068E368E3
:103AD0000949C31A58425841FCF7C2FD9FE600BF8E
:103AE000E411002024080020306400083C64000831
:103AF0004864000854640008786400083408002012
:103B0000186400089C640008A8640008B4640008F5
:103B100040080020CC640008F461000800000000A8
:103B200008B502F055F8024A024B12601B6008BD4E
:103B30001008002014080020000000000000000011
:103B400002F046B800000000000000000000000085
:103B5000FFF7F6BF000000000000000000000000BA
:103B60002DE9F04F3C4D01248BB02C60202282F3D4
:103B70001188DFF80481394FD8F800300AAEB969EE
:103B800046F8143D4FF0FF30002307940691C8F823
:103B900000600893099083F3118882F31188DFF89D
:103BA000DC900AACD9F80010BA694FF0040A44F866
:103BB000281D039304900192C9F80040CDF808A095
:103BC00083F3118802232B60FFF7E2FABA69834678
:103BD0009168234B0139234A234801F0F9FE234A17
:103BE000032310602B6002F03BF80BF502710BF51C
:103BF000FA7002F06DFA10B10BB0BDE8F08F01F071
:103C0000E7FFB0FA80F01A494009FCF729FD0028C7
:103C1000F2D1FDF7BDFA31464046C5F800A0FCF7E9
:103C2000F7FD21464846FCF7F3FDD8F8000011499E
:103C3000C8EB0000B0FA80F04009FCF711FD002845
:103C4000DAD1D9F800000B49C9EB0000B0FA80F0D6
:103C50004009FCF705FDCFE7E411002040120020E9
:103C6000FC610008E11B0008E80A0020F4110020B4
:103C7000A0610008E461000810080020140800207A
:103C800070B5574D574C01202860A269202383F35B
:103C90001188536B33B983F311885349FCF7E0FC67
:103CA00080B170BD5842184023EA000353630023DB
:103CB00083F31188B0FA80F04B494009FCF7D0FC3F
:103CC0000028EED1A369202282F311885A6B002AC2
:103CD00072D0586380F311884349FCF7C1FC002877
:103CE000DFD1A369202282F311885A6B013267D099
:103CF00080F3118801203C49FCF7B2FC0028D0D1A8
:103D000002232B60A669202383F31188756B55B9B4
:103D10004FF0FF3373624FF4FA710A20FDF730FB66
:103D2000002851DB756B6842284025EA0005756361
:103D3000002383F31188B0FA80F040092A49FCF788
:103D40008FFC0028ADD1A669202383F31188756B01
:103D500055B94FF0FF3373624FF4FA710A20FDF743
:103D60000FFB002834DB756B0023736383F311882A
:103D7000B5FA85F040091C49FCF772FC054600289D
:103D80008FD1A469202383F31188636B013309D099
:103D90004FF0FF3363624FF4FA710B20FDF7F0FA36
:103DA000002819DB0023636383F311882846BDE8EC
:103DB00070400D49FCF754BC80F3118801208BE75B
:103DC000586380F3118896E785F311880120B5E7E1
:103DD00085F311880120CEE785F311880125E5E7F9
:103DE000E411002040120020E06400080000000000
:103DF00038B52B4C012305202360FCF7F9FC022386
:103E0000236001F02DFFA0F10500B0FA80F02549F4
:103E10004009FCF725FC00B138BD01F0D9FEB0FA2D
:103E200080F021494009FCF71BFC0028F4D1032352
:103E300004202360FCF7DCFC04232360FFF7A8F9CF
:103E40001A4B05469B691A4A99681A48013901F0CC
:103E5000BFFD194A05232360106001F001FF05F53D
:103E60000271044605F5FA7002F032F90028D3D148
:103E7000A4F10500B0FA80F010494009FCF7F0FB0E
:103E80000028C9D101F0A4FEB0FA80F0064940092B
:103E9000FCF7E6FB0028BFD1BDE83840FDF778B954
:103EA000E4110020F0640008A06100084012002026
:103EB000211C0008E80A0020F41100200865000811
:103EC00038B5294C012305202360FCF791FC02231F
:103ED000236001F0ADFEA0F10500B0FA80F02349A7
:103EE0004009FCF7BDFB00B138BD01F071FEB0FA2E
:103EF00080F01F494009FCF7B3FB0028F4D10323ED
:103F00002360FFF745F91B4B05469B691A4A9968E0
:103F10001A48013901F05CFD194A0423236010603E
:103F200001F086FE05F50271044605F5FA7002F00F
:103F3000CFF80028D8D1A4F10100B0FA80F01149DF
:103F40004009FCF78DFB0028CED101F041FEB0FA0C
:103F500080F007494009FCF783FB0028C4D1BDE885
:103F60003840FDF715B900BFE4110020F0640008E7
:103F7000A061000840120020211C0008E80A00206F
:103F8000F4110020AC6100080000000000000000F7
:103F9000024B00221B605B609A607047740900202E
:103FA000024B01221B605B609A607047E8110020A1
:103FB000024B00221B605B609A607047E811002092
:103FC0004FF480452E4608B5074B084A9B69084CBC
:103FD0009A61268341F28830FDF782FB658341F2C6
:103FE0008830FDF77DFBF4E740120020CC69000823
:103FF000000C024000000000000000000000000073
:1040000070B5334D334C012333482B60FCF7B8FABD
:104010007820FCF7CDFA2046FCF792FA02232F48CD
:104020002B60FCF7ADFA4420FCF7C2FA2046FCF7FF
:1040300087FA03232A482B60FCF7A2FA1420FCF726
:10404000B7FA2046FCF77CFA042626482E60FCF7D7
:1040500097FA0C20FCF7ACFA2046FCF771FA05231E
:1040600021482B60FCF78CFA1020FCF7A1FA2046BF
:10407000FCF766FA06231D482B60FCF781FA08203E
:10408000FCF796FA2046FCF75BFA072318482B60EA
:10409000FCF776FA3046FCF78BFA2046FCF750FA2C
:1040A000082314482B60FCF76BFA1420FCF780FA05
:1040B0002046FCF745FA09230F482B60FCF760FA0D
:1040C0002820FCF775FA2046BDE87040FCF738BAA6
:1040D000E4110020E4690008D4690008EC690008D4
:1040E000FC6900080C6A00081C6A00082C6A0008B9
:1040F0003C6A00084C6A00085C6A00080000000086
:104100002DE9F041DFF878800123C8F80030FFF78F
:104110003FF842F20F77064600244FF080451548DD
:10412000FCF73EFF1348FCF79BFE1248FCF738FFF4
:104130001048FCF795FE0F48FCF732FF0D48FCF7DE
:104140008FFE0C48FCF72CFF0A48FCF789FE6B6ACF
:1041500001349B1BBB42E2D902230748C8F8003058
:10416000FCF70EFAA000FCF723FABDE8F041034883
:10417000FCF7E6B9740900206C6A00087C6A000844
:10418000E41100200000000000000000000000001A
:104190002DE9F041DFF878800123C8F80030FEF700
:1041A000F7FF42F20F77064600244FF0804515488E
:1041B000FCF7B6FC1348FCF75BFC1248FCF7B0FCBC
:1041C0001048FCF755FC0F48FCF7AAFC0D48FCF71B
:1041D0004FFC0C48FCF7A4FC0A48FCF749FC6B6A4E
:1041E00001349B1BBB42E2D902230748C8F80030C8
:1041F000FCF7C6F9A000FCF7DBF9BDE8F041034885
:10420000FCF79EB9E81100206C6A00088C6A00086F
:10421000E411002000000000000000000000000089
:104220002DE9F041DFF884800123C8F80030FEF763
:10423000AFFF002427460646202585F3118800237A
:10424000154A01211548FDF75BF80023124A42F296
:1042500010711348FDF754F81048FDF719F810488D
:10426000FDF716F887F3118842F20F724FF0804382
:104270005B6A01349B1B9342DFD902230948C8F8CB
:104280000030FCF77DF96000FCF792F9BDE8F041E1
:104290000548FCF755B900BF914D000850110020AA
:1042A000840900206C6A00089C6A0008E411002060
:1042B0002E4B2DE9F04F9B6901249968DFF8C4B0BB
:1042C000214483B000232A4A2A48CBF8004001F059
:1042D0007FFB294A022304461060CBF80030FEF72A
:1042E00057FF0025AA4681464FF020084FF080472F
:1042F000202688F3118800212046FCF789FB204600
:104300000021FCF785FB20460021FCF781FB2046BD
:104310000021FCF77DFB00228AF3118842F20F7125
:104320007B6A0435C9EB03038B42E1D90323019275
:10433000CBF8003086F311884FF0FF312046FCF7B0
:1043400067FB019A82F31188FCF722FF04230B48D4
:10435000CBF80030FCF714F96800FCF729F908489D
:1043600003B0BDE8F04FFCF7EBB800BF40120020EF
:10437000B14E0008E80A0020F41100206C6A000821
:10438000A86A0008E41100200000000000000000FE
:104390002DE9F043DFF8D48083B0DFF8D49002AC8D
:1043A0000022012344F8042DC9F80030FEF7F0FE86
:1043B000D8F81830284F294E99683A4623460139D3
:1043C000304601F005FBD8F81830254D99683A467B
:1043D00028602346013906F5A47001F0F9FAD8F8EF
:1043E0001830686099683A462346013906F524700A
:1043F00001F0EEFAD8F81830A86099683A462346DA
:10440000013906F5767001F0E3FAD8F818303A462B
:104410009968E8600139234606F5A46001F0D8FAEE
:104420000223286142F21070C9F80030FDF758F9F4
:10443000FCF74EF8FCF7ACFE03230A48C9F800303D
:10444000FCF79EF80198FCF7B3F80748FCF778F8FA
:1044500003B0BDE8F08300BF514E0008E80A002019
:10446000F41100206C6A0008A86A000840120020BD
:10447000E411002000000000000000000000000027
:10448000F8B5324D324FAB6901249968314A0023A7
:10449000053131483C6001F09BFAAB692F4C9968BB
:1044A0002C4A2060043100232D4801F091FAAB69B9
:1044B00060609968274A002303312A4801F088FA8E
:1044C000AB69A0609968234A00230231264801F0B5
:1044D0007FFAAB69E06099681E4A002301312348E6
:1044E00001F076FA022320613B60FEF751FE06469A
:1044F00000244FF0804500211D48FCF791FE42F258
:104500000F726B6A01349B1B9342F4D903233B6007
:10451000FBF7DEFF00211648FCF782FEFCF738FEB1
:10452000042314483B60FCF72BF82046FCF740F8C6
:104530001148FCF725F804EB44004000FCF738F87C
:10454000BDE8F8400D48FBF7FBBF00BF401200205C
:10455000E4110020814E0008E80A0020F411002038
:10456000300C0020780D0020C00E00200810002024
:10457000E81100206C6A0008B46A0008A86A000804
:10458000F8B5144B144E9A690123956833601D44A5
:10459000FEF7FEFD074600240023104A2946104876
:1045A00001F016FAFCF79CFD42F20F724FF08043C7
:1045B0005B6A0134DB1B9342EED902230948336066
:1045C000FBF7DEFF2046FBF7F3FFBDE8F8400648A7
:1045D000FBF7B6BF40120020E4110020B1590008DB
:1045E000E80A00206C6A0008C86A000800000000A1
:1045F000F8B5144B144E9A69012395683360FEF7A1
:10460000C7FD0746013D00240023104A29461048F3
:1046100001F0DEF9FCF79CFD42F20F724FF080438F
:104620005B6A0134DB1B9342EED9022309483360F5
:10463000FBF7A6FF2046FBF7BBFFBDE8F8400648A6
:10464000FBF77EBF40120020E4110020B1590008A2
:10465000E80A00206C6A0008C86A00080000000030
:10466000BC4B4FF0FF31002218692DE980481961D9
:104670001A61586959615A61186AB74C60F08050E4
:1046800018621A62586A59625A62196C8BB041F00A
:1046900080511964216841F480712160196F01F41F
:1046A0004071B1F5007F03D04FF4803119671A676C
:1046B000A94AA84E53684FF6FF7023F40073536065
:1046C000336B40F6FF7A6FEA53236FEA4323336379
:1046D000356DA2496FEA55256FEA452500243565F9
:1046E0009F4F6FF4A8454C60DFF8C8C28D60DFF8BB
:1046F000C8929C4DCF6007F58137486107F5D677A2
:10470000C1F820C0C1F824900D60DFF8B0924FF4DA
:10471000107179604FF0FF31B960DFF8A4C2C7F8BB
:104720000C904FF080697861C7F820904FF04009F5
:10473000C7F82490C7F800C00CF1AA4C05F1AB559E
:10474000ACF5430C05F5AF35ACF62C3C6C60A960BC
:10475000C5F80CC04FF0C04C6861834FC5F820C04D
:10476000DFF860C26F62814FC5F800C0804DDFF88E
:1047700058C27C60B960FD607E4DC7F814A0DFF8B8
:104780004CA23C627C62C7F800C0DFF844C26C6097
:1047900007F58057A960DFF8E481EC6068612C625E
:1047A0006C62C5F8009005F58055CAF804404FF0DA
:1047B000100BCAF80810CAF80C40CAF81400CAF85E
:1047C0002040CAF82440CAF80040CCF80440CCF895
:1047D0000810CCF80C40CCF81400CCF82040CCF8F1
:1047E0002440CCF800407C60B960FC6078613C6299
:1047F0007C623C606C60A960EC6068612C626C62F9
:104800002C605D4DC8F81440C8F838B0306C48F8DA
:10481000045B5A4D41F26F7E2B46DFF8B8C140F081
:1048200001003064DCF80800AC62C5F804801D6546
:10483000ED6274351D64524F524D40F00100DF644B
:104840005D6703F10C08CCF808004FF0804003F1DD
:10485000540C4D4DC0F828E04C4FC16203F1640E7A
:10486000C3F80C808461C3F81080C3F818C04FF0FF
:104870000108C3F824C0C3F820C003F1300CC3F80A
:104880001CE0C3F83CE0C3F848E0C3F844E0C3F8D8
:1048900030C0C3F834C04FF0800A83F80880446306
:1048A000C4604460C0F81480C0F800804FF08050AD
:1048B00087F81CA30022C7F8800100233860049108
:1048C00069620DEB0B0005F11C012D606D60CDE9F7
:1048D0000823E9612962AC60AC626C6705940694B8
:1048E00007942D616D6101F06BF80DEB0B00FBF788
:1048F000A7FF4FF6FF0E264B2649274A1960274986
:10490000C5F838A01160264A264927481160274A71
:10491000D5F814C0D168A86401EA0E0E244806999F
:10492000C5F86CA0696703EB0B0A05F130014EEA8C
:104930000000DFF8A4E085F851406C6685F85280ED
:10494000AC669C61C5F844C0C3F810A0C3F814A0BD
:104950002D6443E000380240007000400000024037
:104960005400014000AAA02A00060600000C0240E4
:1049700055505500001002404066000868110020A4
:10498000D1020008004400404012002000E100E095
:1049900000130020010400087009002030130020DB
:1049A00064110020000002208865000800ED00E08E
:1049B0000003FA050000565500AA0A001545515596
:1049C00080200800018020020001005500140240F0
:1049D00000180240002004E0F0ED00E0CCF81010D8
:1049E000D060DEF80C009C6040F08070CEF80C00C7
:1049F000344805F1580EDC6085F8508005F15C0301
:104A00006961A961EC64C5F858E0EB652B66036841
:104A1000202543EA0803036082F81FB082F8225081
:104A200084F3118862B685F311882748FBF760FF8D
:104A30002146FBF7EDFF84F3118885F31188234BA2
:104A40001B7A43450AD1336CC02243F400333364EC
:104A500087F82623C7F88491C7F804901B4B5A6F38
:104A60001B4B9A4200F0538103F580639A4200F099
:104A70004E8140F20D33936042F22C10402101230D
:104A8000002511615361D0601560106852680F4AAB
:104A9000FF21022382F87810137285F31188042015
:104AA00001F0AEFA0B4C082001F0AAFA2B460A4A94
:104AB00080210A4800F08CFFA146094EDFF824A0AF
:104AC00016E000BF001000E08469000868110020B3
:104AD0000010014098090020C13F0008A0090020F3
:104AE00008120020EC12002041F28830FCF7F8FD9B
:104AF000894B1B69DB07F7D5884B89482360FBF797
:104B00001FFD8848FBF71CFD874D8848FBF718FD03
:104B10002A21206803689B68984715F8011F00291F
:104B2000F7D18348834DFBF70BFD2A2120680368EA
:104B30009B68984715F8011F0029F7D17E487F4DE3
:104B4000FBF7FEFC2A21206803689B68984715F84C
:104B5000011F0029F7D17A480191FBF7F1FC704859
:104B6000FBF7EEFC774B0199DFF810821970764B5A
:104B70000393764B0293764B019A00270132019200
:104B8000002B00F09B80734DFBF782FD2D212068E8
:104B900003689B68984715F8011F0029F7D1019811
:104BA000FBF706FDD9F800002E2103687D1C9B68E9
:104BB0009847DFF8CCB12846FBF7FAFC20212068A3
:104BC00003689B6898471BF8011F0029F7D158F824
:104BD0002730D3F800B09BF8001039B12068036883
:104BE0009B6898471BF8011F0029F7D15A48FBF72B
:104BF000A7FC4FF4FA60FCF773FD58F827B0574B49
:104C0000DBF80420002133608AF8001002B19047DD
:104C1000DBF80C209047DBF8083003B198479AF88E
:104C20000030002B55D0DFF85CB12D2120680368DF
:104C30009B6898471BF8011F0029F7D1484BDFF804
:104C400048B11868FBF7B4FC2021206803689B6812
:104C500098471BF8011F0029F7D133683F4A934258
:104C600009D9934620681BF8011B03689B68984785
:104C700033689B45F6D3DFF814B15D2120680368E3
:104C80009B6898471BF8011F0029F7D1354BD3F8D3
:104C900000B09BF8001039B1206803689B68984702
:104CA0001BF8011F0029F7D12F48FBF749FC08EB3F
:104CB00087035B682F46002B7FF465AF029961B1D3
:104CC000039A0B688846114651F8042F029203910B
:104CD00052E72648FBF734FCE9E7FBF7D9FC244D03
:104CE0000F48FBF72DFC4621206803689B68984716
:104CF00015F8011F0029F7D1124B1B781BB91D486D
:104D0000FBF71EFCF0E61C48FBF71AFCECE640F251
:104D10001A639360B0E600BF0000024068110020F3
:104D2000C46A0008546B0008D46A0008706B00085D
:104D3000946B0008E86A0008AC6B0008FC6A000885
:104D4000C86B0008ED120020E46800086C670008DA
:104D500074690008106B0008F46B000884080020D8
:104D6000E4110020E8120020746B0008786B000842
:104D7000446B0008846B00088C6B000858670008BF
:104D8000206B0008246B00083C6B0008406B000897
:104D9000704700BF0000000000000000000000009D
:104DA000034B00224FF4A47159601A609A60704757
:104DB00020130020000000000000000000000000A0
:104DC000084910B40022CC24074B81E8140003F1F9
:104DD0001000DA609960186158611A609A6110BC1D
:104DE000704700BFE80A0020C81200200000000041
:104DF000084910B40022CC24074B81E8140003F1C9
:104E00001000DA609960186158611A609A6110BCEC
:104E1000704700BFE80A00202012002000000000B8
:104E2000044B002204211B605B601961DA605A6147
:104E30009A60704754080020000000000000000045
:104E4000FFF7EEBF000000000000000000000000BF
:104E500038B50446084DFBF71BFDFBF719FDFBF7C2
:104E600017FDFBF715FD2368AA690433236092F848
:104E700021305B07EFD538BD401200200000000054
:104E800010B5074CA36993F821305A0707D4054899
:104E9000FBF746FEA36993F821305B07F7D510BDF9
:104EA00040120020E8110020000000000000000077
:104EB000074A10B52023946983F311880320FBF778
:104EC000F7FD636A002BF9D0002383F3118810BD2E
:104ED0004012002000000000000000000000000060
:104EE0002DE9F0410546FEF753F942F20F780746E7
:104EF00000244FF0804601212846FBF751FE736ADB
:104F00000134DB1B4345F6D928460021FBF748FE58
:104F10002046BDE8F08100BF000000000000000056
:104F20002DE9F0412B4E2C4DB3692C4F9968284642
:104F30000131012400232A4A3C6000F049FDB36995
:104F4000284CDFF8B08099684FF0020E206042468E
:104F5000023905F5A4700023C7F800E000F038FD21
:104F6000B369606099684246033905F524700023EF
:104F700000F02EFDB369A06099684246043905F53A
:104F80007670002300F024FDB36942469968E06022
:104F9000053905F5A460002300F01AFD0323206104
:104FA00020683B60FFF79CFF0446FCF7F1F8042300
:104FB0000D483B60FBF7E4FA2046FBF7F9FA0B4893
:104FC000FBF7DEFA6000FBF7F3FABDE8F0410848B2
:104FD000FBF7B6BA40120020E80A0020E4110020D6
:104FE00001510008F41100206C6A0008BC7200082E
:104FF000A86A0008B1590008000000000000000085
:1050000038B5144B144C9B6901259968134A2944FF
:1050100000231348256000F0DBFC124A02231060D5
:105020002360FFF75DFF0546FCF7B2F803230E4847
:105030002360FBF7A5FA2846FBF7BAFA0B48FBF703
:105040009FFA6800FBF7B4FABDE838400848FBF760
:1050500077BA00BF40120020E4110020015100087F
:10506000E80A0020F41100206C6A0008BC720008F5
:10507000A86A000800000000000000000000000016
:1050800038B5144B144C9B6901259968134A0139B2
:1050900000231348256000F09BFC124A0223106095
:1050A0002360FFF71DFF0546FCF772F803230E4847
:1050B0002360FBF765FA2846FBF77AFA0B48FBF703
:1050C0005FFA6800FBF774FABDE838400848FBF760
:1050D00037BA00BF40120020E4110020015100083F
:1050E000E80A0020F41100206C6A0008BC72000875
:1050F000A86A000800000000000000000000000096
:1051000070B520260025FBF7EBFC446A86F3118876
:105110002146FBF77DFC85F31188002CF3D170BD8F
:105120002DE9F041394E0122394B3A4C32602025AD
:105130000422002085F3118821682360196080F320
:1051400011886168013A0B44F4D1022333600425CD
:105150003048FBF735FB003018BF01202E49FBF724
:105160007FFA00283DD1013DF2D103232948336065
:10517000FBF726FBB0FA80F028494009DFF88C8065
:10518000FBF76EFA68BB224B042203F11007C8F844
:105190000020202080F311882268236043F8042B2C
:1051A00085F31188BB42F5D1052333600424194DE2
:1051B0002846FBF705FB003018BF01201649FBF716
:1051C0004FFA70B9013CF2D1062328463360FBF751
:1051D000F7FAB0FA80F0114940090C4EFBF740FA9B
:1051E00008B1BDE8F0810E49072204232846A960D2
:1051F0002C6032606B60FBF7E3FABDE8F041B0FA77
:1052000080F008494009FBF72BBA00BFE4110020E9
:105210000C12002018080020C8720008D472000880
:1052200031330008E47200080000000000000000B4
:10523000F8B53E4D3E4B01203E4A3F49286003F100
:105240000C072026002486F31188086810600A6085
:1052500084F311889F4202D053F8042FF3E7374AB2
:105260000323916936488E68364A711E2B6000F020
:10527000C7FD354CB11E2060344A354800F0C0FDF2
:10528000F11E6060334A344800F0BAFD311FA0605F
:10529000324A334800F0B4FD324AE060711F3248B0
:1052A00000F0AEFD2368042220612A60002B3BD071
:1052B000606828B1A06818B1E068003018BF01200C
:1052C0002A49FBF7CDF900B1F8BD20692849B0FAA9
:1052D00080F04009FBF7C4F90028F5D105232B60C5
:1052E000FBF756FF23492448104CFBF791F900289F
:1052F000EAD10623236004240F48FBF761FA00304B
:1053000018BF01201D49FBF7ABF90028DCD1013C97
:10531000F2D10948FBF754FABDE8F840B0FA80F042
:1053200017494009FBF79CB91846C9E7E41100206A
:10533000A8720008E80A0020201300204012002074
:1053400000730008FC610008F411002004620008EA
:10535000087300080062000810730008206200084B
:1053600018730008286200082073000828730008DA
:1053700040730008C0610008F46100085C73000815
:105380006C73000800000000000000000000000036
:10539000FDF726BA00000000000000000000000039
:1053A000F0B5404B85B09D693F4C022303A902AA8A
:1053B0003E48AE682360FBF703FE0546A0F10100FE
:1053C000B0FA80F03A494009FBF74AF908B105B054
:1053D000F0BD0327374B3849721E4FF4A470276085
:1053E00000F0DEFC0346354F003018BF0120344981
:1053F0003B60FBF735F90028E9D14FF0040E314B43
:105400003149B21E4FF4A470C4F800E000F0C8FCAB
:105410000346003018BF012029497B60FBF720F9C3
:105420000028D4D1F21E294B052629492948266097
:1054300000F0B6FC0346B0FA80F02749F040BB60AC
:10544000FBF70EF90028C2D106232360FBF7A0FE6C
:1054500022492348FBF7DCF80028B8D1072301A92B
:105460006A4612482360FBF7ABFD281AB0FA80F0B9
:105470001C494009FBF7F4F80028A8D10398019BC8
:105480001949C21A50425041FBF7EAF800289ED150
:105490000298009B1549C31A58425841FBF7E0F89F
:1054A00095E700BF40120020E4110020C812002040
:1054B00080730008FC61000800730008F4110020EC
:1054C00028730008046200080873000800620008DE
:1054D00010730008C800020040730008C061000893
:1054E0009073000894730008AC730008C873000838
:1054F00070B5154C82B001236A4601A900202360D3
:10550000FBF75EFD1021114800F0CAFB0646003093
:1055100018BF01200E49FBF7A3F808B102B070BD17
:1055200005463046FBF784FD022328466FF0FF0155
:10553000236000F0B5FBB0FA80F006494009FBF7A4
:105540008FF802B070BD00BFE411002020120020CF
:10555000E8730008FC730008000000000000000071
:105560002DE9F041BE4C84B0012369460022BD48BC
:105570002360FBF725FDA0F10100B0FA80F0BA49E5
:105580004009FBF76DF810B104B0BDE8F0810223CB
:105590004FF44D61B348236000F082FBB0FA80F015
:1055A000B2494009FBF75CF80028EDD10323102134
:1055B000AC48236000F074FB0546003018BF0120A2
:1055C000AB49FBF74DF80028DED12846FBF730FD4C
:1055D000042302A903AAA3482360FBF7F1FC0346B6
:1055E000A0F10100B0FA80F0A24940090193FBF755
:1055F00037F80028C8D102989F490F2894BF00208F
:105600000120FBF72DF80028BED10298039B9A4990
:10561000C01AB0FA80F04009FBF722F805460028CE
:10562000B2D1052310218F48236000F039FB1021EF
:1056300080468C4800F034FB10210746894800F072
:105640002FFB06464046FBF7F3FC3846FBF7F0FC21
:105650003046FBF7EDFC2A4601A98248FBF7B0FC77
:10566000421E504280495041FAF7FAFF0546002891
:105670008AD1062310217B48236000F011FB102102
:105680000646784800F00CFB07461021754800F0EC
:1056900007FBFBF7CDFC3846FBF7CAFC3046FBF7AF
:1056A000C7FC2A4601A96F48FBF78AFC431E5842F3
:1056B0006D495841FAF7D4FF054600287FF464AFDE
:1056C000072311216748236000F0EAFA10210646FB
:1056D000644800F0E5FA07463046FBF7A9FC2A4685
:1056E00001A96048FBF76CFCA0F10208D8F10000AA
:1056F000624940EB0800FAF7B3FF054600287FF443
:1057000043AF1021574800F0CBFA2A46064601A9BC
:105710005448FBF755FC012800F0A080002201A9A5
:105720005048FBF74DFCA0F1020CDCF1000040EB0F
:105730000C004D49FAF794FF054600287FF424AF8A
:105740003846FBF775FC3046FBF772FC2A4601A988
:105750004448FBF735FC00F1FF3EDEF10000424912
:1057600040EB0E00FAF77CFF054600287FF40CAFF3
:10577000082310213B48236000F092FA10210446D0
:10578000384800F08DFA06462046FBF751FC2A46C1
:1057900001A93448FBF714FC871E78423749784149
:1057A000FAF75EFF2E4C054600287FF4EDAE20216F
:1057B0002C4800F075FAFBF73BFC3046FBF738FC51
:1057C0002A4601A92748FBF7FBFB451E68422649EC
:1057D0006841FAF745FF024600287FF4D5AE092359
:1057E00001A920482360FBF7EBFB01991D4800F05D
:1057F00057FA064600301E4918BF0120FAF730FF5D
:10580000024600287FF4C0AE01461648FBF7D8FBDD
:10581000B0FA80F01A494009FAF722FF054600283D
:105820007FF4B2AE3046FBF703FC2A4601A90A23F7
:105830000C482360FBF7C4FB421E504250410A490A
:10584000FAF70EFF00287FF49FAE0198009B0D49E8
:10585000C31A58425841FAF703FF95E6012068E75A
:10586000E41100202012002080730008FC7300085F
:10587000E8730008147400082874000840740008D5
:105880003C640008507400080000000000000000A4
:1058900008B5074B01224FF47A701A6000F088FBBC
:1058A000BDE80840B0FA80F002494009FAF7D8BED6
:1058B000E4110020D4720008000000000000000085
:1058C0002DE9F843354F0123354C364D3B60042616
:1058D0004FF020094FF0000889F31188EB68314838
:1058E0002360EC60FBF76CFCFBF76AF888F3118827
:1058F0002B69013E1C44EFD102233B6004240020AD
:1059000000F056FB003018BF01202749FAF7A8FE27
:10591000002841D1013CF2D103233B6000F048FB59
:10592000B0FA80F021494009DFF87080FAF798FE5C
:1059300090BB1B4E0423C8F8003006F110094FF04D
:105940002008334688F31188EA68164846F8042B85
:10595000EB60FBF735FCFBF733F884F31188B145B6
:10596000EFD105233B600424002000F021FB003030
:1059700018BF01200C49FAF773FE68B9013CF3D156
:1059800006233B6000F014FBBDE8F843B0FA80F05A
:1059900006494009FAF764BEBDE8F883E411002027
:1059A0000C12002054080020C8720008D4720008AD
:1059B000FBF746BC000000000000000000000000F3
:1059C000014B5B6883607047001000E0000000003E
:1059D000F8B50446202080F311881F4F1F4D7869C9
:1059E000C4F8DC20C4F8E030DFF874E004F1DC0631
:1059F00002220123C4F80C61C4F8FC5004F580763F
:105A0000002584F8202184F8223104F5947204F5ED
:105A10009673C4F80811C4F83C11C4F81401C4F812
:105A20001C41C4F818E184F82151C4F83851C4F875
:105A30003451C4F81071294606613046C4F8282153
:105A4000C4F82C31C4F830317E61FAF7E1FF85F3F8
:105A500011883046F8BD00BF40120020B102000896
:105A6000607400080000000000000000000000005A
:105A7000202383F31188104B99684A1E002A9A60EC
:105A800004DB0020002383F31188704780B10B4AA8
:105A900010B592695C68536282E818000146226082
:105AA00005205A60FBF76CFC002383F3118810BDBE
:105AB00099604FF0FF30E5E7F0120020401200201F
:105AC00010B5202383F31188154CA3680133002BF4
:105AD000A3601BDD013B002BA360114A06DBFAF734
