:020000040800F2
:1000000000040020C1010008E1020008E10200082C
:10001000E1020008E1020008E1020008E102000834
:10002000E1020008E1020008E1020008010F0008F7
:10003000E1020008E1020008E1020008E102000814
:10004000E1020008E1020008E1020008E102000804
:10005000E1020008E1020008E1020008E1020008F4
:10006000E1020008E1020008E1020008F1120008C4
:100070003113000871130008B1130008F1130008D0
:100080003114000871140008E1020008E1020008C0
:10009000E1020008E1020008E1020008E1020008B4
:1000A000E1020008E1020008E1020008E1020008A4
:1000B00041190008E1020008E1020008E10200081D
:1000C000E1020008E1020008E1020008E102000884
:1000D000E1020008011E0008211E0008411E000860
:1000E000E1020008E1020008E1020008E102000864
:1000F000E1020008E1020008E1020008B114000872
:10010000E1020008E1020008E1020008E102000843
:10011000611E0008811E0008E1020008E1020008DB
:10012000F11400083115000871150008B115000818
:10013000F1150008E1020008E1020008E1020008F0
:10014000E1020008E1020008E1020008E102000803
:100150003116000871160008B1160008A11E00082B
:10016000E1020008E1020008E1020008E1020008E3
:10017000E1020008E1020008E1020008E1020008D3
:10018000E1020008E1020008E1020008E1020008C3
:10019000E1020008E1020008E1020008E1020008B3
:1001A000E1020008E1020008E1020008E1020008A3
:1001B000E1020008E1020008E1020008E102000893
:1001C00072B6214880F30988022080F31488BFF3B7
:1001D0006F8F02F015F94FF055301C491C4A9142BF
:1001E0003CBF41F8040BFAE71A49174A91423CBF59
:1001F00041F8040BFAE71849184A194B9A423EBFD6
:1002000051F8040B42F8040BF8E700201549164A90
:1002100091423CBF41F8040BFAE700F051F8134C4F
:10022000134DAC4203DA54F8041B8847F9E702F097
:10023000AFF9104C104DAC4203DA54F8041B884758
:10024000F9E700F045B80000000800200000002099
:100250000004002000040020F82900080008002005
:100260002008002020080020980F0020C00100086E
:10027000C0010008C0010008C00100080000000023
:100280002DE9F04FC1F80CD0D0F80CD0BDE8F08FBC
:1002900000F016F900F0ACFD002383F31188284626
:1002A000A047002000F0CCFC00F09AFD00F0F8F828
:1002B00000F0C6FB00F004F900F09AFD00DFFEE755
:1002C000704700BF000000000000000000000000B8
:1002D000FEE700BF0000000000000000000000007A
:1002E000FEE700BF0000000000000000000000006A
:1002F000024B034A9B699A61FEE700BF2008002079
:10030000202600080000000000000000000000009F
:10031000234B244A2448F0B500249C60DF68234E18
:10032000234D4FF6FF0139400A43DA60F26842F08C
:100330008072F2600268202142F001021026026001
:1003400083B0DE7783F8221000F02AFA00F078F903
:1003500000F0C6FC00F074FD00F0C2FD00F000FDEE
:1003600000F046F94021284600F072FBA5F58867A9
:10037000104BC361012680F82060B86100F080F85E
:1003800084F3118862B6BB690B4A9A6105F1A0003B
:1003900032460094094BF82100F0B2FB03B0F0BDE7
:1003A00000ED00E00003FA05001000E0F0ED00E0D1
:1003B000600C00200004002010270008F102000853
:1003C00072B6014BD862FEE7200800200000000052
:1003D0002DE9F047274D4FF0804600F0E9F800F096
:1003E000E7F8EC69AB6A726AA168D01A884205F135
:1003F0001C0A22D300274FF020082268D4F80C9062
:100400000B445245AB62C2F804A0EA61E7602ED00B
:1004100000F086F800F0FCFC87F311882069C847DB
:1004200088F3118800F0ECFC00F062F8EC69726A65
:10043000AB6AA168D01A8142DFD9544515D00B446C
:100440009B1A012B98BF02239C18204600F0C8FD80
:100450004FF08043A96A5A6A0648631A521A9A42B0
:1004600003D972B6044BC362FEE7BDE8F08700F023
:10047000AFFDCDE720080020102600080000000096
:10048000044B1A6B0AB95B6B13B10348FFF798BFB3
:10049000704700BF20080020402600080000000030
:1004A00010B5054C236B0BB9636B13B10348FFF711
:1004B00087FF0123636310BD200800204826000841
:1004C00010B5074C236B2BB9636B002B02DD0023A7
:1004D000636310BD0348FFF773FF0023636310BD20
:1004E0002008002050260008000000000000000046
:1004F00010B5064C236B002B01DD636B13B1044870
:10050000FFF75EFF0123636310BD00BF20080020DA
:100510005826000800000000000000000000000055
:1005200010B5084C236B002B05DD636B002B02DD3F
:100530000023636310BD0448FFF742FF0023636399
:1005400010BD00BF20080020602600080000000049
:1005500010B5202383F31188074C236B002B01DB9C
:10056000626B1AB10548FFF72BFF236B013323633E
:10057000002383F3118810BD20080020682600089E
:1005800010B5202383F31188074C236B002B01DD6A
:10059000626B1AB10548FFF713FF236B013B23631E
:1005A000002383F3118810BD200800207026000866
:1005B000054B1A6B002A03DB5B6B002B00DD7047D9
:1005C0000248FFF7FDBE00BF200800207826000883
:1005D000044B1A6B1AB95B6B002B00DD70470248A5
:1005E000FFF7EEBE20080020802600080000000073
:1005F000024B40215A189963DA63704720080020A3
:100600000B4A4FF08041D36B10B44C6A916959602A
:100610001C60416A996090F820101973103302F53C
:1006200088618B4228BF02F14003D36310BC70473E
:100630002008002000000000000000000000000072
:10064000054B4FF0FF3003F11C0200215862996204
:10065000DA611A62704700BF200800200000000025
:100660002DE9F04105460E4614469846FFF7A0FFD7
:10067000002D2DD064B35EB31E4FC5F810803B46ED
:10068000012E53F81C1FEC604FF0804298BF0226E9
:100690009942506A23D0BC6A8B683044041B9C4248
:1006A0001AD3FB699A68944204D91B68A41A9A6801
:1006B000A242FAD35A686A602B6015605D60AC6034
:1006C0009A684FF0FF31141B9C607962BDE8F0819D
:1006D0000948FFF775FECFE700F082FCE1E7B8625A
:1006E000FD613D62304429606960AE60BDE8F04163
:1006F00000F056BC200800209026000800000000F2
:1007000010B50446FFF754FF002C33D0E368002BEC
:1007100034D01E4BDA6994420FD0616822680A60B7
:1007200022681C3300209A425160E06004D0A36824
:1007300091680B44936010BD10BD1A46216842F8C1
:100740001C1F002091424A60E0601BD0A2688868AC
:100750009C6A83184FF080428B60506A021B934260
:10076000EAD99B1A012B98BF02231844BDE8104018
:1007700000F036BC0648FFF723FEC7E70448FFF742
:100780001FFEC6E7BDE8104000F022BC2008002094
:10079000A02600080000000000000000000000008B
:1007A000034B00221B605B601B615B619A607047BA
:1007B00020080020000000000000000000000000F1
:1007C00010B50446FFF7F4FEC4B194F820308BB1A5
:1007D0000F2B0FD00022A1680A4B84F820201B6841
:1007E0009A688A42FBD25A6862602360204614608D
:1007F0005C6010BD0448FFF7E3FDEBE70248FFF73C
:10080000DFFDE2E720080020B0260008000000001D
:1008100038B50446202383F3118800F0F1FAFFF77E
:1008200067FE94F82030072B10D8DFE803F0150F8F
:100830000F1D0A040F0A656AFFF7BAFEAB680133A1
:10084000AB6094E80C001A60226853604FF0FF33ED
:1008500063622046FFF7B4FFFFF762FE00F0D8FAAC
:10086000002383F3118838BD636A00221A604FF0B9
:10087000FF3363622046FFF7A3FFEDE700000000AF
:1008800070B5124C0646FFF7A3FEA569236885F8EC
:1008900020601A68226001215460284683F82010E5
:1008A000A361FFF7ADFE2946A06900F081FAEFF3DE
:1008B0000983EA69243B9A4202D90548FFF780FD83
:1008C0002946A069BDE87040FFF7DABC2008002087
:1008D000C02600080000000000000000000000002A
:1008E00070B50C4686B00646FFF772FE631C14D046
:1008F0000E4D0F4AAB69214601A8FFF7B1FE304605
:10090000FFF7BEFFFFF754FE049B13B101A8FFF7EA
:10091000F7FEAB69586A06B070BD044D3046FFF76C
:10092000AFFFAB69586A06B070BD00BF2008002059
:100930001108000800000000000000000000000096
:1009400070B5194D04460E46FFF742FEA86966626F
:100950008368A2689A4218D9FFF732FF012306463E
:1009600084F82030AC61FFF74BFE3146204600F0A2
:100970001FFAEFF30983F269243B9A420AD8314601
:100980002046BDE87040FFF77BBC2046BDE87040C4
:10099000FFF716BF0548FFF713FD31462046BDE8B7
:1009A0007040FFF76DBC00BF20080020C026000883
:1009B000044B1A689B6990689B68984294BF00201A
:1009C0000120704720080020000000000000000007
:1009D00038B5174D2A68AC6913682B6001215D603A
:1009E000002082F82010A16884F82000AA6100E0AD
:1009F0001B689A688A42FBD85A6862602360204666
:100A000014605C60FFF7FCFD2146A86900F0D0F996
:100A1000EFF30983E269243B9A4202D90548FFF7C4
:100A2000CFFC2146A869BDE83840FFF729BC00BFCC
:100A300020080020C0260008000000000000000080
:100A4000FFF7C6BF0000000000000000000000002B
:100A5000154AF8B504460225506921640023A160B7
:100A60004FF0010E04F12C0184F8205004F1280706
:100A700004F1480504F160062261606184F822E017
:100A800084F82130E363A363A36104612846E16233
:100A90002163A762E661546100F0E2F8284600F0A5
:100AA000EFF82046F8BD00BF20080020000000003D
:100AB0002DE9F04104460D4616461F46DDF8188024
:100AC000FFF776FD0CB1E72D11D80B48FFF778FC46
:100AD000A5F12403E218094DE2603146E7502046B3
:100AE000C2F804801562BDE8F041FFF7B1BF7F2E68
:100AF000EBD8002FECD1E8E7E026000891020008CF
:100B00002DE9F04F83B080460C9F894692469B4664
:100B100000F160050446FF2604F8016BA542FBD1F5
:100B200008EB0904A54238BF552603D205F8016B2E
:100B3000AC42FBD1202383F3118800F051F9FFF779
:100B4000AFFC5B465246494600974046FFF7B0FF70
:100B500000210446FFF7F4FEFFF7B2FC00F048F96D
:100B6000094B1A689A4207D0996993688A689A4231
:100B700002D20648FFF724FC002383F311882046A5
:100B800003B0BDE8F08F00BF200800200027000858
:100B900010B52023044683F3118800F021F9FFF7F4
:100BA0007FFC14B90D48FFF70BFC21460820FFF726
:100BB00097FEFFF785FC00F01BF9094B1A689A4273
:100BC00007D0996993688A689A4202D20548FFF76C
:100BD000F7FB002383F3118810BD00BFF026000847
:100BE000200800200027000800000000000000008E
:100BF00038B5104B9C69A36A606204F128059D42D8
:100C000007D01A68A2621846FFF7DAFDA36AAB4262
:100C1000F7D194F821309B0704D1636922691A61E6
:100C2000226953610F20FFF72BFE0348BDE83840CF
:100C3000FFF7C6BB20080020D026000800000000F7
:100C400010B52023044683F3118800F0C9F8FFF79C
:100C500027FC2046BDE81040FFF7CABF0000000097
:100C600000220023C0E9042300234FF0FF3280E874
:100C70000C008360C36070470000000000000000AB
:100C8000014B5B6883607047001000E000000000CB
:100C90000F4B10495A688368F0B4D1F8A074C66845
:100CA0004168D0E90445D31ADB1BE41845F100057F
:100CB00001368B42C6608360C0E9044505D80268EE
:100CC000934238BF0360F0BC70474360F0BC70478C
:100CD000001000E0200800200000000000000000DC
:100CE000D0B50D4C86B000234FF0FF326846002689
:100CF0000027C4F8A0340193029303930092CDE936
:100D00000467FFF7BDFF6846FFF7C2FF029BC4F808
:100D1000A03406B0D0BD00BF2008002000000000B5
:100D20000E4B42685B6870B48B60D0E904458668FE
:100D3000C1689B1BE41845F1000501319342C16075
:100D40008360C0E9044505D80268934238BF036058
:100D500070BC7047436070BC704700BF001000E07B
:100D600010B5084C002304F59660C4F8A834C4F804
:100D7000AC34FFF775FF04F59960BDE81040FFF74C
:100D80006FBF00BF2008002000000000000000002E
:100D9000034AD2F8A8340133C2F8A834704700BF20
:100DA00020080020000000000000000000000000FB
:100DB000074AD2F8AC3410B401F14804013300F111
:100DC0004801204610BCC2F8AC34FFF7A9BF00BFF1
:100DD00020080020000000000000000000000000CB
:100DE0000148FFF74DBF00BFD00C002000000000FD
:100DF0000148FFF74DBF00BFD00C002000000000ED
:100E00000148FFF73DBF00BFE80C002000000000D4
:100E10000148FFF73DBF00BFE80C002000000000C4
:100E200010B5044620B1002324606460A36010BDA7
:100E30000148FFF7C5FAF6E7302700080000000078
:100E4000054A064B0648074922F0070223F007032C
:100E500002600B60704700BF9F0F0020000002205F
:100E6000FC0D0020F80D0020000000000000000034
:100E700010B52023044683F31188FFF7B1FFFFF775
:100E80000FFBFFF795FB1149114B08681A68E31D2A
:100E900023F00703121A93429DBF1B180B600446F0
:100EA0000024FFF70DFBFFF7A3FF0A4B1A689A42D5
:100EB00007D0996993688A689A4202D20648FFF778
:100EC0007FFA002383F31188204610BDFC0D00201B
:100ED000F80D002020080020402700080000000036
:100EE000044B054A1A6003F1100000229A60DA6090
:100EF000FFF796BF000E0020710E000800000000F2
:100F0000EFF30983203383F30988002383F31188E7
:100F1000704700BF0000000000000000000000005B
:100F2000202383F311880F4B5B6813F4006302D115
:100F300083F31188704710B5EFF309844FF0807385
:100F400044F8043CA4F1200383F30988FFF730FD43
:100F500018B1054B44F8083C10BD044B44F8083C5C
:100F600010BD00BF00ED00E0A9020008BC020008AF
:100F700008B500F045FC054800F032FD00F040F8EF
:100F800001F046FABDE8084000F002B8E028000889
:100F900000F0FEBC000000000000000000000000A7
:100FA0004FF0804310B5DB689B07044602D5054827
:100FB000FFF706FA4FF08043002102225C631961BB
:100FC000DA6010BD5027000800000000000000009B
:100FD0004FF080430022DA60704700BF000000003D
:100FE0004FF0804310B5DB689B07044602D40348EA
:100FF000FFF7E6F94FF080435C6310BD60270008FF
:1010000000F05EBF000000000000000000000000D3
:10101000002301220270437083704360704700BF59
:1010200038B50D46044640B339B3202383F3118805
:10103000FFF7D6FEFFF734FA2378013B012B02D9E4
:101040001048FFF7BDF92046656000F0B9FF0223A4
:101050002370FFF735FAFFF7CBFE0B4B1A689A4265
:1010600007D0996993688A689A4202D20748FFF7C5
:10107000A7F9002383F3118838BD0248FFF7A0F9D0
:10108000D3E700BF8027000820080020B027000811
:1010900070B50D461646044600B169BB1A48FFF705
:1010A0008FF9202383F31188FFF79AFEFFF7F8F9F1
:1010B0002378022B02D01448FFF782F96378012BC2
:1010C0001DD032462946204601F022F901236370E3
:1010D000FFF7F6F9FFF78CFE0C4B1A689A4207D01F
:1010E000996993688A689A4202D20948FFF768F9B9
:1010F000002383F3118870BD002AD2D1CEE70248C5
:10110000FFF75EF9DDE700BFA027000820080020F8
:10111000B0270008000000000000000000000000F0
:1011200038B5044660B3202383F31188FFF758FED7
:10113000FFF7B6F92378022B02D01348FFF740F9E6
:101140006378012B15D00025FFF7BAF9FFF750FEA1
:101150000E4B1A689A4207D0996993688A689A4236
:1011600002D20B48FFF72CF9002383F3118828469D
:1011700038BD204601F0ECF8002305466370E3E734
:101180000148FFF71DF9CEE790270008200800204E
:10119000B027000800000000000000000000000070
:1011A00070B50D461646044600B169BB1A48FFF7F4
:1011B00007F9202383F31188FFF712FEFFF770F978
:1011C0002378022B02D01448FFF7FAF8A378012BFA
:1011D0001DD032462946204601F0CAF80123A370EB
:1011E000FFF76EF9FFF704FE0C4B1A689A4207D01E
:1011F000996993688A689A4202D20948FFF7E0F831
:10120000002383F3118870BD002AD2D1CEE70248B3
:10121000FFF7D6F8DDE700BFC02700082008002050
:10122000B0270008000000000000000000000000DF
:1012300038B5044660B3202383F31188FFF7D0FD4F
:10124000FFF72EF92378022B02D01348FFF7B8F8E6
:10125000A378012B15D00025FFF732F9FFF7C8FD61
:101260000E4B1A689A4207D0996993688A689A4225
:1012700002D20B48FFF7A4F8002383F31188284615
:1012800038BD204601F094F800230546A370E3E73B
:101290000148FFF795F8CEE77027000820080020E6
:1012A000B02700080000000000000000000000005F
:1012B00043099B0010B403F1604300F1604404F55E
:1012C000614403F56143090100F01F00012202FAA5
:1012D00000F0C9B284F80013C3F88001186010BC94
:1012E000704700BF00000000000000000000000088
:1012F00008B5FFF74DFDFFF72BF9084B084A1968B1
:1013000001F03D01996013680BB150689847FFF7F1
:1013100037F9BDE80840FFF703BE00BF0060024098
:10132000200E00200000000000000000000000006F
:1013300010B5FFF72DFDFFF70BF9094B09481968A8
:101340008268890901F03D018C019C600AB1C06886
:101350009047FFF715F9BDE81040FFF7E1BD00BF6A
:1013600000600240200E002000000000000000008D
:1013700010B5FFF70DFDFFF7EBF8094B09481968A9
:101380000269090C01F03D010C049C600AB140693E
:101390009047FFF7F5F8BDE81040FFF7C1BD00BF6B
:1013A00000600240200E002000000000000000004D
:1013B00010B5FFF7EDFCFFF7CBF8094B09481968AA
:1013C0008269890D01F03D018C059C600AB1C069FC
:1013D0009047FFF7D5F8BDE81040FFF7A1BD00BF6B
:1013E00000600240200E002000000000000000000D
:1013F00008B5FFF7CDFCFFF7ABF8084B0848596874
:10140000026A01F03D01D9600AB1406A9047FFF7D6
:10141000B7F8BDE80840FFF783BD00BF0060024099
:10142000200E00200000000000000000000000006E
:1014300010B5FFF7ADFCFFF78BF8094B0948596869
:10144000826A890901F03D018C01DC600AB1C06A41
:101450009047FFF795F8BDE81040FFF761BD00BF6A
:1014600000600240200E002000000000000000008C
:1014700010B5FFF78DFCFFF76BF8094B0948596869
:10148000026B090C01F03D010C04DC600AB1406BF9
:101490009047FFF775F8BDE81040FFF741BD00BF6A
:1014A00000600240200E002000000000000000004C
:1014B00010B5FFF76DFCFFF74BF8094B0948596869
:1014C000826B890D01F03D018C05DC600AB1C06BB7
:1014D0009047FFF755F8BDE81040FFF721BD00BF6A
:1014E00000600240200E002000000000000000000C
:1014F00008B5FFF74DFCFFF72BF8084B08481968B3
:10150000026C01F03D0199600AB1406C9047FFF711
:1015100037F8BDE80840FFF703BD00BF0064024094
:10152000200E00200000000000000000000000006D
:1015300010B5FFF72DFCFFF70BF8094B09481968A8
:10154000826C890901F03D018C019C600AB1C06C7C
:101550009047FFF715F8BDE81040FFF7E1BC00BF6A
:1015600000640240200E0020000000000000000087
:1015700010B5FFF70DFCFEF7EBFF094B09481968A2
:10158000026D090C01F03D010C049C600AB1406D34
:101590009047FEF7F5FFBDE81040FFF7C1BC00BF64
:1015A00000640240200E0020000000000000000047
:1015B00010B5FFF7EDFBFEF7CBFF094B09481968A3
:1015C000826D890D01F03D018C059C600AB1C06DF2
:1015D0009047FEF7D5FFBDE81040FFF7A1BC00BF64
:1015E00000640240200E0020000000000000000007
:1015F00008B5FFF7CDFBFEF7ABFF084B084859686D
:10160000026E01F03D01D9600AB1406E9047FEF7CD
:10161000B7FFBDE80840FFF783BC00BF006402408D
:10162000200E00200000000000000000000000006C
:1016300010B5FFF7ADFBFEF78BFF094B0948596862
:10164000826E890901F03D018C01DC600AB1C06E37
:101650009047FEF795FFBDE81040FFF761BC00BF63
:1016600000640240200E0020000000000000000086
:1016700010B5FFF78DFBFEF76BFF094B0948596862
:10168000026F090C01F03D010C04DC600AB1406FEF
:101690009047FEF775FFBDE81040FFF741BC00BF63
:1016A00000640240200E0020000000000000000046
:1016B00010B5FFF76DFBFEF74BFF094B0948596862
:1016C000826F890D01F03D018C05DC600AB1C06FAD
:1016D0009047FEF755FFBDE81040FFF721BC00BF63
:1016E00000640240200E0020000000000000000006
:1016F0000E490F4A0F48002310B40B600E4C1946D8
:1017000001E052F80C0C016044F833100133102B47
:1017100002F10C02F5D10949094A10BC4FF0FF3320
:101720008B60CB609360D360704700BFA00E002039
:101730000C28000810600240200E002000600240CB
:1017400000640240000000000000000000000000F3
:10175000F0B5054685B000283ED0244C6F7A266847
:10176000012000FA07FE1EEA060F2AD120484EEAA1
:10177000060600EBC70E16F0FF0F266040F8372074
:10178000CEF8043004D01B48036B43F4001303630A
:1017900016F47F4F17D12B68186820F01F001860CF
:1017A000186810F00104FBD12F7A6E683D20B84014
:1017B000212730601C605F615AB1A87AFFF778FD7D
:1017C000204605B0F0BD0B48036B43F48003036370
:1017D000E1E7104605B0F0BD07480393029201917E
:1017E000FEF7EEFD01A90EC9B7E700BFA00E00206D
:1017F000200E002000380240E02700080000000012
:10180000164B4FF0FF311A69002210B419611A61AA
:10181000586959615A61186A114C60F08050186219
:101820001A62586A59625A62196C41F080511964FF
:10183000216841F480712160196F01F44071B1F5A4
:10184000007F03D04FF4803119671A67044A10BC37
:10185000536823F400735360FFF74ABF0038024017
:1018600000700040000000000000000000000000C8
:101870002C492D4B4FF080504FF4404208641A60C1
:101880000B6843F001030B600A68264B9007FBD5F9
:101890009A6822F003029A609A689A6019468B68E7
:1018A000204A13F00C03FAD1116801F0F90111601C
:1018B0009360136843F4803313601168194B8903F4
:1018C000FBD55A6F42F001025A675A6F15499007CB
:1018D000FBD5164B4B600B68134A43F080730B60CB
:1018E00053685904FCD50F490A680E4B9201FBD589
:1018F0000F4A1049996040F2057111609A6842F0F0
:1019000002029A601A469368064903F00C03082BFA
:10191000F9D14B6C43F480434B644B6E43F48043EA
:101920004B66704700380240007000400854400782
:10193000003C024000940838000000000000000055
:1019400010B5FFF725FAFEF703FE4FF080431A6942
:10195000920710D500241C61202383F31188FFF720
:101960004FFAFEF7C5FDFEF733FDFEF7D9FDFFF791
:101970004FFA84F31188FEF703FEBDE81040FFF72D
:10198000CFBA00BF0000000000000000000000000F
:101990000F4A1048136C70B443F00103136481685C
:1019A0004FF080430022012441F0010142F2CF06B2
:1019B0004FF0FF3581609E620821DD621C209A6134
:1019C0005A63DA605A605C611C6070BCFFF770BCDF
:1019D00000380240002004E0000000000000000089
:1019E000F0B4654D654C2F6B6549664A664B40F215
:1019F000FF1637432F632F6D3E432E6545686560A4
:101A00008568A560C568E560056965614569256209
:101A10008569656205682560046A4C60446A8C606B
:101A2000846ACC60C46A4C61046B0C62446B4C6287
:101A3000C4690C60C16B5160016C9160416CD160F4
:101A4000816C5161C16C1162016D5162816B1160D9
:101A5000826D5A60C26D9A60026EDA60426E5A619F
:101A6000826E1A62C26E5A62426D1A60426FC3F889
:101A70000424826FC3F80824C26FC3F80C24D0F882
:101A80008020C3F81424D0F88420C3F82024D0F890
:101A90008820C3F82424026FC3F80024D0F89020D3
:101AA000C3F80428D0F89420C3F80828D0F8982068
:101AB000C3F80C28D0F89C20C3F81428D0F8A02034
:101AC000C3F82028D0F8A420C3F82428D0F88C200C
:101AD000C3F8002803F54063D0F8AC205A60D0F872
:101AE000B0209A60D0F8B420DA60D0F8B8205A61FB
:101AF000D0F8BC201A62D0F8C0205A62D0F8A820D2
:101B00001A60D0F8C820C3F80424D0F8CC20C3F859
:101B10000824D0F8D020C3F80C24D0F8D420C3F87F
:101B20001424D0F8D820C3F82024D0F8DC20C3F83F
:101B30002424D0F8C420C3F80024D0F8E420C3F84B
:101B40000428D0F8E820C3F80828D0F8EC20C3F81F
:101B50000C28D0F8F020C3F81428D0F8F420C3F8EB
:101B60002028D0F8F820C3F82428D0F8E020C3F8C3
:101B70000028F0BC704700BF00380240000002405F
:101B80000004024000080240000C02400000000077
:101B90002DE9F04F4FF00F0C02F0030EC2F3800757
:101BA000C2F3C106C2F341150024C2F3C3124FF0C1
:101BB00001094FF0030830E0D0F820B02BEA03030E
:101BC00043EA0A030362436809FA04FA23EA0A03B0
:101BD0003B4343606300D0F808A008FA03F3DB43FB
:101BE0000AEA030A4AEA060AC0F808A0D0F80CA0DC
:101BF00003EA0A0A4AEA050AC0F80CA0D0F800A0D5
:101C000003EA0A0343EA0E030360490819D07F0080
:101C1000B600AD004FEA8E0E013404F007039B00BE
:101C200011F0010F02FA03FA0CFA03F3EDD0072CBE
:101C3000C2D9D0F824B02BEA030343EA0A03436273
:101C4000C1E7BDE8F08F00BF000000000000000009
:101C500001690A68136823F01F0313601368DB0728
:101C6000FCD430B444690D7A496822683D23AB4006
:101C70000B60136823F01F031360136813F0010354
:101C8000FBD1257A826860683D21A940016030BCA3
:101C9000D360136153617047000000000000000032
:101CA0002DE9F0418468E7682668626840F20F1306
:101CB00033400546EBB143681A696FF480732360C3
:101CC000BAB1B3B213F0080F0CBF00211021D8072E
:101CD00048BF41F00401980748BF41F00801580788
:101CE00048BF41F02001D80548BF41F040012846D7
:101CF000904772060ED57B060CD56B685B6827F0A3
:101D000040076FF040022260E7601BB12846BDE843
:101D1000F0411847BDE8F08100000000000000001D
:101D200011F00C0F38B504461BD161690A681368BD
:101D300023F01F0313601368DB07FCD463680D7A7C
:101D400048681A683D23AB400221036061702AB1E4
:101D5000204690476378022B00D038BD0023637083
:101D600038BD0248FEF72CFBDFE700BFD028000893
:101D700011F00C0F70B504463BD1A3784BB96368E2
:101D8000DB68002B34D0218B204689B2BDE870403F
:101D9000184721690A68136823F01F03136013684A
:101DA000DB07FCD460680D7A4E6881683D23AB4048
:101DB00002253360A57039B120468847A378AB422D
:101DC00016D1236960681A68C168E368002914BFE6
:101DD0004FF488714FF480710B430025012104F109
:101DE0001800A570D0605160136013680B43136036
:101DF00070BD0248FEF7E4FABFE700BFD028000834
:101E000008B5FEF7C5FFFEF7A3FB0448FFF748FF40
:101E1000FEF7B6FBBDE80840FFF782B8A40E00202D
:101E200008B5FEF7B5FFFEF793FB0448FFF738FF50
:101E3000FEF7A6FBBDE80840FFF772B8300F0020A0
:101E400008B5FEF7A5FFFEF783FB0448FFF728FF60
:101E5000FEF796FBBDE80840FFF762B8C00E002011
:101E600008B5FEF795FFFEF773FB0448FFF718FF70
:101E7000FEF786FBBDE80840FFF752B8DC0E0020F5
:101E800008B5FEF785FFFEF763FB0448FFF708FF80
:101E9000FEF776FBBDE80840FFF742B8F80E0020D9
:101EA00008B5FEF775FFFEF753FB0448FFF7F8FE91
:101EB000FEF766FBBDE80840FFF732B8140F0020BC
:101EC0002DE9F84FDFF8E0A02E4CDFF8E090DFF8C6
:101ED000E0802D4F2D4D5046FFF79AF8062604F16D
:101EE000180B2B4BCAF808304846CAF81040CAF8FD
:101EF00014B0CAF80C60FFF78BF8264BC9F808300D
:101F0000A4F16003C9F810304046A4F15403C9F8A5
:101F10001430C9F80C60FFF77BF81F4BC8F8083085
:101F2000A4F19003C8F810303846A4F17803DFF824
:101F30008490C8F81430C8F80C60FFF769F8174BA4
:101F4000BB60A4F18402A4F16C0328463A617B6172
:101F5000FE60FFF75DF8A4F14803A4F19C0210496C
:101F60006B614846EE60A9602A61243CFFF750F897
:101F70000C4BC9F814B0C9F81040C9F80830BDE8D6
:101F8000F88F00BF9C280008DC0E0020F80E00200F
:101F9000001001400044004000480040004C004058
:101FA0000050004000140140A40E0020300F00201B
:101FB000C00E0020140F00200000000000000000F0
:101FC000F8B50378012B04463ED085680023A37042
:101FD00063702046FFF73CFEA3689C4A93425BD0A7
:101FE00002F58062934257D06268994B5169B3FB06
:101FF000F1F3AB60D768138B508B918B22692E68FD
:102000006E68E6681268002F43F404534FF000072F
:102010002F6040F0400014BF4FF488774FF4807772
:1020200043F00C0341F0C1019BB23E4380B2012753
:1020300089B2183428616961EB60D460576016601A
:1020400013683B431360F8BD824DA84200F0A080A6
:10205000814DA84200F0BC80804DA84200F0D7809E
:102060007F4DA8424DD07F4DA8421CD07E4DAC4242
:1020700000F0068163681B8B03F4A053B3F5805F07
:102080003AD022696369A5681068196800222B1D7F
:1020900083608B60228399E76268744B5169B3FB5C
:1020A000F1F3AB60A6E74268538B03F4F853002BBF
:1020B00069D1938B03F4E663002B60D1694B6C4AC2
:1020C00028690C21FFF744FB002854D1654B694A6D
:1020D00068690C21FFF73CFB002848D1664A136C65
:1020E00043F4801313640C213520FFF7E1F8EB680B
:1020F00043F00063EB60BDE7E36843F42053E36023
:10210000BFE74268538B03F4F8535BBB938B03F434
:10211000E6631BBB524B564A28690C21FFF718FB9C
:10212000C0B94F4B534A68690C21FFF711FB68B9DE
:10213000514A136C43F4002313640C213420FFF73D
:10214000B7F8EB6843F00063EB6093E74B48FEF7AA
:1021500037F9EDE74948FEF733F9E2E74748FEF77C
:102160002FF9D7E74548FEF72BF96268CEE74348D9
:10217000FEF726F9B2E74148FEF722F9A6E73F4805
:10218000FEF71EF99AE73D48FEF71AF9626890E7F4
:102190000346374A00690C21FFF7DAFA002840F0BD
:1021A0009F802C4B334A68690C21FFF7D1FA002835
:1021B00040F09280304A536C43F0100353640C217A
:1021C0002520FFF775F8EB6843F00063EB604DE7FF
:1021D0000346274A00690C21FFF7BAFA002840F0AD
:1021E00087801D4B234A68690C21FFF7B1FA00284C
:1021F0007AD1214A136C43F4003313640C21262056
:10220000FFF756F8EB6843F00063EB602EE70346F8
:10221000174A00690C21FFF79BFA002850D10F4B99
:10222000144A68690C21FFF793FA002844D1124A36
:10223000136C43F4802313640C212720FFF738F834
:10224000EB6843F00063EB6014E700BF001001404F
:1022500080DE8002A40E0020300F0020C00E00207F
:10226000DC0E0020F80E0020140F002000BD010538
:10227000711D0008211D000800380240C028000818
:1022800023461D4A20690C21FFF762FA00BB1B4B55
:102290001B4A68690C21FFF75BFAA8B9194A536C0D
:1022A00043F0200353640C214720FFF701F8EB684B
:1022B00043F02063EB60DDE61348FEF781F8B6E7F4
:1022C0001148FEF77DF8AAE70F48FEF779F8E5E731
:1022D0000D48FEF775F8DAE70B48FEF771F869E785
:1022E0000948FEF76DF85CE70748FEF769F880E7F4
:1022F0000548FEF765F874E7711D0008140F00200B
:10230000211D000800380240C0280008000000001D
:1023100030B443694568C4681B686D68DA6044F48A
:102320008A6459601C603DB182686FF040011160A1
:10233000D16841F04001D1601A6842F001021A6090
:1023400030BC7047000000000000000000000000EA
:1023500041690A68136823F01F0313601368DB07E1
:10236000FCD4087A49683D2383400B60506870476D
:1023700070B405692C68236823F01F032360236869
:10238000DB07FCD42E7A6D683D23B3402B60C36815
:10239000E26043F4826361602360236843F00103D9
:1023A000236070BC704700BF000000000000000008
:1023B000014600690268136823F01F031360136865
:1023C000DB07FCD430B44B68057ADC6840683D23F9
:1023D000AB400360CB685068002C0CBF4FF4807496
:1023E0004FF48874234318310124D1605460136082
:1023F00013682343136030BC704700BF0000000027
:10240000FFF736BA000000000000000000000000E6
:10241000704700BF00000000000000000000000046
:10242000024B4FF400525A83704700BF000C024029
:10243000024B4FF480525A83704700BF000C024099
:10244000024B4FF480425A83704700BF000C024099
:10245000704700BF00000000000000000000000006
:10246000704700BF000000000000000000000000F6
:10247000144B4FF4805210B51A83202383F3118834
:10248000114CFEF7BDFCFEF733F8FEF791F8E36858
:1024900013B12046FEF734F9FEF78AF8E36813B16A
:1024A0000948FEF72DF90023084A07484FF4FA615E
:1024B000FEF7D6F8FEF734F8FEF7AAFC002383F304
:1024C000118810BD000C0240600F0020312400086C
:1024D000144B4FF4005210B51A83202383F3118854
:1024E000114CFEF78DFCFEF703F8FEF761F8E36888
:1024F00013B12046FEF704F9FEF75AF8E36813B16A
:102500000948FEF7FDF80023084A07484FF4FA612E
:10251000FEF7A6F8FEF704F8FEF77AFC002383F333
:10252000118810BD000C02404C0F0020212400082F
:10253000144B4FF4804210B51A83202383F3118883
:10254000114CFEF75DFCFDF7D3FFFEF731F8E368B1
:1025500013B12046FEF7D4F8FEF72AF8E36813B16A
:102560000948FEF7CDF80023084A07484FF4FA61FE
:10257000FEF776F8FDF7D4FFFEF74AFC002383F35D
:10258000118810BD000C0240740F00204124000887
:1025900008B5174CFEF7ECFCFDF7BAFE15491648D6
:1025A000FEF73EFD204640F282320421FFF7F0FAAA
:1025B00040F2823208212046FFF7EAFA03E041F2B6
:1025C0008830FEF7E5FA2369DB07F8D50A48FEF7FD
:1025D0002FFE0948FEF7A4FD084A07481021FEF720
:1025E000DFFD074A04481021FEF752FDE7E700BF70
:1025F0000000024000080020300F0020880F00205B
:10260000E0290008000000000000000000000000B9
:1026100063685654446F5469636B490000000000BE
:1026200069646C650000000000000000000000000C
:10263000535623310000000053562332000000009F
:10264000535623330000000053562334000000008B
:102650005356233500000000535623360000000077
:102660005356233700000000535623380000000063
:102670005356233900000000535623313000000028
:10268000535623313100000000000000000000001C
:1026900063685654446F536574490000000000009D
:1026A00063685654446F52657365744900000000B6
:1026B00063685363685265616479490000000000F3
:1026C000737461636B206F766572666C6F77000060
:1026D0006368546864457869745300000000000022
:1026E0006368546864437265617465490000000062
:1026F0006368546864536C656570530000000000A3
:102700006368537973556E6C6F636B000000000053
:102710006D61696E00160018040460080C1014182E
:102720001C2021220000000000000000000000002A
:1027300063684D74784F626A656374496E697400AA
:102740006368537973556E6C6F636B000000000013
:1027500073745374617274416C61726D0000000097
:102760007374536574416C61726D00000000000069
:102770007561727453746F70526563656976650034
:10278000756172745374617274000000000000007F
:102790007561727453746F7053656E64000000004D
:1027A00075617274537461727453656E64000000D5
:1027B0006368537973556E6C6F636B0000000000A3
:1027C000756172745374617274526563656976657C
:1027D00000000000000000000000000000000000F9
:1027E000646D6153747265616D416C6C6F6361748B
:1027F0006500000000000000000000000000000074
:10280000106002400860024000000B002860024097
:102810000860024006010C0040600240086002406F
:1028200010020D00586002400860024016030E00BE
:10283000706002400C60024000040F00886002409B
:102840000C60024006051000A06002400C600240CF
:1028500010061100B86002400C60024016072F00FD
:1028600010640240086402400008380028640240F6
:1028700008640240060939004064024008640240CE
:10288000100A3A005864024008640240160B3B00EC
:10289000706402400C640240000C3C0088640240FA
:1028A0000C640240060D4400A06402400C64024027
:1028B000100E4500B86402400C640240160F46003A
:1028C000756172745F6C6C645F7374617274000024
:1028D000444D41206661696C75726500000000001E
:1028E00000AAA02A00000000FFABFFFF5400014037
:1028F000FFFF00000000565500AA0A0080200800D3
:1029000040020000FFFFFFFF15455155FFFF00008B
:1029100000000004400000000180200200000000D0
:10292000FFFFFFFF54154554FFFF0000000000604B
:10293000000606000001005500000000FFFFFFFF39
:1029400055505500FF0F000000000000000000007F
:102950004000000000000000FFFFFFFF000000003B
:10296000FFFF000000000000000000000000000069
:1029700000000000FFFFFFFF00000000FFFF00005D
:102980000000000000000000000000000000000047
:10299000FFFFFFFF00000000FFFF0000000000003D
:1029A000000000000000000000000000FFFFFFFF2B
:1029B00000000000FFFF0000000000000000000019
:1029C0000000000000000000FFFFFFFF000000000B
:1029D000FFFF0000000000000000000000000000F9
:1029E0003031323334353637383941424344454645
:0129F00000E6
:1029F8005124000831250008D1240008712400085A
:102A0800612400080096000000000040000000005B
:04000005080001C12D
:00000001FF
